{
  "contractName": "SafeMathWrapper",
  "abi": [
    {
      "constant": true,
      "inputs": [
        {
          "name": "a",
          "type": "uint256"
        },
        {
          "name": "b",
          "type": "uint256"
        }
      ],
      "name": "multiply",
      "outputs": [
        {
          "name": "",
          "type": "uint256"
        }
      ],
      "payable": false,
      "stateMutability": "pure",
      "type": "function"
    },
    {
      "constant": true,
      "inputs": [
        {
          "name": "a",
          "type": "uint256"
        },
        {
          "name": "b",
          "type": "uint256"
        }
      ],
      "name": "divide",
      "outputs": [
        {
          "name": "",
          "type": "uint256"
        }
      ],
      "payable": false,
      "stateMutability": "pure",
      "type": "function"
    },
    {
      "constant": true,
      "inputs": [
        {
          "name": "a",
          "type": "uint256"
        },
        {
          "name": "b",
          "type": "uint256"
        }
      ],
      "name": "subtract",
      "outputs": [
        {
          "name": "",
          "type": "uint256"
        }
      ],
      "payable": false,
      "stateMutability": "pure",
      "type": "function"
    },
    {
      "constant": true,
      "inputs": [
        {
          "name": "a",
          "type": "uint256"
        },
        {
          "name": "b",
          "type": "uint256"
        }
      ],
      "name": "addto",
      "outputs": [
        {
          "name": "",
          "type": "uint256"
        }
      ],
      "payable": false,
      "stateMutability": "pure",
      "type": "function"
    }
  ],
  "bytecode": "0x608060405234801561001057600080fd5b506102f3806100206000396000f3fe608060405260043610610062576000357c0100000000000000000000000000000000000000000000000000000000900463ffffffff1680630ec410f314610067578063165c4a16146100c05780633ef5e44514610119578063f88e9fbf14610172575b600080fd5b34801561007357600080fd5b506100aa6004803603604081101561008a57600080fd5b8101908080359060200190929190803590602001909291905050506101cb565b6040518082815260200191505060405180910390f35b3480156100cc57600080fd5b50610103600480360360408110156100e357600080fd5b8101908080359060200190929190803590602001909291905050506101e8565b6040518082815260200191505060405180910390f35b34801561012557600080fd5b5061015c6004803603604081101561013c57600080fd5b810190808035906020019092919080359060200190929190505050610205565b6040518082815260200191505060405180910390f35b34801561017e57600080fd5b506101b56004803603604081101561019557600080fd5b810190808035906020019092919080359060200190929190505050610222565b6040518082815260200191505060405180910390f35b60006101e0828461023f90919063ffffffff16565b905092915050565b60006101fd828461025d90919063ffffffff16565b905092915050565b600061021a828461029890919063ffffffff16565b905092915050565b600061023782846102b190919063ffffffff16565b905092915050565b600080828401905083811015151561025357fe5b8091505092915050565b6000808314156102705760009050610292565b6000828402905082848281151561028357fe5b0414151561028d57fe5b809150505b92915050565b60008282111515156102a657fe5b818303905092915050565b600081838115156102be57fe5b0490509291505056fea165627a7a7230582035fc5f86564a957e1a1a8ca0f6fb8d7fac7143d1f6777c59712c908aedf7e8f60029",
  "source": "pragma solidity 0.5.0;\n\nimport \"./SafeMath.sol\";\n\ncontract SafeMathWrapper {\n  using SafeMath for uint;\n\n  function multiply(uint256 a, uint256 b) external pure returns (uint256) {\n    return a.mul(b);\n  }\n\n  function divide(uint256 a, uint256 b) external pure returns (uint256) {\n    return a.div(b);\n  }\n\n  function subtract(uint256 a, uint256 b) external pure returns (uint256) {\n    return a.sub(b);\n  }\n\n  function addto(uint256 a, uint256 b) external pure returns (uint256) {\n    return a.add(b);\n  }\n\n}\n",
  "sourcePath": "/home/dog/code/mybit/tokensale/contracts/SafeMathWrapper.sol",
  "compiler": {
    "name": "solc",
    "version": "0.5.0+commit.1d4f565a.Emscripten.clang"
  },
  "schemaVersion": "3.0.0-beta.1",
  "updatedAt": "2018-11-20T05:08:42.093Z"
}