{
  "contractName": "SafeMathWrapper",
  "abi": [
    {
      "constant": true,
      "inputs": [
        {
          "name": "a",
          "type": "uint256"
        },
        {
          "name": "b",
          "type": "uint256"
        }
      ],
      "name": "multiply",
      "outputs": [
        {
          "name": "",
          "type": "uint256"
        }
      ],
      "payable": false,
      "stateMutability": "pure",
      "type": "function"
    },
    {
      "constant": true,
      "inputs": [
        {
          "name": "a",
          "type": "uint256"
        },
        {
          "name": "b",
          "type": "uint256"
        }
      ],
      "name": "divide",
      "outputs": [
        {
          "name": "",
          "type": "uint256"
        }
      ],
      "payable": false,
      "stateMutability": "pure",
      "type": "function"
    },
    {
      "constant": true,
      "inputs": [
        {
          "name": "a",
          "type": "uint256"
        },
        {
          "name": "b",
          "type": "uint256"
        }
      ],
      "name": "subtract",
      "outputs": [
        {
          "name": "",
          "type": "uint256"
        }
      ],
      "payable": false,
      "stateMutability": "pure",
      "type": "function"
    },
    {
      "constant": true,
      "inputs": [
        {
          "name": "a",
          "type": "uint256"
        },
        {
          "name": "b",
          "type": "uint256"
        }
      ],
      "name": "addto",
      "outputs": [
        {
          "name": "",
          "type": "uint256"
        }
      ],
      "payable": false,
      "stateMutability": "pure",
      "type": "function"
    }
  ],
  "bytecode": "0x608060405234801561001057600080fd5b506102bb806100206000396000f300608060405260043610610062576000357c0100000000000000000000000000000000000000000000000000000000900463ffffffff1680630ec410f314610067578063165c4a16146100b25780633ef5e445146100fd578063f88e9fbf14610148575b600080fd5b34801561007357600080fd5b5061009c6004803603810190808035906020019092919080359060200190929190505050610193565b6040518082815260200191505060405180910390f35b3480156100be57600080fd5b506100e760048036038101908080359060200190929190803590602001909291905050506101b0565b6040518082815260200191505060405180910390f35b34801561010957600080fd5b5061013260048036038101908080359060200190929190803590602001909291905050506101cd565b6040518082815260200191505060405180910390f35b34801561015457600080fd5b5061017d60048036038101908080359060200190929190803590602001909291905050506101ea565b6040518082815260200191505060405180910390f35b60006101a8828461020790919063ffffffff16565b905092915050565b60006101c5828461022590919063ffffffff16565b905092915050565b60006101e2828461026090919063ffffffff16565b905092915050565b60006101ff828461027990919063ffffffff16565b905092915050565b600080828401905083811015151561021b57fe5b8091505092915050565b600080600084141561023a5760009150610259565b828402905082848281151561024b57fe5b0414151561025557fe5b8091505b5092915050565b600082821115151561026e57fe5b818303905092915050565b6000818381151561028657fe5b049050929150505600a165627a7a72305820d83c19ee739488d1d2f11bf74d5b3a493bc0f7af21aeb4b047bfad275c38eba70029",
  "source": "pragma solidity 0.4.25;\n\nimport \"./SafeMath.sol\";\n\ncontract SafeMathWrapper {\n  using SafeMath for uint;\n\n  function multiply(uint256 a, uint256 b) external pure returns (uint256) {\n    return a.mul(b);\n  }\n\n  function divide(uint256 a, uint256 b) external pure returns (uint256) {\n    return a.div(b);\n  }\n\n  function subtract(uint256 a, uint256 b) external pure returns (uint256) {\n    return a.sub(b);\n  }\n\n  function addto(uint256 a, uint256 b) external pure returns (uint256) {\n    return a.add(b);\n  }\n\n}\n",
  "sourcePath": "/home/dog/code/mybit/tokensale/contracts/SafeMathWrapper.sol",
  "compiler": {
    "name": "solc",
    "version": "0.4.25+commit.59dbf8f1.Emscripten.clang"
  },
  "schemaVersion": "3.0.0-beta.1",
  "updatedAt": "2018-11-22T05:04:24.152Z"
}