{
  "contractName": "TokenSale",
  "abi": [
    {
      "constant": true,
      "inputs": [],
      "name": "owner",
      "outputs": [
        {
          "name": "",
          "type": "address"
        }
      ],
      "payable": false,
      "stateMutability": "view",
      "type": "function"
    },
    {
      "constant": true,
      "inputs": [],
      "name": "tokensPerDay",
      "outputs": [
        {
          "name": "",
          "type": "uint256"
        }
      ],
      "payable": false,
      "stateMutability": "view",
      "type": "function"
    },
    {
      "constant": true,
      "inputs": [
        {
          "name": "",
          "type": "uint16"
        }
      ],
      "name": "day",
      "outputs": [
        {
          "name": "totalWeiContributed",
          "type": "uint256"
        }
      ],
      "payable": false,
      "stateMutability": "view",
      "type": "function"
    },
    {
      "constant": true,
      "inputs": [],
      "name": "start",
      "outputs": [
        {
          "name": "",
          "type": "uint256"
        }
      ],
      "payable": false,
      "stateMutability": "view",
      "type": "function"
    },
    {
      "inputs": [
        {
          "name": "_mybToken",
          "type": "address"
        }
      ],
      "payable": false,
      "stateMutability": "nonpayable",
      "type": "constructor"
    },
    {
      "payable": false,
      "stateMutability": "nonpayable",
      "type": "fallback"
    },
    {
      "anonymous": false,
      "inputs": [
        {
          "indexed": false,
          "name": "_mybFoundation",
          "type": "address"
        },
        {
          "indexed": false,
          "name": "_amount",
          "type": "uint256"
        },
        {
          "indexed": false,
          "name": "_day",
          "type": "uint16"
        }
      ],
      "name": "LogFoundationWithdraw",
      "type": "event"
    },
    {
      "anonymous": false,
      "inputs": [
        {
          "indexed": false,
          "name": "_contributor",
          "type": "address"
        },
        {
          "indexed": false,
          "name": "_amount",
          "type": "uint256"
        },
        {
          "indexed": false,
          "name": "_day",
          "type": "uint16"
        }
      ],
      "name": "LogTokensPurchased",
      "type": "event"
    },
    {
      "anonymous": false,
      "inputs": [
        {
          "indexed": false,
          "name": "_contributor",
          "type": "address"
        },
        {
          "indexed": false,
          "name": "_amount",
          "type": "uint256"
        },
        {
          "indexed": false,
          "name": "_day",
          "type": "uint16"
        }
      ],
      "name": "LogTokensCollected",
      "type": "event"
    },
    {
      "constant": false,
      "inputs": [],
      "name": "startSale",
      "outputs": [
        {
          "name": "",
          "type": "bool"
        }
      ],
      "payable": false,
      "stateMutability": "nonpayable",
      "type": "function"
    },
    {
      "constant": false,
      "inputs": [
        {
          "name": "_day",
          "type": "uint16"
        }
      ],
      "name": "fund",
      "outputs": [
        {
          "name": "",
          "type": "bool"
        }
      ],
      "payable": true,
      "stateMutability": "payable",
      "type": "function"
    },
    {
      "constant": false,
      "inputs": [
        {
          "name": "_day",
          "type": "uint16"
        }
      ],
      "name": "withdraw",
      "outputs": [
        {
          "name": "",
          "type": "bool"
        }
      ],
      "payable": false,
      "stateMutability": "nonpayable",
      "type": "function"
    },
    {
      "constant": false,
      "inputs": [
        {
          "name": "_day",
          "type": "uint16[]"
        }
      ],
      "name": "batchWithdraw",
      "outputs": [
        {
          "name": "",
          "type": "bool"
        }
      ],
      "payable": false,
      "stateMutability": "nonpayable",
      "type": "function"
    },
    {
      "constant": false,
      "inputs": [
        {
          "name": "_amount",
          "type": "uint256"
        }
      ],
      "name": "foundationWithdraw",
      "outputs": [
        {
          "name": "",
          "type": "bool"
        }
      ],
      "payable": false,
      "stateMutability": "nonpayable",
      "type": "function"
    },
    {
      "constant": false,
      "inputs": [
        {
          "name": "_day",
          "type": "uint256"
        }
      ],
      "name": "burnTokens",
      "outputs": [],
      "payable": false,
      "stateMutability": "nonpayable",
      "type": "function"
    },
    {
      "constant": true,
      "inputs": [
        {
          "name": "_user",
          "type": "address"
        },
        {
          "name": "_day",
          "type": "uint16"
        }
      ],
      "name": "getTokensOwed",
      "outputs": [
        {
          "name": "",
          "type": "uint256"
        }
      ],
      "payable": false,
      "stateMutability": "view",
      "type": "function"
    },
    {
      "constant": true,
      "inputs": [
        {
          "name": "_day",
          "type": "uint16"
        },
        {
          "name": "_investor",
          "type": "address"
        }
      ],
      "name": "getWeiContributed",
      "outputs": [
        {
          "name": "",
          "type": "uint256"
        }
      ],
      "payable": false,
      "stateMutability": "view",
      "type": "function"
    },
    {
      "constant": true,
      "inputs": [
        {
          "name": "_timestamp",
          "type": "uint256"
        }
      ],
      "name": "dayFor",
      "outputs": [
        {
          "name": "",
          "type": "uint16"
        }
      ],
      "payable": false,
      "stateMutability": "view",
      "type": "function"
    },
    {
      "constant": true,
      "inputs": [
        {
          "name": "_day",
          "type": "uint16"
        }
      ],
      "name": "dayFinished",
      "outputs": [
        {
          "name": "",
          "type": "bool"
        }
      ],
      "payable": false,
      "stateMutability": "view",
      "type": "function"
    },
    {
      "constant": true,
      "inputs": [],
      "name": "currentDay",
      "outputs": [
        {
          "name": "",
          "type": "uint16"
        }
      ],
      "payable": false,
      "stateMutability": "view",
      "type": "function"
    }
  ],
  "bytecode": "0x608060405234801561001057600080fd5b5060405160208061152883398101806040528101908080519060200190929190505050806000806101000a81548173ffffffffffffffffffffffffffffffffffffffff021916908373ffffffffffffffffffffffffffffffffffffffff16021790555033600160006101000a81548173ffffffffffffffffffffffffffffffffffffffff021916908373ffffffffffffffffffffffffffffffffffffffff16021790555069152d02c7e14af680000060038190555050611453806100d56000396000f3006080604052600436106100db576000357c0100000000000000000000000000000000000000000000000000000000900463ffffffff168063132e8bee146100ed578063279c7425146101405780633d972839146101a55780635c9302c9146101ee5780636d1b229d146102215780638da5cb5b1461024e57806390497c66146102a55780639e211ee8146102d0578063b66a0e5d14610319578063bd7255b014610348578063be9a65551461038d578063ce347a65146103b8578063cedcd770146103f4578063cf5e36df14610439578063d90c17591461049e575b3480156100e757600080fd5b50600080fd5b3480156100f957600080fd5b506101266004803603810190808035906020019082018035906020019190919293919293905050506104e7565b604051808215151515815260200191505060405180910390f35b34801561014c57600080fd5b5061018f600480360381019080803573ffffffffffffffffffffffffffffffffffffffff169060200190929190803561ffff1690602001909291905050506107a8565b6040518082815260200191505060405180910390f35b3480156101b157600080fd5b506101d4600480360381019080803561ffff169060200190929190505050610883565b604051808215151515815260200191505060405180910390f35b3480156101fa57600080fd5b50610203610b6c565b604051808261ffff1661ffff16815260200191505060405180910390f35b34801561022d57600080fd5b5061024c60048036038101908080359060200190929190505050610b7c565b005b34801561025a57600080fd5b50610263610d02565b604051808273ffffffffffffffffffffffffffffffffffffffff1673ffffffffffffffffffffffffffffffffffffffff16815260200191505060405180910390f35b3480156102b157600080fd5b506102ba610d28565b6040518082815260200191505060405180910390f35b3480156102dc57600080fd5b506102ff600480360381019080803561ffff169060200190929190505050610d2e565b604051808215151515815260200191505060405180910390f35b34801561032557600080fd5b5061032e610d57565b604051808215151515815260200191505060405180910390f35b34801561035457600080fd5b50610377600480360381019080803561ffff169060200190929190505050610fe5565b6040518082815260200191505060405180910390f35b34801561039957600080fd5b506103a2611003565b6040518082815260200191505060405180910390f35b6103da600480360381019080803561ffff169060200190929190505050611009565b604051808215151515815260200191505060405180910390f35b34801561040057600080fd5b5061041f600480360381019080803590602001909291905050506111b3565b604051808215151515815260200191505060405180910390f35b34801561044557600080fd5b50610488600480360381019080803561ffff169060200190929190803573ffffffffffffffffffffffffffffffffffffffff169060200190929190505050611306565b6040518082815260200191505060405180910390f35b3480156104aa57600080fd5b506104c96004803603810190808035906020019092919050505061136c565b604051808261ffff1661ffff16815260200191505060405180910390f35b600080600080600060328787905010151561050157600080fd5b600092505b8686905083101561069057610532878785818110151561052257fe5b9050602002013561ffff16610d2e565b151561053d57600080fd5b60046000888886818110151561054f57fe5b9050602002013561ffff1661ffff1661ffff168152602001908152602001600020915061059433888886818110151561058457fe5b9050602002013561ffff166107a8565b90506105a9818561139f90919063ffffffff16565b93508160010160003373ffffffffffffffffffffffffffffffffffffffff1673ffffffffffffffffffffffffffffffffffffffff168152602001908152602001600020600090557f33a4ae6c0627280fcb7aaf7e07deb59bbce49aa4808ee5457f8622f77ab5d28c3382898987818110151561062157fe5b9050602002013561ffff16604051808473ffffffffffffffffffffffffffffffffffffffff1673ffffffffffffffffffffffffffffffffffffffff1681526020018381526020018261ffff1661ffff168152602001935050505060405180910390a18280600101935050610506565b6000809054906101000a900473ffffffffffffffffffffffffffffffffffffffff1673ffffffffffffffffffffffffffffffffffffffff1663a9059cbb33866040518363ffffffff167c0100000000000000000000000000000000000000000000000000000000028152600401808373ffffffffffffffffffffffffffffffffffffffff1673ffffffffffffffffffffffffffffffffffffffff16815260200182815260200192505050602060405180830381600087803b15801561075457600080fd5b505af1158015610768573d6000803e3d6000fd5b505050506040513d602081101561077e57600080fd5b8101908080519060200190929190505050151561079a57600080fd5b600194505050505092915050565b6000806000600460008561ffff1661ffff168152602001908152602001600020915061084282600001546108346d04ee2d6d415b85acef81000000008560010160008a73ffffffffffffffffffffffffffffffffffffffff1673ffffffffffffffffffffffffffffffffffffffff168152602001908152602001600020546113bd90919063ffffffff16565b6113f890919063ffffffff16565b90506108796d04ee2d6d415b85acef810000000061086b600354846113bd90919063ffffffff16565b6113f890919063ffffffff16565b9250505092915050565b600080600061089184610d2e565b1515610905576040517f08c379a000000000000000000000000000000000000000000000000000000000815260040180806020018281038252601c8152602001807f64617920686173206e6f742066696e69736865642066756e64696e670000000081525060200191505060405180910390fd5b600460008561ffff1661ffff168152602001908152602001600020915061092c33856107a8565b90508160010160003373ffffffffffffffffffffffffffffffffffffffff1673ffffffffffffffffffffffffffffffffffffffff168152602001908152602001600020600090556000809054906101000a900473ffffffffffffffffffffffffffffffffffffffff1673ffffffffffffffffffffffffffffffffffffffff1663a9059cbb33836040518363ffffffff167c0100000000000000000000000000000000000000000000000000000000028152600401808373ffffffffffffffffffffffffffffffffffffffff1673ffffffffffffffffffffffffffffffffffffffff16815260200182815260200192505050602060405180830381600087803b158015610a3757600080fd5b505af1158015610a4b573d6000803e3d6000fd5b505050506040513d6020811015610a6157600080fd5b81019080805190602001909291905050501515610ae6576040517f08c379a00000000000000000000000000000000000000000000000000000000081526004018080602001828103825260208152602001807f636f756c646e74207472616e73666572204d594220746f20696e766573746f7281525060200191505060405180910390fd5b7f33a4ae6c0627280fcb7aaf7e07deb59bbce49aa4808ee5457f8622f77ab5d28c338286604051808473ffffffffffffffffffffffffffffffffffffffff1673ffffffffffffffffffffffffffffffffffffffff1681526020018381526020018261ffff1661ffff168152602001935050505060405180910390a1600192505050919050565b6000610b774261136c565b905090565b6000600160009054906101000a900473ffffffffffffffffffffffffffffffffffffffff1673ffffffffffffffffffffffffffffffffffffffff163373ffffffffffffffffffffffffffffffffffffffff16141515610bda57600080fd5b610be38261136c565b9050610bee81610d2e565b1515610bf957600080fd5b6000600460008361ffff1661ffff16815260200190815260200160002060000154141515610c2657600080fd5b6000809054906101000a900473ffffffffffffffffffffffffffffffffffffffff1673ffffffffffffffffffffffffffffffffffffffff166342966c686003546040518263ffffffff167c010000000000000000000000000000000000000000000000000000000002815260040180828152602001915050602060405180830381600087803b158015610cb857600080fd5b505af1158015610ccc573d6000803e3d6000fd5b505050506040513d6020811015610ce257600080fd5b81019080805190602001909291905050501515610cfe57600080fd5b5050565b600160009054906101000a900473ffffffffffffffffffffffffffffffffffffffff1681565b60035481565b60008161ffff16610d3e4261136c565b61ffff16111515610d4e57600080fd5b60019050919050565b600080600160009054906101000a900473ffffffffffffffffffffffffffffffffffffffff1673ffffffffffffffffffffffffffffffffffffffff163373ffffffffffffffffffffffffffffffffffffffff16141515610db657600080fd5b600160009054906101000a900473ffffffffffffffffffffffffffffffffffffffff1673ffffffffffffffffffffffffffffffffffffffff163373ffffffffffffffffffffffffffffffffffffffff16141515610e7b576040517f08c379a00000000000000000000000000000000000000000000000000000000081526004018080602001828103825260198152602001807f6f6e6c79206f776e65722063616e2073746172742073616c650000000000000081525060200191505060405180910390fd5b610e9661016d61ffff166003546113bd90919063ffffffff16565b90506000809054906101000a900473ffffffffffffffffffffffffffffffffffffffff1673ffffffffffffffffffffffffffffffffffffffff166323b872dd3330846040518463ffffffff167c0100000000000000000000000000000000000000000000000000000000028152600401808473ffffffffffffffffffffffffffffffffffffffff1673ffffffffffffffffffffffffffffffffffffffff1681526020018373ffffffffffffffffffffffffffffffffffffffff1673ffffffffffffffffffffffffffffffffffffffff1681526020018281526020019350505050602060405180830381600087803b158015610f9057600080fd5b505af1158015610fa4573d6000803e3d6000fd5b505050506040513d6020811015610fba57600080fd5b81019080805190602001909291905050501515610fd657600080fd5b42600281905550600191505090565b60046020528060005260406000206000915090508060000154905081565b60025481565b60008061016d61ffff1661101c4261136c565b61ffff1610801561102f57506000600254115b151561103a57600080fd5b8261ffff166110484261136c565b61ffff161115151561105957600080fd5b600460008461ffff1661ffff168152602001908152602001600020905061108d34826000015461139f90919063ffffffff16565b81600001819055506110e9348260010160003373ffffffffffffffffffffffffffffffffffffffff1673ffffffffffffffffffffffffffffffffffffffff1681526020019081526020016000205461139f90919063ffffffff16565b8160010160003373ffffffffffffffffffffffffffffffffffffffff1673ffffffffffffffffffffffffffffffffffffffff168152602001908152602001600020819055507fd498819977fb9763f29bab6e4eee516c4cf59053922eb6a9fe59370a7bc28b3d333485604051808473ffffffffffffffffffffffffffffffffffffffff1673ffffffffffffffffffffffffffffffffffffffff1681526020018381526020018261ffff1661ffff168152602001935050505060405180910390a16001915050919050565b6000600160009054906101000a900473ffffffffffffffffffffffffffffffffffffffff1673ffffffffffffffffffffffffffffffffffffffff163373ffffffffffffffffffffffffffffffffffffffff1614151561121157600080fd5b600160009054906101000a900473ffffffffffffffffffffffffffffffffffffffff1673ffffffffffffffffffffffffffffffffffffffff166108fc839081150290604051600060405180830381858888f19350505050158015611279573d6000803e3d6000fd5b507fe56726172348e334b8fff79c722777489b247ed7148d44486ab67b65c1a54f1f33836112a64261136c565b604051808473ffffffffffffffffffffffffffffffffffffffff1673ffffffffffffffffffffffffffffffffffffffff1681526020018381526020018261ffff1661ffff168152602001935050505060405180910390a160019050919050565b6000600460008461ffff1661ffff16815260200190815260200160002060010160008373ffffffffffffffffffffffffffffffffffffffff1673ffffffffffffffffffffffffffffffffffffffff16815260200190815260200160002054905092915050565b60006113986201518061138a6002548561140e90919063ffffffff16565b6113f890919063ffffffff16565b9050919050565b60008082840190508381101515156113b357fe5b8091505092915050565b60008060008414156113d257600091506113f1565b82840290508284828115156113e357fe5b041415156113ed57fe5b8091505b5092915050565b6000818381151561140557fe5b04905092915050565b600082821115151561141c57fe5b8183039050929150505600a165627a7a7230582065180e9a76702465f148c8d87ca1b3a63a0e62741750fd60a8a2a9450e1754990029",
  "source": "pragma solidity 0.4.24;\n\nimport './SafeMath.sol';\nimport './ERC20Interface.sol';\n\n// TODO: add mechanism for situation nobody funds in a day\ncontract TokenSale {\n  using SafeMath for *;\n\n  ERC20Interface mybToken;\n\n  struct Day {\n    uint totalWeiContributed;\n    mapping (address => uint) weiContributed;\n  }\n\n\n  // Constant variables\n  uint constant scalingFactor = 1e32;\n  // uint constant decimals = 100000000000000000000;\n  uint16 constant numDays = uint16(365);\n\n\n  address public owner;\n  uint public start;      // The timestamp when sale starts\n  uint public tokensPerDay;\n\n  mapping (uint16 => Day) public day;\n\n  constructor(address _mybToken)\n  public {\n    mybToken = ERC20Interface(_mybToken);\n    owner = msg.sender;\n    tokensPerDay = uint(10e22);   // 100,000 MYB / day\n  }\n\n  function startSale()\n  external\n  onlyOwner\n  returns (bool){\n    require(msg.sender == owner, \"only owner can start sale\");\n    uint saleAmount = tokensPerDay.mul(numDays);\n    require(mybToken.transferFrom(msg.sender, address(this), saleAmount));\n    start = now;\n    return true;\n  }\n\n  function fund(uint16 _day)\n  payable\n  duringSale\n  external\n  returns (bool) {\n      require(dayFor(now) <= _day);\n      Day storage today = day[_day];\n      today.totalWeiContributed = today.totalWeiContributed.add(msg.value);\n      today.weiContributed[msg.sender] = today.weiContributed[msg.sender].add(msg.value);\n      emit LogTokensPurchased(msg.sender, msg.value, _day);\n      return true;\n  }\n\n\n  // @notice Updates claimableTokens, sends all wei to the token holder\n  function withdraw(uint16 _day)\n  public\n  returns (bool) {\n      require(dayFinished(_day), \"day has not finished funding\");\n      Day storage thisDay = day[_day];\n      uint amount = getTokensOwed(msg.sender, _day);\n      delete thisDay.weiContributed[msg.sender];\n      require(mybToken.transfer(msg.sender, amount), \"couldnt transfer MYB to investor\");\n      emit LogTokensCollected(msg.sender, amount, _day);\n      return true;\n  }\n\n  // @notice Updates claimableTokens, sends all wei to the token holder\n  // @param (uint16[]) _day, list of token sale days msg.sender contributed wei towards\n  function batchWithdraw(uint16[] _day)\n  external\n  returns (bool) {\n    uint amount;\n    require(_day.length < 50);\n      for (uint i = 0; i < _day.length; i++){\n        require(dayFinished(_day[i]));\n        Day storage thisDay = day[_day[i]];\n        uint amountToAdd = getTokensOwed(msg.sender, _day[i]);\n        amount = amount.add(amountToAdd);\n        delete thisDay.weiContributed[msg.sender];\n        emit LogTokensCollected(msg.sender, amountToAdd, _day[i]);\n      }\n      require(mybToken.transfer(msg.sender, amount));\n      return true;\n  }\n\n  // @notice MyBitFoundation can withdraw raised Ether here\n  // @param (uint) _amount, The amount of wei to withdraw\n  // TODO: send 50% to DDF\n  function foundationWithdraw(uint _amount)\n  external\n  onlyOwner\n  returns (bool){\n    owner.transfer(_amount);\n    emit LogFoundationWithdraw(msg.sender, _amount, dayFor(now));\n    return true;\n  }\n\n  // @notice A function to burn tokens in the event that no wei are contributed that day\n  function burnTokens(uint _day)\n  external\n  onlyOwner {\n    uint16 thisDay = dayFor(_day);\n    require(dayFinished(thisDay));\n    require(day[thisDay].totalWeiContributed == 0);  // No WEI contributed that day\n    require(mybToken.burn(tokensPerDay));\n  }\n\n\n  // @notice Calculates how many tokens user is owed. (new income + claimableTokens) / 10**32\n  function getTokensOwed(address _user, uint16 _day)\n  public\n  view\n  returns (uint) {\n      Day storage thisDay = day[_day];\n      uint percentage = thisDay.weiContributed[_user].mul(scalingFactor).div(thisDay.totalWeiContributed);\n      return percentage.mul(tokensPerDay).div(scalingFactor);\n\n  }\n\n  function getWeiContributed(uint16 _day, address _investor)\n  public\n  view\n  returns (uint) {\n    return day[_day].weiContributed[_investor];\n  }\n\n  // @notice return the day associated with this timestamp\n  function dayFor(uint _timestamp)\n  public\n  view\n  returns (uint16) {\n      return uint16(_timestamp.sub(start).div(24 hours));\n  }\n\n  // @notice returns true if _day is finished\n  function dayFinished(uint16 _day)\n  public\n  view\n  returns (bool) {\n    require(dayFor(now) > _day);\n    return true;\n  }\n\n  // @notice return the current day\n  function currentDay()\n  public\n  view\n  returns (uint16) {\n    return dayFor(now);\n  }\n\n  // @notice Fallback function: Accepts Ether and updates ledger (issues dividends)\n  function ()\n  public {\n      revert();\n  }\n\n  // @notice reverts if the current day is greater than 365\n  modifier duringSale() {\n    require(dayFor(now) < uint16(365) && start > 0);\n    _;\n  }\n\n  // @notice only owner address can call\n  modifier onlyOwner {\n    require(msg.sender == owner);\n    _;\n  }\n\n  event LogFoundationWithdraw(address _mybFoundation, uint _amount, uint16 _day);\n  event LogTokensPurchased(address _contributor, uint _amount, uint16 _day);\n  event LogTokensCollected(address _contributor, uint _amount, uint16 _day);\n\n}\n",
  "sourcePath": "/home/peter/Documents/Work/MyBit/MyBit-Tokensale.tech/contracts/TokenSale.sol",
  "compiler": {
    "name": "solc",
    "version": "0.4.24+commit.e67f0147.Emscripten.clang"
  },
  "schemaVersion": "2.0.1",
  "updatedAt": "2018-10-29T18:26:06.083Z"
}