{
  "contractName": "TokenSale",
  "abi": [
    {
      "constant": true,
      "inputs": [],
      "name": "owner",
      "outputs": [
        {
          "name": "",
          "type": "address"
        }
      ],
      "payable": false,
      "stateMutability": "view",
      "type": "function"
    },
    {
      "constant": true,
      "inputs": [],
      "name": "tokensPerDay",
      "outputs": [
        {
          "name": "",
          "type": "uint256"
        }
      ],
      "payable": false,
      "stateMutability": "view",
      "type": "function"
    },
    {
      "constant": true,
      "inputs": [
        {
          "name": "",
          "type": "uint16"
        }
      ],
      "name": "day",
      "outputs": [
        {
          "name": "weiPerToken",
          "type": "uint256"
        },
        {
          "name": "dayIncome",
          "type": "uint256"
        }
      ],
      "payable": false,
      "stateMutability": "view",
      "type": "function"
    },
    {
      "constant": true,
      "inputs": [],
      "name": "start",
      "outputs": [
        {
          "name": "",
          "type": "uint256"
        }
      ],
      "payable": false,
      "stateMutability": "view",
      "type": "function"
    },
    {
      "inputs": [
        {
          "name": "_mybToken",
          "type": "address"
        }
      ],
      "payable": false,
      "stateMutability": "nonpayable",
      "type": "constructor"
    },
    {
      "payable": false,
      "stateMutability": "nonpayable",
      "type": "fallback"
    },
    {
      "anonymous": false,
      "inputs": [
        {
          "indexed": false,
          "name": "_contributor",
          "type": "address"
        },
        {
          "indexed": false,
          "name": "_amount",
          "type": "uint256"
        },
        {
          "indexed": false,
          "name": "_day",
          "type": "uint16"
        },
        {
          "indexed": false,
          "name": "weiPerToken",
          "type": "uint256"
        },
        {
          "indexed": false,
          "name": "weiContributed",
          "type": "uint256"
        }
      ],
      "name": "LogTokensPurchased",
      "type": "event"
    },
    {
      "anonymous": false,
      "inputs": [
        {
          "indexed": false,
          "name": "_contributor",
          "type": "address"
        },
        {
          "indexed": false,
          "name": "_amount",
          "type": "uint256"
        },
        {
          "indexed": false,
          "name": "_day",
          "type": "uint16"
        },
        {
          "indexed": false,
          "name": "weiPerToken",
          "type": "uint256"
        },
        {
          "indexed": false,
          "name": "weiContributed",
          "type": "uint256"
        }
      ],
      "name": "LogTokensCollected",
      "type": "event"
    },
    {
      "constant": false,
      "inputs": [
        {
          "name": "_totalAmount",
          "type": "uint256"
        }
      ],
      "name": "startSale",
      "outputs": [
        {
          "name": "",
          "type": "bool"
        }
      ],
      "payable": false,
      "stateMutability": "nonpayable",
      "type": "function"
    },
    {
      "constant": false,
      "inputs": [
        {
          "name": "_day",
          "type": "uint16"
        }
      ],
      "name": "fund",
      "outputs": [],
      "payable": true,
      "stateMutability": "payable",
      "type": "function"
    },
    {
      "constant": false,
      "inputs": [
        {
          "name": "_day",
          "type": "uint16"
        }
      ],
      "name": "withdraw",
      "outputs": [
        {
          "name": "",
          "type": "bool"
        }
      ],
      "payable": false,
      "stateMutability": "nonpayable",
      "type": "function"
    },
    {
      "constant": false,
      "inputs": [
        {
          "name": "_day",
          "type": "uint16[]"
        }
      ],
      "name": "batchWithdraw",
      "outputs": [
        {
          "name": "",
          "type": "bool"
        }
      ],
      "payable": false,
      "stateMutability": "nonpayable",
      "type": "function"
    },
    {
      "constant": true,
      "inputs": [
        {
          "name": "_user",
          "type": "address"
        },
        {
          "name": "_day",
          "type": "uint16"
        }
      ],
      "name": "getTokensForContribution",
      "outputs": [
        {
          "name": "",
          "type": "uint256"
        }
      ],
      "payable": false,
      "stateMutability": "view",
      "type": "function"
    },
    {
      "constant": true,
      "inputs": [
        {
          "name": "_timestamp",
          "type": "uint256"
        }
      ],
      "name": "dayFor",
      "outputs": [
        {
          "name": "",
          "type": "uint16"
        }
      ],
      "payable": false,
      "stateMutability": "view",
      "type": "function"
    }
  ],
  "bytecode": "0x608060405234801561001057600080fd5b5060405160208061136b8339810180604052810190808051906020019092919050505080600160006101000a81548173ffffffffffffffffffffffffffffffffffffffff021916908373ffffffffffffffffffffffffffffffffffffffff160217905550336000806101000a81548173ffffffffffffffffffffffffffffffffffffffff021916908373ffffffffffffffffffffffffffffffffffffffff160217905550506112a7806100c46000396000f3006080604052600436106100a4576000357c0100000000000000000000000000000000000000000000000000000000900463ffffffff1680630e3ab61d146100b6578063132e8bee146100fb5780633d9728391461017957806341a84a0d146101c25780638da5cb5b1461022757806390497c661461027e578063bd7255b0146102a9578063be9a6555146102f5578063ce347a6514610320578063d90c175914610344575b3480156100b057600080fd5b50600080fd5b3480156100c257600080fd5b506100e16004803603810190808035906020019092919050505061038d565b604051808215151515815260200191505060405180910390f35b34801561010757600080fd5b5061015f60048036038101908080359060200190820180359060200190808060200260200160405190810160405280939291908181526020018383602002808284378201915050505050509192919290505050610558565b604051808215151515815260200191505060405180910390f35b34801561018557600080fd5b506101a8600480360381019080803561ffff169060200190929190505050610985565b604051808215151515815260200191505060405180910390f35b3480156101ce57600080fd5b50610211600480360381019080803573ffffffffffffffffffffffffffffffffffffffff169060200190929190803561ffff169060200190929190505050610d7a565b6040518082815260200191505060405180910390f35b34801561023357600080fd5b5061023c610e1c565b604051808273ffffffffffffffffffffffffffffffffffffffff1673ffffffffffffffffffffffffffffffffffffffff16815260200191505060405180910390f35b34801561028a57600080fd5b50610293610e41565b6040518082815260200191505060405180910390f35b3480156102b557600080fd5b506102d8600480360381019080803561ffff169060200190929190505050610e47565b604051808381526020018281526020019250505060405180910390f35b34801561030157600080fd5b5061030a610e6b565b6040518082815260200191505060405180910390f35b610342600480360381019080803561ffff169060200190929190505050610e71565b005b34801561035057600080fd5b5061036f600480360381019080803590602001909291905050506110b4565b604051808261ffff1661ffff16815260200191505060405180910390f35b60008060009054906101000a900473ffffffffffffffffffffffffffffffffffffffff1673ffffffffffffffffffffffffffffffffffffffff163373ffffffffffffffffffffffffffffffffffffffff161415156103ea57600080fd5b600160009054906101000a900473ffffffffffffffffffffffffffffffffffffffff1673ffffffffffffffffffffffffffffffffffffffff166323b872dd3330856040518463ffffffff167c0100000000000000000000000000000000000000000000000000000000028152600401808473ffffffffffffffffffffffffffffffffffffffff1673ffffffffffffffffffffffffffffffffffffffff1681526020018373ffffffffffffffffffffffffffffffffffffffff1673ffffffffffffffffffffffffffffffffffffffff1681526020018281526020019350505050602060405180830381600087803b1580156104e357600080fd5b505af11580156104f7573d6000803e3d6000fd5b505050506040513d602081101561050d57600080fd5b8101908080519060200190929190505050151561052957600080fd5b61054261016d61ffff16836110e790919063ffffffff16565b6003819055504260028190555060019050919050565b60008060008060006064865110151561057057600080fd5b600092505b855183101561086d5761059e868481518110151561058f57fe5b906020019060200201516110fd565b1515610612576040517f08c379a00000000000000000000000000000000000000000000000000000000081526004018080602001828103825260108152602001807f446179206e6f742066696e69736865640000000000000000000000000000000081525060200191505060405180910390fd5b61063333878581518110151561062457fe5b90602001906020020151611126565b15156106a7576040517f08c379a000000000000000000000000000000000000000000000000000000000815260040180806020018281038252601e8152602001807f43616e6e6f742075706461746520636c61696d61626c6520746f6b656e73000081525060200191505060405180910390fd5b6004600087858151811015156106b957fe5b9060200190602002015161ffff1661ffff16815260200190815260200160002091508160040160003373ffffffffffffffffffffffffffffffffffffffff1673ffffffffffffffffffffffffffffffffffffffff168152602001908152602001600020549050610732818561120990919063ffffffff16565b93508160040160003373ffffffffffffffffffffffffffffffffffffffff1673ffffffffffffffffffffffffffffffffffffffff168152602001908152602001600020600090557f48c7aa50471145cd05089dd46395e01d5310c0fc20294516aa57d7c9241010f2338288868151811015156107aa57fe5b9060200190602002015185600001548660030160003373ffffffffffffffffffffffffffffffffffffffff1673ffffffffffffffffffffffffffffffffffffffff16815260200190815260200160002054604051808673ffffffffffffffffffffffffffffffffffffffff1673ffffffffffffffffffffffffffffffffffffffff1681526020018581526020018461ffff1661ffff1681526020018381526020018281526020019550505050505060405180910390a18280600101935050610575565b600160009054906101000a900473ffffffffffffffffffffffffffffffffffffffff1673ffffffffffffffffffffffffffffffffffffffff1663a9059cbb33866040518363ffffffff167c0100000000000000000000000000000000000000000000000000000000028152600401808373ffffffffffffffffffffffffffffffffffffffff1673ffffffffffffffffffffffffffffffffffffffff16815260200182815260200192505050602060405180830381600087803b15801561093257600080fd5b505af1158015610946573d6000803e3d6000fd5b505050506040513d602081101561095c57600080fd5b8101908080519060200190929190505050151561097857600080fd5b6001945050505050919050565b6000806000610993846110fd565b1515610a07576040517f08c379a00000000000000000000000000000000000000000000000000000000081526004018080602001828103825260108152602001807f446179206e6f742066696e69736865640000000000000000000000000000000081525060200191505060405180910390fd5b610a113385611126565b1515610a85576040517f08c379a000000000000000000000000000000000000000000000000000000000815260040180806020018281038252601e8152602001807f43616e6e6f742075706461746520636c61696d61626c6520746f6b656e73000081525060200191505060405180910390fd5b600460008561ffff1661ffff16815260200190815260200160002091508160040160003373ffffffffffffffffffffffffffffffffffffffff1673ffffffffffffffffffffffffffffffffffffffff1681526020019081526020016000205490508160040160003373ffffffffffffffffffffffffffffffffffffffff1673ffffffffffffffffffffffffffffffffffffffff16815260200190815260200160002060009055600160009054906101000a900473ffffffffffffffffffffffffffffffffffffffff1673ffffffffffffffffffffffffffffffffffffffff1663a9059cbb33836040518363ffffffff167c0100000000000000000000000000000000000000000000000000000000028152600401808373ffffffffffffffffffffffffffffffffffffffff1673ffffffffffffffffffffffffffffffffffffffff16815260200182815260200192505050602060405180830381600087803b158015610bf057600080fd5b505af1158015610c04573d6000803e3d6000fd5b505050506040513d6020811015610c1a57600080fd5b81019080805190602001909291905050501515610c9f576040517f08c379a00000000000000000000000000000000000000000000000000000000081526004018080602001828103825260168152602001807f43616e6e6f74207472616e7366657220746f6b656e730000000000000000000081525060200191505060405180910390fd5b7f48c7aa50471145cd05089dd46395e01d5310c0fc20294516aa57d7c9241010f233828685600001548660030160003373ffffffffffffffffffffffffffffffffffffffff1673ffffffffffffffffffffffffffffffffffffffff16815260200190815260200160002054604051808673ffffffffffffffffffffffffffffffffffffffff1673ffffffffffffffffffffffffffffffffffffffff1681526020018581526020018461ffff1661ffff1681526020018381526020018281526020019550505050505060405180910390a1600192505050919050565b6000806000600460008561ffff1661ffff1681526020019081526020016000209150610e0f8260000154610e0168056bc75e2d631000008560030160008a73ffffffffffffffffffffffffffffffffffffffff1673ffffffffffffffffffffffffffffffffffffffff1681526020019081526020016000205461122790919063ffffffff16565b6110e790919063ffffffff16565b9050809250505092915050565b6000809054906101000a900473ffffffffffffffffffffffffffffffffffffffff1681565b60035481565b60046020528060005260406000206000915090508060000154908060010154905082565b60025481565b600061016d61ffff16610e83426110b4565b61ffff16108015610e9657506000600254115b1515610ea157600080fd5b8161ffff16610eaf426110b4565b61ffff1611151515610ec057600080fd5b600034111515610ecf57600080fd5b600460008361ffff1661ffff1681526020019081526020016000209050610f0334826001015461120990919063ffffffff16565b8160010181905550610f3f600354610f3168056bc75e2d63100000846001015461122790919063ffffffff16565b6110e790919063ffffffff16565b8160000181905550610f9b348260030160003373ffffffffffffffffffffffffffffffffffffffff1673ffffffffffffffffffffffffffffffffffffffff1681526020019081526020016000205461120990919063ffffffff16565b8160030160003373ffffffffffffffffffffffffffffffffffffffff1673ffffffffffffffffffffffffffffffffffffffff168152602001908152602001600020819055507f4dc83213fabf100be6b05af2cfc8d6bb893ebf89314fc647d8aa37e528c9924533348484600001548560030160003373ffffffffffffffffffffffffffffffffffffffff1673ffffffffffffffffffffffffffffffffffffffff16815260200190815260200160002054604051808673ffffffffffffffffffffffffffffffffffffffff1673ffffffffffffffffffffffffffffffffffffffff1681526020018581526020018461ffff1661ffff1681526020018381526020018281526020019550505050505060405180910390a15050565b60006110e0620151806110d26002548561126290919063ffffffff16565b6110e790919063ffffffff16565b9050919050565b600081838115156110f457fe5b04905092915050565b60008161ffff1661110d426110b4565b61ffff1611151561111d57600080fd5b60019050919050565b600080600460008461ffff1661ffff16815260200190815260200160002090506111b981600001546111ab68056bc75e2d631000008460030160008973ffffffffffffffffffffffffffffffffffffffff1673ffffffffffffffffffffffffffffffffffffffff1681526020019081526020016000205461122790919063ffffffff16565b6110e790919063ffffffff16565b8160040160008673ffffffffffffffffffffffffffffffffffffffff1673ffffffffffffffffffffffffffffffffffffffff16815260200190815260200160002081905550600191505092915050565b600080828401905083811015151561121d57fe5b8091505092915050565b600080600084141561123c576000915061125b565b828402905082848281151561124d57fe5b0414151561125757fe5b8091505b5092915050565b600082821115151561127057fe5b8183039050929150505600a165627a7a72305820c159542d5a6ff034730c0a3fec306d7ac15b159f7ad28fa7b86783e0a39d4f260029",
  "source": "pragma solidity 0.4.24;\n\nimport './SafeMath.sol';\nimport './ERC20Interface.sol';\n\n// TODO: add mechanism for situation nobody funds in a day\ncontract TokenSale {\n  using SafeMath for *;\n\n\n  struct Day {\n    uint weiPerToken;       // // amount of wei received per MYB token\n    uint dayIncome;\n    mapping (address => uint) previousWeiPerToken;\n    mapping (address => uint) weiContributed;\n    mapping (address => uint) claimableTokens;\n  }\n\n  address public owner;\n  uint constant scalingFactor = 1e32;\n  uint constant decimals = 100000000000000000000;\n  uint16 constant numDays = uint16(365);\n  ERC20Interface mybToken;\n\n  uint public start;\n  uint public tokensPerDay;\n\n  mapping (uint16 => Day) public day;\n\n  constructor(address _mybToken)\n  public {\n    mybToken = ERC20Interface(_mybToken);\n    owner = msg.sender;\n\n  }\n\n  function startSale(uint _totalAmount)\n  external\n  returns (bool){\n    require(msg.sender == owner);\n    // uint totalAmount = tokensPerDay.mul(356);\n    require(mybToken.transferFrom(msg.sender, address(this), _totalAmount));\n    tokensPerDay = _totalAmount.div(numDays);\n    start = now;\n    return true;\n  }\n\n  function fund(uint16 _day)\n  payable\n  duringSale\n  public {\n      require(dayFor(now) <= _day);\n      require(msg.value > 0);\n      Day storage today = day[_day];\n      today.dayIncome = today.dayIncome.add(msg.value);\n      //today.weiPerToken = today.weiPerToken.add(msg.value.mul(scalingFactor).div(tokensPerDay));\n      today.weiPerToken = today.dayIncome.mul(decimals).div(tokensPerDay);\n      today.weiContributed[msg.sender] = today.weiContributed[msg.sender].add(msg.value);\n      emit LogTokensPurchased(msg.sender, msg.value, _day, today.weiPerToken, today.weiContributed[msg.sender]);\n  }\n\n\n  // @notice Updates claimableTokens, sends all wei to the token holder\n  function withdraw(uint16 _day)\n  public\n  returns (bool) {\n      require(dayFinished(_day), 'Day not finished');\n      require(updateclaimableTokens(msg.sender, _day), 'Cannot update claimable tokens');\n      Day storage thisDay = day[_day];\n      uint _amount = thisDay.claimableTokens[msg.sender];\n      delete thisDay.claimableTokens[msg.sender];\n      require(mybToken.transfer(msg.sender, _amount), 'Cannot transfer tokens');\n      emit LogTokensCollected(msg.sender, _amount, _day, thisDay.weiPerToken, thisDay.weiContributed[msg.sender]);\n      return true;\n  }\n\n  // @notice Updates claimableTokens, sends all wei to the token holder\n  function batchWithdraw(uint16[] _day)\n  public\n  returns (bool) {\n    uint amount;\n    require(_day.length < 100);\n      for (uint i = 0; i < _day.length; i++){\n        require(dayFinished(_day[i]), 'Day not finished');\n        require(updateclaimableTokens(msg.sender, _day[i]), 'Cannot update claimable tokens');\n        Day storage thisDay = day[_day[i]];\n        uint amountToAdd = thisDay.claimableTokens[msg.sender];\n        amount = amount.add(amountToAdd);\n        delete thisDay.claimableTokens[msg.sender];\n        emit LogTokensCollected(msg.sender, amountToAdd, _day[i], thisDay.weiPerToken, thisDay.weiContributed[msg.sender]);\n      }\n      require(mybToken.transfer(msg.sender, amount));\n      return true;\n  }\n\n  // @notice Calculates how much value _user holds\n  function getTokensForContribution(address _user, uint16 _day)\n  public\n  view\n  returns (uint) {\n      Day storage thisDay = day[_day];\n      uint tokens = thisDay.weiContributed[_user].mul(decimals).div(thisDay.weiPerToken);\n      //uint weiPerTokenDifference = thisDay.weiPerToken.sub(thisDay.previousWeiPerToken[_user]);\n      //return weiPerTokenDifference.mul(thisDay.weiContributed[_user]);\n      return tokens;\n  }\n/*\n  // @notice Calculates how much wei user is owed. (new income + claimableTokens) / 10**32\n  function getUnclaimedAmount(address _user, uint16 _day)\n  public\n  view\n  returns (uint) {\n      return (getTokensForContribution(_user, _day).add(day[_day].claimableTokens[_user]).div(scalingFactor));\n  }\n*/\n  // @notice update the amount claimable by this user\n  function updateclaimableTokens(address _user, uint16 _day)\n  internal\n  returns (bool) {\n      Day storage thisDay = day[_day];\n      thisDay.claimableTokens[_user] = thisDay.weiContributed[_user].mul(decimals).div(thisDay.weiPerToken);\n      //thisDay.claimableTokens[_user] = thisDay.claimableTokens[_user].add(getTokensForContribution(_user, _day));\n      //thisDay.previousWeiPerToken[_user] = thisDay.weiPerToken;\n      return true;\n  }\n\n  // @notice return the day associated with this timestamp\n  function dayFor(uint _timestamp)\n  public\n  view\n  returns (uint16) {\n      return uint16(_timestamp.sub(start).div(24 hours));\n  }\n\n  // @notice reverts if the current day is greater than 365\n  modifier duringSale() {\n    require(dayFor(now) < uint16(365) && start > 0);\n    _;\n  }\n\n  // @notice returns true if _day is finished\n  function dayFinished(uint16 _day)\n  internal\n  view\n  returns (bool) {\n    require(dayFor(now) > _day);\n    return true;\n  }\n\n  // @notice Fallback function: Accepts Ether and updates ledger (issues dividends)\n  function ()\n  public {\n      revert();\n  }\n\n  event LogTokensPurchased(address _contributor, uint _amount, uint16 _day, uint weiPerToken, uint weiContributed);\n  event LogTokensCollected(address _contributor, uint _amount, uint16 _day, uint weiPerToken, uint weiContributed);\n\n}\n",
  "sourcePath": "/home/peter/Documents/Work/MyBit/MyBit-Tokensale.tech/contracts/TokenSale.sol",
  "compiler": {
    "name": "solc",
    "version": "0.4.24+commit.e67f0147.Emscripten.clang"
  },
  "schemaVersion": "2.0.1",
  "updatedAt": "2018-10-26T23:47:05.878Z"
}