{
  "contractName": "TokenSale",
  "abi": [
    {
      "constant": true,
      "inputs": [],
      "name": "mybitFoundation",
      "outputs": [
        {
          "name": "",
          "type": "address"
        }
      ],
      "payable": false,
      "stateMutability": "view",
      "type": "function",
      "signature": "0x7db02c8b"
    },
    {
      "constant": true,
      "inputs": [],
      "name": "developmentFund",
      "outputs": [
        {
          "name": "",
          "type": "address"
        }
      ],
      "payable": false,
      "stateMutability": "view",
      "type": "function",
      "signature": "0x8a2381d7"
    },
    {
      "constant": true,
      "inputs": [],
      "name": "owner",
      "outputs": [
        {
          "name": "",
          "type": "address"
        }
      ],
      "payable": false,
      "stateMutability": "view",
      "type": "function",
      "signature": "0x8da5cb5b"
    },
    {
      "constant": true,
      "inputs": [],
      "name": "tokensPerDay",
      "outputs": [
        {
          "name": "",
          "type": "uint256"
        }
      ],
      "payable": false,
      "stateMutability": "view",
      "type": "function",
      "signature": "0x90497c66"
    },
    {
      "constant": true,
      "inputs": [
        {
          "name": "",
          "type": "uint16"
        }
      ],
      "name": "day",
      "outputs": [
        {
          "name": "totalWeiContributed",
          "type": "uint256"
        }
      ],
      "payable": false,
      "stateMutability": "view",
      "type": "function",
      "signature": "0xbd7255b0"
    },
    {
      "constant": true,
      "inputs": [],
      "name": "start",
      "outputs": [
        {
          "name": "",
          "type": "uint256"
        }
      ],
      "payable": false,
      "stateMutability": "view",
      "type": "function",
      "signature": "0xbe9a6555"
    },
    {
      "inputs": [
        {
          "name": "_mybToken",
          "type": "address"
        },
        {
          "name": "_mybFoundation",
          "type": "address"
        },
        {
          "name": "_developmentFund",
          "type": "address"
        }
      ],
      "payable": false,
      "stateMutability": "nonpayable",
      "type": "constructor",
      "signature": "constructor"
    },
    {
      "payable": true,
      "stateMutability": "payable",
      "type": "fallback"
    },
    {
      "anonymous": false,
      "inputs": [
        {
          "indexed": false,
          "name": "_owner",
          "type": "address"
        },
        {
          "indexed": false,
          "name": "_mybFoundation",
          "type": "address"
        },
        {
          "indexed": false,
          "name": "_developmentFund",
          "type": "address"
        },
        {
          "indexed": false,
          "name": "_totalMYB",
          "type": "uint256"
        },
        {
          "indexed": false,
          "name": "_startTime",
          "type": "uint256"
        }
      ],
      "name": "LogSaleStarted",
      "type": "event",
      "signature": "0x8374e91c2472351bc5eb07c7e6292d3b801d821ce30fefbff40e013a94af7f94"
    },
    {
      "anonymous": false,
      "inputs": [
        {
          "indexed": false,
          "name": "_mybFoundation",
          "type": "address"
        },
        {
          "indexed": false,
          "name": "_amount",
          "type": "uint256"
        },
        {
          "indexed": false,
          "name": "_day",
          "type": "uint16"
        }
      ],
      "name": "LogFoundationWithdraw",
      "type": "event",
      "signature": "0xe56726172348e334b8fff79c722777489b247ed7148d44486ab67b65c1a54f1f"
    },
    {
      "anonymous": false,
      "inputs": [
        {
          "indexed": false,
          "name": "_contributor",
          "type": "address"
        },
        {
          "indexed": false,
          "name": "_amount",
          "type": "uint256"
        },
        {
          "indexed": false,
          "name": "_day",
          "type": "uint16"
        }
      ],
      "name": "LogTokensPurchased",
      "type": "event",
      "signature": "0xd498819977fb9763f29bab6e4eee516c4cf59053922eb6a9fe59370a7bc28b3d"
    },
    {
      "anonymous": false,
      "inputs": [
        {
          "indexed": false,
          "name": "_contributor",
          "type": "address"
        },
        {
          "indexed": false,
          "name": "_amount",
          "type": "uint256"
        },
        {
          "indexed": false,
          "name": "_day",
          "type": "uint16"
        }
      ],
      "name": "LogTokensCollected",
      "type": "event",
      "signature": "0x33a4ae6c0627280fcb7aaf7e07deb59bbce49aa4808ee5457f8622f77ab5d28c"
    },
    {
      "constant": false,
      "inputs": [
        {
          "name": "_timestamp",
          "type": "uint256"
        }
      ],
      "name": "startSale",
      "outputs": [
        {
          "name": "",
          "type": "bool"
        }
      ],
      "payable": false,
      "stateMutability": "nonpayable",
      "type": "function",
      "signature": "0x0e3ab61d"
    },
    {
      "constant": false,
      "inputs": [
        {
          "name": "_day",
          "type": "uint16"
        }
      ],
      "name": "fund",
      "outputs": [
        {
          "name": "",
          "type": "bool"
        }
      ],
      "payable": true,
      "stateMutability": "payable",
      "type": "function",
      "signature": "0xce347a65"
    },
    {
      "constant": false,
      "inputs": [
        {
          "name": "_day",
          "type": "uint16[]"
        }
      ],
      "name": "batchFund",
      "outputs": [
        {
          "name": "",
          "type": "bool"
        }
      ],
      "payable": true,
      "stateMutability": "payable",
      "type": "function",
      "signature": "0x1ca89953"
    },
    {
      "constant": false,
      "inputs": [
        {
          "name": "_day",
          "type": "uint16"
        }
      ],
      "name": "withdraw",
      "outputs": [
        {
          "name": "",
          "type": "bool"
        }
      ],
      "payable": false,
      "stateMutability": "nonpayable",
      "type": "function",
      "signature": "0x3d972839"
    },
    {
      "constant": false,
      "inputs": [
        {
          "name": "_day",
          "type": "uint16[]"
        }
      ],
      "name": "batchWithdraw",
      "outputs": [
        {
          "name": "",
          "type": "bool"
        }
      ],
      "payable": false,
      "stateMutability": "nonpayable",
      "type": "function",
      "signature": "0x132e8bee"
    },
    {
      "constant": false,
      "inputs": [
        {
          "name": "_amount",
          "type": "uint256"
        }
      ],
      "name": "foundationWithdraw",
      "outputs": [
        {
          "name": "",
          "type": "bool"
        }
      ],
      "payable": false,
      "stateMutability": "nonpayable",
      "type": "function",
      "signature": "0xcedcd770"
    },
    {
      "constant": true,
      "inputs": [
        {
          "name": "_contributor",
          "type": "address"
        },
        {
          "name": "_day",
          "type": "uint16"
        }
      ],
      "name": "getTokensOwed",
      "outputs": [
        {
          "name": "",
          "type": "uint256"
        }
      ],
      "payable": false,
      "stateMutability": "view",
      "type": "function",
      "signature": "0x279c7425"
    },
    {
      "constant": true,
      "inputs": [
        {
          "name": "_contributor",
          "type": "address"
        },
        {
          "name": "_days",
          "type": "uint16[]"
        }
      ],
      "name": "getTotalTokensOwed",
      "outputs": [
        {
          "name": "amount",
          "type": "uint256"
        }
      ],
      "payable": false,
      "stateMutability": "view",
      "type": "function",
      "signature": "0x1ea6b97f"
    },
    {
      "constant": true,
      "inputs": [
        {
          "name": "_day",
          "type": "uint16"
        },
        {
          "name": "_contributor",
          "type": "address"
        }
      ],
      "name": "getWeiContributed",
      "outputs": [
        {
          "name": "",
          "type": "uint256"
        }
      ],
      "payable": false,
      "stateMutability": "view",
      "type": "function",
      "signature": "0xcf5e36df"
    },
    {
      "constant": true,
      "inputs": [
        {
          "name": "_day",
          "type": "uint16"
        }
      ],
      "name": "getTotalWeiContributed",
      "outputs": [
        {
          "name": "",
          "type": "uint256"
        }
      ],
      "payable": false,
      "stateMutability": "view",
      "type": "function",
      "signature": "0x12635d26"
    },
    {
      "constant": true,
      "inputs": [
        {
          "name": "_timestamp",
          "type": "uint256"
        }
      ],
      "name": "dayFor",
      "outputs": [
        {
          "name": "",
          "type": "uint16"
        }
      ],
      "payable": false,
      "stateMutability": "view",
      "type": "function",
      "signature": "0xd90c1759"
    },
    {
      "constant": true,
      "inputs": [
        {
          "name": "_day",
          "type": "uint16"
        }
      ],
      "name": "dayFinished",
      "outputs": [
        {
          "name": "",
          "type": "bool"
        }
      ],
      "payable": false,
      "stateMutability": "view",
      "type": "function",
      "signature": "0x9e211ee8"
    },
    {
      "constant": true,
      "inputs": [
        {
          "name": "_day",
          "type": "uint16"
        }
      ],
      "name": "duringSale",
      "outputs": [
        {
          "name": "",
          "type": "bool"
        }
      ],
      "payable": false,
      "stateMutability": "view",
      "type": "function",
      "signature": "0x6110e614"
    },
    {
      "constant": true,
      "inputs": [],
      "name": "currentDay",
      "outputs": [
        {
          "name": "",
          "type": "uint16"
        }
      ],
      "payable": false,
      "stateMutability": "view",
      "type": "function",
      "signature": "0x5c9302c9"
    }
  ],
  "bytecode": "0x608060405234801561001057600080fd5b50604051606080611b3c833981018060405281019080805190602001909291908051906020019092919080519060200190929190505050826000806101000a81548173ffffffffffffffffffffffffffffffffffffffff021916908373ffffffffffffffffffffffffffffffffffffffff16021790555080600360006101000a81548173ffffffffffffffffffffffffffffffffffffffff021916908373ffffffffffffffffffffffffffffffffffffffff16021790555081600260006101000a81548173ffffffffffffffffffffffffffffffffffffffff021916908373ffffffffffffffffffffffffffffffffffffffff16021790555033600160006101000a81548173ffffffffffffffffffffffffffffffffffffffff021916908373ffffffffffffffffffffffffffffffffffffffff1602179055505050506119e08061015c6000396000f300608060405260043610610112576000357c0100000000000000000000000000000000000000000000000000000000900463ffffffff1680630e3ab61d1461013157806312635d2614610176578063132e8bee146101bb5780631ca899531461020e5780631ea6b97f14610254578063279c7425146102ee5780633d972839146103535780635c9302c91461039c5780636110e614146103cf5780637db02c8b146104185780638a2381d71461046f5780638da5cb5b146104c657806390497c661461051d5780639e211ee814610548578063bd7255b014610591578063be9a6555146105d6578063ce347a6514610601578063cedcd7701461063d578063cf5e36df14610682578063d90c1759146106e7575b610124333461011f610730565b610740565b151561012f57600080fd5b005b34801561013d57600080fd5b5061015c60048036038101908080359060200190929190505050610a12565b604051808215151515815260200191505060405180910390f35b34801561018257600080fd5b506101a5600480360381019080803561ffff169060200190929190505050610e12565b6040518082815260200191505060405180910390f35b3480156101c757600080fd5b506101f4600480360381019080803590602001908201803590602001919091929391929390505050610e3a565b604051808215151515815260200191505060405180910390f35b61023a6004803603810190808035906020019082018035906020019190919293919293905050506110fb565b604051808215151515815260200191505060405180910390f35b34801561026057600080fd5b506102d8600480360381019080803573ffffffffffffffffffffffffffffffffffffffff169060200190929190803590602001908201803590602001908080602002602001604051908101604052809392919081815260200183836020028082843782019150505050505091929192905050506111ba565b6040518082815260200191505060405180910390f35b3480156102fa57600080fd5b5061033d600480360381019080803573ffffffffffffffffffffffffffffffffffffffff169060200190929190803561ffff16906020019092919050505061122f565b6040518082815260200191505060405180910390f35b34801561035f57600080fd5b50610382600480360381019080803561ffff169060200190929190505050611312565b604051808215151515815260200191505060405180910390f35b3480156103a857600080fd5b506103b1610730565b604051808261ffff1661ffff16815260200191505060405180910390f35b3480156103db57600080fd5b506103fe600480360381019080803561ffff169060200190929190505050611588565b604051808215151515815260200191505060405180910390f35b34801561042457600080fd5b5061042d6115ac565b604051808273ffffffffffffffffffffffffffffffffffffffff1673ffffffffffffffffffffffffffffffffffffffff16815260200191505060405180910390f35b34801561047b57600080fd5b506104846115d2565b604051808273ffffffffffffffffffffffffffffffffffffffff1673ffffffffffffffffffffffffffffffffffffffff16815260200191505060405180910390f35b3480156104d257600080fd5b506104db6115f8565b604051808273ffffffffffffffffffffffffffffffffffffffff1673ffffffffffffffffffffffffffffffffffffffff16815260200191505060405180910390f35b34801561052957600080fd5b5061053261161e565b6040518082815260200191505060405180910390f35b34801561055457600080fd5b50610577600480360381019080803561ffff16906020019092919050505061162c565b604051808215151515815260200191505060405180910390f35b34801561059d57600080fd5b506105c0600480360381019080803561ffff169060200190929190505050611648565b6040518082815260200191505060405180910390f35b3480156105e257600080fd5b506105eb611666565b6040518082815260200191505060405180910390f35b610623600480360381019080803561ffff16906020019092919050505061166c565b604051808215151515815260200191505060405180910390f35b34801561064957600080fd5b506106686004803603810190808035906020019092919050505061168d565b604051808215151515815260200191505060405180910390f35b34801561068e57600080fd5b506106d1600480360381019080803561ffff169060200190929190803573ffffffffffffffffffffffffffffffffffffffff16906020019092919050505061187f565b6040518082815260200191505060405180910390f35b3480156106f357600080fd5b50610712600480360381019080803590602001909291905050506118e5565b604051808261ffff1661ffff16815260200191505060405180910390f35b600061073b426118e5565b905090565b6000806000841115156107bb576040517f08c379a000000000000000000000000000000000000000000000000000000000815260040180806020018281038252601d8152602001807f6d7573742073656e642065746865722077697468207468652063616c6c00000081525060200191505060405180910390fd5b6107c483611588565b1515610838576040517f08c379a000000000000000000000000000000000000000000000000000000000815260040180806020018281038252601a8152602001807f646179206973206e6f7420647572696e67207468652073616c6500000000000081525060200191505060405180910390fd5b6108418361162c565b1515156108b6576040517f08c379a00000000000000000000000000000000000000000000000000000000081526004018080602001828103825260188152602001807f6461792068617320616c72656164792066696e6973686564000000000000000081525060200191505060405180910390fd5b600560008461ffff1661ffff16815260200190815260200160002090506108ea84826000015461192c90919063ffffffff16565b8160000181905550610946848260010160008873ffffffffffffffffffffffffffffffffffffffff1673ffffffffffffffffffffffffffffffffffffffff1681526020019081526020016000205461192c90919063ffffffff16565b8160010160008773ffffffffffffffffffffffffffffffffffffffff1673ffffffffffffffffffffffffffffffffffffffff168152602001908152602001600020819055507fd498819977fb9763f29bab6e4eee516c4cf59053922eb6a9fe59370a7bc28b3d858585604051808473ffffffffffffffffffffffffffffffffffffffff1673ffffffffffffffffffffffffffffffffffffffff1681526020018381526020018261ffff1661ffff168152602001935050505060405180910390a160019150509392505050565b600080600160009054906101000a900473ffffffffffffffffffffffffffffffffffffffff1673ffffffffffffffffffffffffffffffffffffffff163373ffffffffffffffffffffffffffffffffffffffff16141515610a7157600080fd5b6000600454141515610aeb576040517f08c379a000000000000000000000000000000000000000000000000000000000815260040180806020018281038252600f8152602001807f416c72656164792073746172746564000000000000000000000000000000000081525060200191505060405180910390fd5b428310158015610b0f575062278d00610b0d428561194a90919063ffffffff16565b105b1515610b83576040517f08c379a00000000000000000000000000000000000000000000000000000000081526004018080602001828103825260178152602001807f53746172742074696d65206e6f7420696e2072616e676500000000000000000081525060200191505060405180910390fd5b610ba261016d69152d02c7e14af680000061196390919063ffffffff16565b90506000809054906101000a900473ffffffffffffffffffffffffffffffffffffffff1673ffffffffffffffffffffffffffffffffffffffff166323b872dd3330846040518463ffffffff167c0100000000000000000000000000000000000000000000000000000000028152600401808473ffffffffffffffffffffffffffffffffffffffff1673ffffffffffffffffffffffffffffffffffffffff1681526020018373ffffffffffffffffffffffffffffffffffffffff1673ffffffffffffffffffffffffffffffffffffffff1681526020018281526020019350505050602060405180830381600087803b158015610c9c57600080fd5b505af1158015610cb0573d6000803e3d6000fd5b505050506040513d6020811015610cc657600080fd5b81019080805190602001909291905050501515610ce257600080fd5b826004819055507f8374e91c2472351bc5eb07c7e6292d3b801d821ce30fefbff40e013a94af7f9433600260009054906101000a900473ffffffffffffffffffffffffffffffffffffffff16600360009054906101000a900473ffffffffffffffffffffffffffffffffffffffff168487604051808673ffffffffffffffffffffffffffffffffffffffff1673ffffffffffffffffffffffffffffffffffffffff1681526020018573ffffffffffffffffffffffffffffffffffffffff1673ffffffffffffffffffffffffffffffffffffffff1681526020018473ffffffffffffffffffffffffffffffffffffffff1673ffffffffffffffffffffffffffffffffffffffff1681526020018381526020018281526020019550505050505060405180910390a16001915050919050565b6000600560008361ffff1661ffff168152602001908152602001600020600001549050919050565b60008060008060328686905011151515610e5357600080fd5b600091505b858590508260ff161015610fee57610e8a86868460ff168181101515610e7a57fe5b9050602002013561ffff1661162c565b1515610e9557600080fd5b610eba3387878560ff168181101515610eaa57fe5b9050602002013561ffff1661122f565b9050610ecf818461192c90919063ffffffff16565b92506005600087878560ff168181101515610ee657fe5b9050602002013561ffff1661ffff1661ffff16815260200190815260200160002060010160003373ffffffffffffffffffffffffffffffffffffffff1673ffffffffffffffffffffffffffffffffffffffff168152602001908152602001600020600090557f33a4ae6c0627280fcb7aaf7e07deb59bbce49aa4808ee5457f8622f77ab5d28c338288888660ff168181101515610f7f57fe5b9050602002013561ffff16604051808473ffffffffffffffffffffffffffffffffffffffff1673ffffffffffffffffffffffffffffffffffffffff1681526020018381526020018261ffff1661ffff168152602001935050505060405180910390a18180600101925050610e58565b6000809054906101000a900473ffffffffffffffffffffffffffffffffffffffff1673ffffffffffffffffffffffffffffffffffffffff1663a9059cbb33856040518363ffffffff167c0100000000000000000000000000000000000000000000000000000000028152600401808373ffffffffffffffffffffffffffffffffffffffff1673ffffffffffffffffffffffffffffffffffffffff16815260200182815260200192505050602060405180830381600087803b1580156110b257600080fd5b505af11580156110c6573d6000803e3d6000fd5b505050506040513d60208110156110dc57600080fd5b8101908080519060200190929190505050506001935050505092915050565b60008060006032858590501115151561111357600080fd5b84849050341015151561112557600080fd5b61113b858590503461199e90919063ffffffff16565b915034611154868690508461196390919063ffffffff16565b14151561115d57fe5b600090505b848490508160ff1610156111ae57611196338387878560ff16818110151561118657fe5b9050602002013561ffff16610740565b15156111a157600080fd5b8080600101915050611162565b60019250505092915050565b600080606483511015156111cd57600080fd5b600090505b82518161ffff1610156112255761121661120785858461ffff168151811015156111f857fe5b9060200190602002015161122f565b8361192c90919063ffffffff16565b915080806001019150506111d2565b8191505092915050565b6000806000600560008561ffff1661ffff16815260200190815260200160002091506112c982600001546112bb6d04ee2d6d415b85acef81000000008560010160008a73ffffffffffffffffffffffffffffffffffffffff1673ffffffffffffffffffffffffffffffffffffffff1681526020019081526020016000205461196390919063ffffffff16565b61199e90919063ffffffff16565b90506113086d04ee2d6d415b85acef81000000006112fa69152d02c7e14af68000008461196390919063ffffffff16565b61199e90919063ffffffff16565b9250505092915050565b60008060006113208461162c565b1515611394576040517f08c379a000000000000000000000000000000000000000000000000000000000815260040180806020018281038252601c8152602001807f64617920686173206e6f742066696e69736865642066756e64696e670000000081525060200191505060405180910390fd5b600560008561ffff1661ffff16815260200190815260200160002091506113bb338561122f565b90508160010160003373ffffffffffffffffffffffffffffffffffffffff1673ffffffffffffffffffffffffffffffffffffffff168152602001908152602001600020600090556000809054906101000a900473ffffffffffffffffffffffffffffffffffffffff1673ffffffffffffffffffffffffffffffffffffffff1663a9059cbb33836040518363ffffffff167c0100000000000000000000000000000000000000000000000000000000028152600401808373ffffffffffffffffffffffffffffffffffffffff1673ffffffffffffffffffffffffffffffffffffffff16815260200182815260200192505050602060405180830381600087803b1580156114c657600080fd5b505af11580156114da573d6000803e3d6000fd5b505050506040513d60208110156114f057600080fd5b8101908080519060200190929190505050507f33a4ae6c0627280fcb7aaf7e07deb59bbce49aa4808ee5457f8622f77ab5d28c338286604051808473ffffffffffffffffffffffffffffffffffffffff1673ffffffffffffffffffffffffffffffffffffffff1681526020018381526020018261ffff1661ffff168152602001935050505060405180910390a1600192505050919050565b6000806004541180156115a5575061016c61ffff168261ffff1611155b9050919050565b600260009054906101000a900473ffffffffffffffffffffffffffffffffffffffff1681565b600360009054906101000a900473ffffffffffffffffffffffffffffffffffffffff1681565b600160009054906101000a900473ffffffffffffffffffffffffffffffffffffffff1681565b69152d02c7e14af680000081565b60008161ffff1661163c426118e5565b61ffff16119050919050565b60056020528060005260406000206000915090508060000154905081565b60045481565b6000611679333484610740565b151561168457600080fd5b60019050919050565b600080600160009054906101000a900473ffffffffffffffffffffffffffffffffffffffff1673ffffffffffffffffffffffffffffffffffffffff163373ffffffffffffffffffffffffffffffffffffffff161415156116ec57600080fd5b61170060028461199e90919063ffffffff16565b90508261171760028361196390919063ffffffff16565b14151561172057fe5b600260009054906101000a900473ffffffffffffffffffffffffffffffffffffffff1673ffffffffffffffffffffffffffffffffffffffff166108fc829081150290604051600060405180830381858888f19350505050158015611788573d6000803e3d6000fd5b50600360009054906101000a900473ffffffffffffffffffffffffffffffffffffffff1673ffffffffffffffffffffffffffffffffffffffff166108fc829081150290604051600060405180830381858888f193505050501580156117f1573d6000803e3d6000fd5b507fe56726172348e334b8fff79c722777489b247ed7148d44486ab67b65c1a54f1f338461181e426118e5565b604051808473ffffffffffffffffffffffffffffffffffffffff1673ffffffffffffffffffffffffffffffffffffffff1681526020018381526020018261ffff1661ffff168152602001935050505060405180910390a16001915050919050565b6000600560008461ffff1661ffff16815260200190815260200160002060010160008373ffffffffffffffffffffffffffffffffffffffff1673ffffffffffffffffffffffffffffffffffffffff16815260200190815260200160002054905092915050565b60006004548210156118fa5760009050611927565b611924620151806119166004548561194a90919063ffffffff16565b61199e90919063ffffffff16565b90505b919050565b600080828401905083811015151561194057fe5b8091505092915050565b600082821115151561195857fe5b818303905092915050565b60008060008414156119785760009150611997565b828402905082848281151561198957fe5b0414151561199357fe5b8091505b5092915050565b600081838115156119ab57fe5b049050929150505600a165627a7a723058205d2dc34847e73c41c7343090d0238380f1178443eb62377ee9e9e6ff3e93c7f40029",
  "source": "pragma solidity 0.4.25;\n\nimport './SafeMath.sol';\nimport './ERC20Interface.sol';\n\n// @title MyBit Tokensale\n// @notice A tokensale extending for 365 days. (0....364)\n// @notice 100,000 MYB are releases everyday and split proportionaly to funders of that day\n// @notice Anyone can fund the current or future days with ETH\n// @dev The current day is (timestamp - startTimestamp) / 24 hours\n// @author Kyle Dewhurst, MyBit Foundation\ncontract TokenSale {\n  using SafeMath for *;\n\n  ERC20Interface mybToken;\n\n  struct Day {\n    uint totalWeiContributed;\n    mapping (address => uint) weiContributed;\n  }\n\n  // Constants\n  uint256 constant internal scalingFactor = 10**32;      // helps avoid rounding errors\n  uint256 constant public tokensPerDay = 10**23;    // 100,000 MYB\n\n  // MyBit addresses\n  address public owner;\n  address public mybitFoundation;\n  address public developmentFund;\n\n  uint256 public start;      // The timestamp when sale starts\n\n  mapping (uint16 => Day) public day;\n\n  constructor(address _mybToken, address _mybFoundation, address _developmentFund)\n  public {\n    mybToken = ERC20Interface(_mybToken);\n    developmentFund = _developmentFund;\n    mybitFoundation = _mybFoundation;\n    owner = msg.sender;\n  }\n\n  // @notice owner can start the sale by transferring in required amount of MYB\n  // @dev the start time is used to determine which day the sale is on (day 0 = first day)\n  function startSale(uint _timestamp)\n  external\n  onlyOwner\n  returns (bool){\n    require(start == 0, 'Already started');\n    require(_timestamp >= now  && _timestamp.sub(now) < 2592000, 'Start time not in range');\n    uint saleAmount = tokensPerDay.mul(365);\n    require(mybToken.transferFrom(msg.sender, address(this), saleAmount));\n    start = _timestamp;\n    emit LogSaleStarted(msg.sender, mybitFoundation, developmentFund, saleAmount, _timestamp);\n    return true;\n  }\n\n\n  // @notice contributor can contribute wei to sale on any current/future _day\n  // @dev only accepts contributions between days 0 - 365\n  function fund(uint16 _day)\n  payable\n  public\n  returns (bool) {\n      require(addContribution(msg.sender, msg.value, _day));\n      return true;\n  }\n\n  // @notice Send an index of days and your payment will be divided equally among them\n  // @dev WEI sent must divide equally into number of days.\n  function batchFund(uint16[] _day)\n  payable\n  external\n  returns (bool) {\n    require(_day.length <= 50);\n    require(msg.value >= _day.length);   // need at least 1 wei per day\n    uint256 amountPerDay = msg.value.div(_day.length);\n    assert (amountPerDay.mul(_day.length) == msg.value);   // Don't allow any rounding error\n    for (uint8 i = 0; i < _day.length; i++){\n      require(addContribution(msg.sender, amountPerDay, _day[i]));\n    }\n    return true;\n  }\n\n\n  // @notice Updates claimableTokens, sends all wei to the token holder\n  function withdraw(uint16 _day)\n  external\n  returns (bool) {\n      require(dayFinished(_day), \"day has not finished funding\");\n      Day storage thisDay = day[_day];\n      uint256 amount = getTokensOwed(msg.sender, _day);\n      delete thisDay.weiContributed[msg.sender];\n      mybToken.transfer(msg.sender, amount);\n      emit LogTokensCollected(msg.sender, amount, _day);\n      return true;\n  }\n\n  // @notice Updates claimableTokens, sends all tokens to contributor from previous days\n  // @param (uint16[]) _day, list of token sale days msg.sender contributed wei towards\n  function batchWithdraw(uint16[] _day)\n  external\n  returns (bool) {\n    uint256 amount;\n    require(_day.length <= 50);\n    for (uint8 i = 0; i < _day.length; i++){\n      require(dayFinished(_day[i]));\n      uint256 amountToAdd = getTokensOwed(msg.sender, _day[i]);\n      amount = amount.add(amountToAdd);\n      delete day[_day[i]].weiContributed[msg.sender];\n      emit LogTokensCollected(msg.sender, amountToAdd, _day[i]);\n    }\n    mybToken.transfer(msg.sender, amount);\n    return true;\n  }\n\n  // @notice owner can withdraw funds to the foundation wallet and ddf wallet\n  // @param (uint) _amount, The amount of wei to withdraw\n  // @dev must put in an _amount equally divisible by 2\n  function foundationWithdraw(uint _amount)\n  external\n  onlyOwner\n  returns (bool){\n    uint256 half = _amount.div(2);\n    assert (half.mul(2) == _amount);   // check for rounding error\n    mybitFoundation.transfer(half);\n    developmentFund.transfer(half);\n    emit LogFoundationWithdraw(msg.sender, _amount, dayFor(now));\n    return true;\n  }\n\n  // @notice updates ledger with the contribution from _investor\n  // @param (address) _investor: The sender of WEI to the contract\n  // @param (uint) _amount: The amount of WEI to add to _day\n  // @param (uint16) _day: The day to fund\n  function addContribution(address _investor, uint _amount, uint16 _day)\n  internal\n  returns (bool) {\n    require(_amount > 0, \"must send ether with the call\");\n    require(duringSale(_day), \"day is not during the sale\");\n    require(!dayFinished(_day), \"day has already finished\");\n    Day storage today = day[_day];\n    today.totalWeiContributed = today.totalWeiContributed.add(_amount);\n    today.weiContributed[_investor] = today.weiContributed[_investor].add(_amount);\n    emit LogTokensPurchased(_investor, _amount, _day);\n    return true;\n  }\n\n  // @notice Calculates how many tokens user is owed. (new income + claimableTokens) / 10**32\n  function getTokensOwed(address _contributor, uint16 _day)\n  public\n  view\n  returns (uint256) {\n      Day storage thisDay = day[_day];\n      uint256 percentage = thisDay.weiContributed[_contributor].mul(scalingFactor).div(thisDay.totalWeiContributed);\n      return percentage.mul(tokensPerDay).div(scalingFactor);\n  }\n\n  // @notice gets the total amount of mybit owed to the contributor\n  function getTotalTokensOwed(address _contributor, uint16[] _days)\n  public\n  view\n  returns (uint256 amount) {\n    require(_days.length < 100);\n    for (uint16 i = 0; i < _days.length; i++){\n      amount = amount.add(getTokensOwed(_contributor, _days[i]));\n    }\n    return amount;\n  }\n\n  // @notice returns the amount of wei contributed by _contributor on _day\n  function getWeiContributed(uint16 _day, address _contributor)\n  public\n  view\n  returns (uint256) {\n    return day[_day].weiContributed[_contributor];\n  }\n\n  function getTotalWeiContributed(uint16 _day)\n  public\n  view\n  returns (uint256) {\n    return day[_day].totalWeiContributed;\n  }\n\n  // @notice return the day associated with this timestamp\n  function dayFor(uint _timestamp)\n  public\n  view\n  returns (uint16) {\n      if (_timestamp < start) return 0;\n      else return uint16(_timestamp.sub(start).div(86400));\n  }\n\n  // @notice returns true if _day is finished\n  function dayFinished(uint16 _day)\n  public\n  view\n  returns (bool) {\n    return dayFor(now) > _day;\n  }\n\n  // @notice reverts if the current day isn't less than 365\n  function duringSale(uint16 _day)\n  public\n  view\n  returns (bool){\n    return start > 0 && _day <= uint16(364);\n  }\n\n\n  // @notice return the current day\n  function currentDay()\n  public\n  view\n  returns (uint16) {\n    return dayFor(now);\n  }\n\n  // @notice Fallback function: Purchases contributor stake in the tokens for the current day\n  function ()\n  external\n  payable {\n      require(addContribution(msg.sender, msg.value, currentDay()));\n  }\n\n  // @notice only owner address can call\n  modifier onlyOwner {\n    require(msg.sender == owner);\n    _;\n  }\n\n  event LogSaleStarted(address _owner, address _mybFoundation, address _developmentFund, uint _totalMYB, uint _startTime);\n  event LogFoundationWithdraw(address _mybFoundation, uint _amount, uint16 _day);\n  event LogTokensPurchased(address _contributor, uint _amount, uint16 _day);\n  event LogTokensCollected(address _contributor, uint _amount, uint16 _day);\n\n}\n/*\ncontract TEST is TokenSale{\n  address private alice = 0x00a329c0648769a73afac7f9381e08fb43dbea50;\n  address private bob = 0x00a329c0648769a73afac7f9381e08fb43dbea60;\n  address private eve = 0x00a329c0648769a73afac7f9381e08fb43dbea70;\n\n  constructor(address _mybToken, address _mybFoundation, address _developmentFund)\n  public\n  TokenSale(_mybToken, _mybFoundation, _developmentFund){}\n\n  function echidna_userLessThanDay() public returns (bool){\n    uint totalOwed_ = getWeiContributed(uint16(0), alice) + getWeiContributed(uint16(0), bob) + getWeiContributed(uint16(0), eve);\n    return(totalOwed_ == getTotalWeiContributed(uint16(0)));\n  }\n\n  function echidna_testDay() public returns (bool){\n    return(currentDay() == uint16(0));\n  }\n}\n*/\n",
  "sourcePath": "/home/peter/Documents/Work/MyBit/MyBit-Tokensale.tech/contracts/TokenSale.sol",
  "compiler": {
    "name": "solc",
    "version": "0.4.25+commit.59dbf8f1.Emscripten.clang"
  },
  "schemaVersion": "3.0.0-beta.1",
  "updatedAt": "2018-12-06T18:50:14.314Z"
}