{
  "contractName": "TokenSale",
  "abi": [
    {
      "constant": true,
      "inputs": [],
      "name": "mybitFoundation",
      "outputs": [
        {
          "name": "",
          "type": "address"
        }
      ],
      "payable": false,
      "stateMutability": "view",
      "type": "function"
    },
    {
      "constant": true,
      "inputs": [],
      "name": "developmentFund",
      "outputs": [
        {
          "name": "",
          "type": "address"
        }
      ],
      "payable": false,
      "stateMutability": "view",
      "type": "function"
    },
    {
      "constant": true,
      "inputs": [],
      "name": "owner",
      "outputs": [
        {
          "name": "",
          "type": "address"
        }
      ],
      "payable": false,
      "stateMutability": "view",
      "type": "function"
    },
    {
      "constant": true,
      "inputs": [],
      "name": "tokensPerDay",
      "outputs": [
        {
          "name": "",
          "type": "uint256"
        }
      ],
      "payable": false,
      "stateMutability": "view",
      "type": "function"
    },
    {
      "constant": true,
      "inputs": [
        {
          "name": "",
          "type": "uint16"
        }
      ],
      "name": "day",
      "outputs": [
        {
          "name": "totalWeiContributed",
          "type": "uint256"
        }
      ],
      "payable": false,
      "stateMutability": "view",
      "type": "function"
    },
    {
      "constant": true,
      "inputs": [],
      "name": "start",
      "outputs": [
        {
          "name": "",
          "type": "uint256"
        }
      ],
      "payable": false,
      "stateMutability": "view",
      "type": "function"
    },
    {
      "inputs": [
        {
          "name": "_mybToken",
          "type": "address"
        },
        {
          "name": "_mybFoundation",
          "type": "address"
        },
        {
          "name": "_developmentFund",
          "type": "address"
        }
      ],
      "payable": false,
      "stateMutability": "nonpayable",
      "type": "constructor"
    },
    {
      "payable": true,
      "stateMutability": "payable",
      "type": "fallback"
    },
    {
      "anonymous": false,
      "inputs": [
        {
          "indexed": false,
          "name": "_owner",
          "type": "address"
        },
        {
          "indexed": false,
          "name": "_mybFoundation",
          "type": "address"
        },
        {
          "indexed": false,
          "name": "_developmentFund",
          "type": "address"
        },
        {
          "indexed": false,
          "name": "_totalMYB",
          "type": "uint256"
        }
      ],
      "name": "LogSaleStarted",
      "type": "event"
    },
    {
      "anonymous": false,
      "inputs": [
        {
          "indexed": false,
          "name": "_mybFoundation",
          "type": "address"
        },
        {
          "indexed": false,
          "name": "_amount",
          "type": "uint256"
        },
        {
          "indexed": false,
          "name": "_day",
          "type": "uint16"
        }
      ],
      "name": "LogFoundationWithdraw",
      "type": "event"
    },
    {
      "anonymous": false,
      "inputs": [
        {
          "indexed": false,
          "name": "_contributor",
          "type": "address"
        },
        {
          "indexed": false,
          "name": "_amount",
          "type": "uint256"
        },
        {
          "indexed": false,
          "name": "_day",
          "type": "uint16"
        }
      ],
      "name": "LogTokensPurchased",
      "type": "event"
    },
    {
      "anonymous": false,
      "inputs": [
        {
          "indexed": false,
          "name": "_contributor",
          "type": "address"
        },
        {
          "indexed": false,
          "name": "_amount",
          "type": "uint256"
        },
        {
          "indexed": false,
          "name": "_day",
          "type": "uint16"
        }
      ],
      "name": "LogTokensCollected",
      "type": "event"
    },
    {
      "constant": false,
      "inputs": [
        {
          "name": "_startTime",
          "type": "uint256"
        }
      ],
      "name": "startSale",
      "outputs": [
        {
          "name": "",
          "type": "bool"
        }
      ],
      "payable": false,
      "stateMutability": "nonpayable",
      "type": "function"
    },
    {
      "constant": false,
      "inputs": [
        {
          "name": "_day",
          "type": "uint16"
        }
      ],
      "name": "fund",
      "outputs": [
        {
          "name": "",
          "type": "bool"
        }
      ],
      "payable": true,
      "stateMutability": "payable",
      "type": "function"
    },
    {
      "constant": false,
      "inputs": [
        {
          "name": "_day",
          "type": "uint16[]"
        }
      ],
      "name": "batchFund",
      "outputs": [
        {
          "name": "",
          "type": "bool"
        }
      ],
      "payable": true,
      "stateMutability": "payable",
      "type": "function"
    },
    {
      "constant": false,
      "inputs": [
        {
          "name": "_day",
          "type": "uint16"
        }
      ],
      "name": "withdraw",
      "outputs": [
        {
          "name": "",
          "type": "bool"
        }
      ],
      "payable": false,
      "stateMutability": "nonpayable",
      "type": "function"
    },
    {
      "constant": false,
      "inputs": [
        {
          "name": "_day",
          "type": "uint16[]"
        }
      ],
      "name": "batchWithdraw",
      "outputs": [
        {
          "name": "",
          "type": "bool"
        }
      ],
      "payable": false,
      "stateMutability": "nonpayable",
      "type": "function"
    },
    {
      "constant": false,
      "inputs": [
        {
          "name": "_amount",
          "type": "uint256"
        }
      ],
      "name": "foundationWithdraw",
      "outputs": [
        {
          "name": "",
          "type": "bool"
        }
      ],
      "payable": false,
      "stateMutability": "nonpayable",
      "type": "function"
    },
    {
      "constant": true,
      "inputs": [
        {
          "name": "_contributor",
          "type": "address"
        },
        {
          "name": "_day",
          "type": "uint16"
        }
      ],
      "name": "getTokensOwed",
      "outputs": [
        {
          "name": "",
          "type": "uint256"
        }
      ],
      "payable": false,
      "stateMutability": "view",
      "type": "function"
    },
    {
      "constant": true,
      "inputs": [
        {
          "name": "_contributor",
          "type": "address"
        },
        {
          "name": "_days",
          "type": "uint16[]"
        }
      ],
      "name": "getTotalTokensOwed",
      "outputs": [
        {
          "name": "amount",
          "type": "uint256"
        }
      ],
      "payable": false,
      "stateMutability": "view",
      "type": "function"
    },
    {
      "constant": true,
      "inputs": [
        {
          "name": "_day",
          "type": "uint16"
        },
        {
          "name": "_contributor",
          "type": "address"
        }
      ],
      "name": "getWeiContributed",
      "outputs": [
        {
          "name": "",
          "type": "uint256"
        }
      ],
      "payable": false,
      "stateMutability": "view",
      "type": "function"
    },
    {
      "constant": true,
      "inputs": [
        {
          "name": "_day",
          "type": "uint16"
        }
      ],
      "name": "getTotalWeiContributed",
      "outputs": [
        {
          "name": "",
          "type": "uint256"
        }
      ],
      "payable": false,
      "stateMutability": "view",
      "type": "function"
    },
    {
      "constant": true,
      "inputs": [
        {
          "name": "_timestamp",
          "type": "uint256"
        }
      ],
      "name": "dayFor",
      "outputs": [
        {
          "name": "",
          "type": "uint16"
        }
      ],
      "payable": false,
      "stateMutability": "view",
      "type": "function"
    },
    {
      "constant": true,
      "inputs": [
        {
          "name": "_day",
          "type": "uint16"
        }
      ],
      "name": "dayFinished",
      "outputs": [
        {
          "name": "",
          "type": "bool"
        }
      ],
      "payable": false,
      "stateMutability": "view",
      "type": "function"
    },
    {
      "constant": true,
      "inputs": [
        {
          "name": "_day",
          "type": "uint16"
        }
      ],
      "name": "duringSale",
      "outputs": [
        {
          "name": "",
          "type": "bool"
        }
      ],
      "payable": false,
      "stateMutability": "view",
      "type": "function"
    },
    {
      "constant": true,
      "inputs": [],
      "name": "currentDay",
      "outputs": [
        {
          "name": "",
          "type": "uint16"
        }
      ],
      "payable": false,
      "stateMutability": "view",
      "type": "function"
    }
  ],
  "bytecode": "0x608060405234801561001057600080fd5b50604051606080611a62833981018060405281019080805190602001909291908051906020019092919080519060200190929190505050826000806101000a81548173ffffffffffffffffffffffffffffffffffffffff021916908373ffffffffffffffffffffffffffffffffffffffff16021790555080600360006101000a81548173ffffffffffffffffffffffffffffffffffffffff021916908373ffffffffffffffffffffffffffffffffffffffff16021790555081600260006101000a81548173ffffffffffffffffffffffffffffffffffffffff021916908373ffffffffffffffffffffffffffffffffffffffff16021790555033600160006101000a81548173ffffffffffffffffffffffffffffffffffffffff021916908373ffffffffffffffffffffffffffffffffffffffff1602179055505050506119068061015c6000396000f300608060405260043610610112576000357c0100000000000000000000000000000000000000000000000000000000900463ffffffff1680630e3ab61d1461013157806312635d2614610176578063132e8bee146101bb5780631ca899531461020e5780631ea6b97f14610254578063279c7425146102ee5780633d972839146103535780635c9302c91461039c5780636110e614146103cf5780637db02c8b146104185780638a2381d71461046f5780638da5cb5b146104c657806390497c661461051d5780639e211ee814610548578063bd7255b014610591578063be9a6555146105d6578063ce347a6514610601578063cedcd7701461063d578063cf5e36df14610682578063d90c1759146106e7575b610124333461011f610730565b610740565b151561012f57600080fd5b005b34801561013d57600080fd5b5061015c60048036038101908080359060200190929190505050610a12565b604051808215151515815260200191505060405180910390f35b34801561018257600080fd5b506101a5600480360381019080803561ffff169060200190929190505050610d37565b6040518082815260200191505060405180910390f35b3480156101c757600080fd5b506101f4600480360381019080803590602001908201803590602001919091929391929390505050610d5f565b604051808215151515815260200191505060405180910390f35b61023a600480360381019080803590602001908201803590602001919091929391929390505050611020565b604051808215151515815260200191505060405180910390f35b34801561026057600080fd5b506102d8600480360381019080803573ffffffffffffffffffffffffffffffffffffffff169060200190929190803590602001908201803590602001908080602002602001604051908101604052809392919081815260200183836020028082843782019150505050505091929192905050506110df565b6040518082815260200191505060405180910390f35b3480156102fa57600080fd5b5061033d600480360381019080803573ffffffffffffffffffffffffffffffffffffffff169060200190929190803561ffff169060200190929190505050611144565b6040518082815260200191505060405180910390f35b34801561035f57600080fd5b50610382600480360381019080803561ffff169060200190929190505050611227565b604051808215151515815260200191505060405180910390f35b3480156103a857600080fd5b506103b1610730565b604051808261ffff1661ffff16815260200191505060405180910390f35b3480156103db57600080fd5b506103fe600480360381019080803561ffff16906020019092919050505061149d565b604051808215151515815260200191505060405180910390f35b34801561042457600080fd5b5061042d6114d2565b604051808273ffffffffffffffffffffffffffffffffffffffff1673ffffffffffffffffffffffffffffffffffffffff16815260200191505060405180910390f35b34801561047b57600080fd5b506104846114f8565b604051808273ffffffffffffffffffffffffffffffffffffffff1673ffffffffffffffffffffffffffffffffffffffff16815260200191505060405180910390f35b3480156104d257600080fd5b506104db61151e565b604051808273ffffffffffffffffffffffffffffffffffffffff1673ffffffffffffffffffffffffffffffffffffffff16815260200191505060405180910390f35b34801561052957600080fd5b50610532611544565b6040518082815260200191505060405180910390f35b34801561055457600080fd5b50610577600480360381019080803561ffff169060200190929190505050611552565b604051808215151515815260200191505060405180910390f35b34801561059d57600080fd5b506105c0600480360381019080803561ffff16906020019092919050505061156e565b6040518082815260200191505060405180910390f35b3480156105e257600080fd5b506105eb61158c565b6040518082815260200191505060405180910390f35b610623600480360381019080803561ffff169060200190929190505050611592565b604051808215151515815260200191505060405180910390f35b34801561064957600080fd5b50610668600480360381019080803590602001909291905050506115b3565b604051808215151515815260200191505060405180910390f35b34801561068e57600080fd5b506106d1600480360381019080803561ffff169060200190929190803573ffffffffffffffffffffffffffffffffffffffff1690602001909291905050506117a5565b6040518082815260200191505060405180910390f35b3480156106f357600080fd5b506107126004803603810190808035906020019092919050505061180b565b604051808261ffff1661ffff16815260200191505060405180910390f35b600061073b4261180b565b905090565b6000806000841115156107bb576040517f08c379a000000000000000000000000000000000000000000000000000000000815260040180806020018281038252601d8152602001807f6d7573742073656e642065746865722077697468207468652063616c6c00000081525060200191505060405180910390fd5b6107c48361149d565b1515610838576040517f08c379a000000000000000000000000000000000000000000000000000000000815260040180806020018281038252601a8152602001807f646179206973206e6f7420647572696e67207468652073616c6500000000000081525060200191505060405180910390fd5b61084183611552565b1515156108b6576040517f08c379a00000000000000000000000000000000000000000000000000000000081526004018080602001828103825260188152602001807f6461792068617320616c72656164792066696e6973686564000000000000000081525060200191505060405180910390fd5b600560008461ffff1661ffff16815260200190815260200160002090506108ea84826000015461185290919063ffffffff16565b8160000181905550610946848260010160008873ffffffffffffffffffffffffffffffffffffffff1673ffffffffffffffffffffffffffffffffffffffff1681526020019081526020016000205461185290919063ffffffff16565b8160010160008773ffffffffffffffffffffffffffffffffffffffff1673ffffffffffffffffffffffffffffffffffffffff168152602001908152602001600020819055507fd498819977fb9763f29bab6e4eee516c4cf59053922eb6a9fe59370a7bc28b3d858585604051808473ffffffffffffffffffffffffffffffffffffffff1673ffffffffffffffffffffffffffffffffffffffff1681526020018381526020018261ffff1661ffff168152602001935050505060405180910390a160019150509392505050565b600080600160009054906101000a900473ffffffffffffffffffffffffffffffffffffffff1673ffffffffffffffffffffffffffffffffffffffff163373ffffffffffffffffffffffffffffffffffffffff16141515610a7157600080fd5b6000600454141515610a8257600080fd5b4283118015610aa55750622820a8610aa3428561187090919063ffffffff16565b105b1515610ab057600080fd5b610acf61016d69152d02c7e14af680000061188990919063ffffffff16565b90506000809054906101000a900473ffffffffffffffffffffffffffffffffffffffff1673ffffffffffffffffffffffffffffffffffffffff166323b872dd3330846040518463ffffffff167c0100000000000000000000000000000000000000000000000000000000028152600401808473ffffffffffffffffffffffffffffffffffffffff1673ffffffffffffffffffffffffffffffffffffffff1681526020018373ffffffffffffffffffffffffffffffffffffffff1673ffffffffffffffffffffffffffffffffffffffff1681526020018281526020019350505050602060405180830381600087803b158015610bc957600080fd5b505af1158015610bdd573d6000803e3d6000fd5b505050506040513d6020811015610bf357600080fd5b81019080805190602001909291905050501515610c0f57600080fd5b826004819055507f05a4a5db99c093a62c31c3cf60de62acb215e12a96373569d8ffe3443bce323533600260009054906101000a900473ffffffffffffffffffffffffffffffffffffffff16600360009054906101000a900473ffffffffffffffffffffffffffffffffffffffff1684604051808573ffffffffffffffffffffffffffffffffffffffff1673ffffffffffffffffffffffffffffffffffffffff1681526020018473ffffffffffffffffffffffffffffffffffffffff1673ffffffffffffffffffffffffffffffffffffffff1681526020018373ffffffffffffffffffffffffffffffffffffffff1673ffffffffffffffffffffffffffffffffffffffff16815260200182815260200194505050505060405180910390a16001915050919050565b6000600560008361ffff1661ffff168152602001908152602001600020600001549050919050565b60008060008060328686905011151515610d7857600080fd5b600091505b858590508260ff161015610f1357610daf86868460ff168181101515610d9f57fe5b9050602002013561ffff16611552565b1515610dba57600080fd5b610ddf3387878560ff168181101515610dcf57fe5b9050602002013561ffff16611144565b9050610df4818461185290919063ffffffff16565b92506005600087878560ff168181101515610e0b57fe5b9050602002013561ffff1661ffff1661ffff16815260200190815260200160002060010160003373ffffffffffffffffffffffffffffffffffffffff1673ffffffffffffffffffffffffffffffffffffffff168152602001908152602001600020600090557f33a4ae6c0627280fcb7aaf7e07deb59bbce49aa4808ee5457f8622f77ab5d28c338288888660ff168181101515610ea457fe5b9050602002013561ffff16604051808473ffffffffffffffffffffffffffffffffffffffff1673ffffffffffffffffffffffffffffffffffffffff1681526020018381526020018261ffff1661ffff168152602001935050505060405180910390a18180600101925050610d7d565b6000809054906101000a900473ffffffffffffffffffffffffffffffffffffffff1673ffffffffffffffffffffffffffffffffffffffff1663a9059cbb33856040518363ffffffff167c0100000000000000000000000000000000000000000000000000000000028152600401808373ffffffffffffffffffffffffffffffffffffffff1673ffffffffffffffffffffffffffffffffffffffff16815260200182815260200192505050602060405180830381600087803b158015610fd757600080fd5b505af1158015610feb573d6000803e3d6000fd5b505050506040513d602081101561100157600080fd5b8101908080519060200190929190505050506001935050505092915050565b60008060006032858590501115151561103857600080fd5b84849050341015151561104a57600080fd5b61106085859050346118c490919063ffffffff16565b915034611079868690508461188990919063ffffffff16565b14151561108257fe5b600090505b848490508160ff1610156110d3576110bb338387878560ff1681811015156110ab57fe5b9050602002013561ffff16610740565b15156110c657600080fd5b8080600101915050611087565b60019250505092915050565b600080600090505b82518161ffff16101561113a5761112b61111c85858461ffff1681518110151561110d57fe5b90602001906020020151611144565b8361185290919063ffffffff16565b915080806001019150506110e7565b8191505092915050565b6000806000600560008561ffff1661ffff16815260200190815260200160002091506111de82600001546111d06d04ee2d6d415b85acef81000000008560010160008a73ffffffffffffffffffffffffffffffffffffffff1673ffffffffffffffffffffffffffffffffffffffff1681526020019081526020016000205461188990919063ffffffff16565b6118c490919063ffffffff16565b905061121d6d04ee2d6d415b85acef810000000061120f69152d02c7e14af68000008461188990919063ffffffff16565b6118c490919063ffffffff16565b9250505092915050565b600080600061123584611552565b15156112a9576040517f08c379a000000000000000000000000000000000000000000000000000000000815260040180806020018281038252601c8152602001807f64617920686173206e6f742066696e69736865642066756e64696e670000000081525060200191505060405180910390fd5b600560008561ffff1661ffff16815260200190815260200160002091506112d03385611144565b90508160010160003373ffffffffffffffffffffffffffffffffffffffff1673ffffffffffffffffffffffffffffffffffffffff168152602001908152602001600020600090556000809054906101000a900473ffffffffffffffffffffffffffffffffffffffff1673ffffffffffffffffffffffffffffffffffffffff1663a9059cbb33836040518363ffffffff167c0100000000000000000000000000000000000000000000000000000000028152600401808373ffffffffffffffffffffffffffffffffffffffff1673ffffffffffffffffffffffffffffffffffffffff16815260200182815260200192505050602060405180830381600087803b1580156113db57600080fd5b505af11580156113ef573d6000803e3d6000fd5b505050506040513d602081101561140557600080fd5b8101908080519060200190929190505050507f33a4ae6c0627280fcb7aaf7e07deb59bbce49aa4808ee5457f8622f77ab5d28c338286604051808473ffffffffffffffffffffffffffffffffffffffff1673ffffffffffffffffffffffffffffffffffffffff1681526020018381526020018261ffff1661ffff168152602001935050505060405180910390a1600192505050919050565b6000806004541180156114b5575060008261ffff1610155b80156114cb575061016c61ffff168261ffff1611155b9050919050565b600260009054906101000a900473ffffffffffffffffffffffffffffffffffffffff1681565b600360009054906101000a900473ffffffffffffffffffffffffffffffffffffffff1681565b600160009054906101000a900473ffffffffffffffffffffffffffffffffffffffff1681565b69152d02c7e14af680000081565b60008161ffff166115624261180b565b61ffff16119050919050565b60056020528060005260406000206000915090508060000154905081565b60045481565b600061159f333484610740565b15156115aa57600080fd5b60019050919050565b600080600160009054906101000a900473ffffffffffffffffffffffffffffffffffffffff1673ffffffffffffffffffffffffffffffffffffffff163373ffffffffffffffffffffffffffffffffffffffff1614151561161257600080fd5b6116266002846118c490919063ffffffff16565b90508261163d60028361188990919063ffffffff16565b14151561164657fe5b600260009054906101000a900473ffffffffffffffffffffffffffffffffffffffff1673ffffffffffffffffffffffffffffffffffffffff166108fc829081150290604051600060405180830381858888f193505050501580156116ae573d6000803e3d6000fd5b50600360009054906101000a900473ffffffffffffffffffffffffffffffffffffffff1673ffffffffffffffffffffffffffffffffffffffff166108fc829081150290604051600060405180830381858888f19350505050158015611717573d6000803e3d6000fd5b507fe56726172348e334b8fff79c722777489b247ed7148d44486ab67b65c1a54f1f33846117444261180b565b604051808473ffffffffffffffffffffffffffffffffffffffff1673ffffffffffffffffffffffffffffffffffffffff1681526020018381526020018261ffff1661ffff168152602001935050505060405180910390a16001915050919050565b6000600560008461ffff1661ffff16815260200190815260200160002060010160008373ffffffffffffffffffffffffffffffffffffffff1673ffffffffffffffffffffffffffffffffffffffff16815260200190815260200160002054905092915050565b6000600454821015611820576000905061184d565b61184a6201518061183c6004548561187090919063ffffffff16565b6118c490919063ffffffff16565b90505b919050565b600080828401905083811015151561186657fe5b8091505092915050565b600082821115151561187e57fe5b818303905092915050565b600080600084141561189e57600091506118bd565b82840290508284828115156118af57fe5b041415156118b957fe5b8091505b5092915050565b600081838115156118d157fe5b049050929150505600a165627a7a723058207434cbcbba184bd8608b73683e1f6fb8137ef2a16f37db627f60eae08983b7ec0029",
  "source": "pragma solidity 0.4.25;\n\nimport './SafeMath.sol';\nimport './ERC20Interface.sol';\n\n\ncontract TokenSale {\n  using SafeMath for *;\n\n  ERC20Interface mybToken;\n\n  struct Day {\n    uint totalWeiContributed;\n    mapping (address => uint) weiContributed;\n  }\n\n\n  // Constants\n  uint256 constant internal scalingFactor = 10**32;\n  uint256 constant public tokensPerDay = 10**23;\n\n  // MyBit addresses\n  address public owner;\n  address public mybitFoundation;\n  address public developmentFund;\n\n  uint256 public start;      // The timestamp when sale starts\n\n  mapping (uint16 => Day) public day;\n\n  constructor(address _mybToken, address _mybFoundation, address _developmentFund)\n  public {\n    mybToken = ERC20Interface(_mybToken);\n    developmentFund = _developmentFund;\n    mybitFoundation = _mybFoundation;\n    owner = msg.sender;\n  }\n\n  // @notice owner can start the sale by transferring in required amount of MYB\n  // @dev the start time is used to determine which day the sale is on (day 0 = first day)\n  function startSale(uint _startTime)\n  external\n  onlyOwner\n  returns (bool){\n    require (start == 0);\n    require(_startTime > now && _startTime.sub(now) < 2629800);  // startTime must be in the future, but not more than 1 month\n    uint saleAmount = tokensPerDay.mul(365);\n    require(mybToken.transferFrom(msg.sender, address(this), saleAmount));\n    start = _startTime;\n    emit LogSaleStarted(msg.sender, mybitFoundation, developmentFund, saleAmount);\n    return true;\n  }\n\n  // @notice contributor can contribute wei to sale on any current/future _day\n  // @dev only accepts contributions between days 0 - 365\n  function fund(uint16 _day)\n  payable\n  public\n  returns (bool) {\n      require(addContribution(msg.sender, msg.value, _day));\n      return true;\n  }\n\n  // @notice Send an index of days and your payment will be divided equally among them\n  // @dev WEI sent must divide equally into number of days.\n  function batchFund(uint16[] _day)\n  payable\n  external\n  returns (bool) {\n    require(_day.length <= 50);\n    require(msg.value >= _day.length);   // need at least 1 wei per day\n    uint amountPerDay = msg.value.div(_day.length);\n    assert (amountPerDay.mul(_day.length) == msg.value);   // Don't allow any rounding error\n    for (uint8 i = 0; i < _day.length; i++){\n      require(addContribution(msg.sender, amountPerDay, _day[i]));\n    }\n    return true;\n  }\n\n\n  // @notice Updates claimableTokens, sends all wei to the token holder\n  function withdraw(uint16 _day)\n  external\n  returns (bool) {\n      require(dayFinished(_day), \"day has not finished funding\");\n      Day storage thisDay = day[_day];\n      uint amount = getTokensOwed(msg.sender, _day);\n      delete thisDay.weiContributed[msg.sender];\n      mybToken.transfer(msg.sender, amount);\n      emit LogTokensCollected(msg.sender, amount, _day);\n      return true;\n  }\n\n  // @notice Updates claimableTokens, sends all tokens to contributor from previous days\n  // @param (uint16[]) _day, list of token sale days msg.sender contributed wei towards\n  function batchWithdraw(uint16[] _day)\n  external\n  returns (bool) {\n    uint amount;\n    require(_day.length <= 50);\n    for (uint8 i = 0; i < _day.length; i++){\n      require(dayFinished(_day[i]));\n      uint amountToAdd = getTokensOwed(msg.sender, _day[i]);\n      amount = amount.add(amountToAdd);\n      delete day[_day[i]].weiContributed[msg.sender];\n      emit LogTokensCollected(msg.sender, amountToAdd, _day[i]);\n    }\n    mybToken.transfer(msg.sender, amount);\n    return true;\n  }\n\n  // @notice owner can withdraw funds to the foundation wallet and ddf wallet\n  // @param (uint) _amount, The amount of wei to withdraw\n  // @dev must put in an _amount equally divisible by 2\n  function foundationWithdraw(uint _amount)\n  external\n  onlyOwner\n  returns (bool){\n    uint half = _amount.div(2);\n    assert (half.mul(2) == _amount);   // check for rounding error\n    mybitFoundation.transfer(half);\n    developmentFund.transfer(half);\n    emit LogFoundationWithdraw(msg.sender, _amount, dayFor(now));\n    return true;\n  }\n\n  // @notice updates ledger with the contribution from _investor\n  // @param (address) _investor: The sender of WEI to the contract\n  // @param (uint) _amount: The amount of WEI to add to _day\n  // @param (uint16) _day: The day to fund\n  function addContribution(address _investor, uint _amount, uint16 _day)\n  internal\n  returns (bool) {\n    require(_amount > 0, \"must send ether with the call\");\n    require(duringSale(_day), \"day is not during the sale\");\n    require(!dayFinished(_day), \"day has already finished\");\n    Day storage today = day[_day];\n    today.totalWeiContributed = today.totalWeiContributed.add(_amount);\n    today.weiContributed[_investor] = today.weiContributed[_investor].add(_amount);\n    emit LogTokensPurchased(_investor, _amount, _day);\n    return true;\n  }\n\n  // @notice Calculates how many tokens user is owed. (new income + claimableTokens) / 10**32\n  function getTokensOwed(address _contributor, uint16 _day)\n  public\n  view\n  returns (uint) {\n      Day storage thisDay = day[_day];\n      uint percentage = thisDay.weiContributed[_contributor].mul(scalingFactor).div(thisDay.totalWeiContributed);\n      return percentage.mul(tokensPerDay).div(scalingFactor);\n  }\n\n  // @notice gets the total amount of mybit owed to the contributor\n  function getTotalTokensOwed(address _contributor, uint16[] _days)\n  public\n  view\n  returns (uint amount) {\n    for (uint16 i = 0; i < _days.length; i++){\n      amount = amount.add(getTokensOwed(_contributor, _days[i]));\n    }\n    return amount;\n  }\n\n  // @notice returns the amount of wei contributed by _contributor on _day\n  function getWeiContributed(uint16 _day, address _contributor)\n  public\n  view\n  returns (uint) {\n    return day[_day].weiContributed[_contributor];\n  }\n\n  function getTotalWeiContributed(uint16 _day)\n  public\n  view\n  returns (uint) {\n    return day[_day].totalWeiContributed;\n  }\n\n  // @notice return the day associated with this timestamp\n  function dayFor(uint _timestamp)\n  public\n  view\n  returns (uint16) {\n      if (_timestamp < start) { return 0; }\n      return uint16(_timestamp.sub(start).div(86400));\n  }\n\n  // @notice returns true if _day is finished\n  function dayFinished(uint16 _day)\n  public\n  view\n  returns (bool) {\n    return dayFor(now) > _day;\n  }\n\n  // @notice reverts if the current day isn't less than 365\n  function duringSale(uint16 _day)\n  public\n  view\n  returns (bool){\n    return start > 0 && _day >= 0 && _day <= uint16(364);\n  }\n\n\n  // @notice return the current day\n  function currentDay()\n  public\n  view\n  returns (uint16) {\n    return dayFor(now);\n  }\n\n  // @notice Fallback function: Purchases contributor stake in the tokens for the current day\n  function ()\n  external\n  payable {\n      require(addContribution(msg.sender, msg.value, currentDay()));\n  }\n\n\n\n  // @notice only owner address can call\n  modifier onlyOwner {\n    require(msg.sender == owner);\n    _;\n  }\n\n  event LogSaleStarted(address _owner, address _mybFoundation, address _developmentFund, uint _totalMYB);\n  event LogFoundationWithdraw(address _mybFoundation, uint _amount, uint16 _day);\n  event LogTokensPurchased(address _contributor, uint _amount, uint16 _day);\n  event LogTokensCollected(address _contributor, uint _amount, uint16 _day);\n\n}\n",
  "sourcePath": "/home/dog/code/mybit/tokensale/contracts/TokenSale.sol",
  "compiler": {
    "name": "solc",
    "version": "0.4.25+commit.59dbf8f1.Emscripten.clang"
  },
  "schemaVersion": "3.0.0-beta.1",
  "updatedAt": "2018-11-21T12:47:51.612Z"
}