{
  "contractName": "TokenSale",
  "abi": [
    {
      "constant": true,
      "inputs": [],
      "name": "tokensPerDay",
      "outputs": [
        {
          "name": "",
          "type": "uint256"
        }
      ],
      "payable": false,
      "stateMutability": "view",
      "type": "function"
    },
    {
      "constant": true,
      "inputs": [
        {
          "name": "",
          "type": "uint16"
        }
      ],
      "name": "day",
      "outputs": [
        {
          "name": "weiPerToken",
          "type": "uint256"
        },
        {
          "name": "dayIncome",
          "type": "uint256"
        }
      ],
      "payable": false,
      "stateMutability": "view",
      "type": "function"
    },
    {
      "constant": true,
      "inputs": [],
      "name": "start",
      "outputs": [
        {
          "name": "",
          "type": "uint256"
        }
      ],
      "payable": false,
      "stateMutability": "view",
      "type": "function"
    },
    {
      "inputs": [
        {
          "name": "_mybToken",
          "type": "address"
        }
      ],
      "payable": true,
      "stateMutability": "payable",
      "type": "constructor"
    },
    {
      "payable": false,
      "stateMutability": "nonpayable",
      "type": "fallback"
    },
    {
      "anonymous": false,
      "inputs": [
        {
          "indexed": false,
          "name": "_contributor",
          "type": "address"
        },
        {
          "indexed": false,
          "name": "_amount",
          "type": "uint256"
        },
        {
          "indexed": false,
          "name": "_day",
          "type": "uint16"
        }
      ],
      "name": "LogTokensPurchased",
      "type": "event"
    },
    {
      "anonymous": false,
      "inputs": [
        {
          "indexed": false,
          "name": "_contributor",
          "type": "address"
        },
        {
          "indexed": false,
          "name": "_amount",
          "type": "uint256"
        },
        {
          "indexed": false,
          "name": "_day",
          "type": "uint16"
        }
      ],
      "name": "LogTokensCollected",
      "type": "event"
    },
    {
      "constant": false,
      "inputs": [],
      "name": "fund",
      "outputs": [],
      "payable": true,
      "stateMutability": "payable",
      "type": "function"
    },
    {
      "constant": false,
      "inputs": [
        {
          "name": "_day",
          "type": "uint16"
        }
      ],
      "name": "withdraw",
      "outputs": [
        {
          "name": "",
          "type": "bool"
        }
      ],
      "payable": false,
      "stateMutability": "nonpayable",
      "type": "function"
    },
    {
      "constant": false,
      "inputs": [
        {
          "name": "_day",
          "type": "uint16[]"
        }
      ],
      "name": "batchWithdraw",
      "outputs": [
        {
          "name": "",
          "type": "bool"
        }
      ],
      "payable": false,
      "stateMutability": "nonpayable",
      "type": "function"
    },
    {
      "constant": true,
      "inputs": [
        {
          "name": "_user",
          "type": "address"
        },
        {
          "name": "_day",
          "type": "uint16"
        }
      ],
      "name": "getTokensForContribution",
      "outputs": [
        {
          "name": "",
          "type": "uint256"
        }
      ],
      "payable": false,
      "stateMutability": "view",
      "type": "function"
    },
    {
      "constant": true,
      "inputs": [
        {
          "name": "_user",
          "type": "address"
        },
        {
          "name": "_day",
          "type": "uint16"
        }
      ],
      "name": "getUnclaimedAmount",
      "outputs": [
        {
          "name": "",
          "type": "uint256"
        }
      ],
      "payable": false,
      "stateMutability": "view",
      "type": "function"
    },
    {
      "constant": true,
      "inputs": [
        {
          "name": "_timestamp",
          "type": "uint256"
        }
      ],
      "name": "dayFor",
      "outputs": [
        {
          "name": "",
          "type": "uint16"
        }
      ],
      "payable": false,
      "stateMutability": "view",
      "type": "function"
    }
  ],
  "bytecode": "0x60806040526100306203d09068056bc75e2d631000006101e264010000000002610e0c179091906401000000009004565b60025560405160208061109f83398101806040528101908080519060200190929190505050806000806101000a81548173ffffffffffffffffffffffffffffffffffffffff021916908373ffffffffffffffffffffffffffffffffffffffff1602179055506000809054906101000a900473ffffffffffffffffffffffffffffffffffffffff1673ffffffffffffffffffffffffffffffffffffffff166323b872dd33306002546040518463ffffffff167c0100000000000000000000000000000000000000000000000000000000028152600401808473ffffffffffffffffffffffffffffffffffffffff1673ffffffffffffffffffffffffffffffffffffffff1681526020018373ffffffffffffffffffffffffffffffffffffffff1673ffffffffffffffffffffffffffffffffffffffff1681526020018281526020019350505050602060405180830381600087803b15801561018f57600080fd5b505af11580156101a3573d6000803e3d6000fd5b505050506040513d60208110156101b957600080fd5b810190808051906020019092919050505015156101d557600080fd5b426001819055505061021d565b60008060008414156101f75760009150610216565b828402905082848281151561020857fe5b0414151561021257fe5b8091505b5092915050565b610e738061022c6000396000f300608060405260043610610099576000357c0100000000000000000000000000000000000000000000000000000000900463ffffffff168063132e8bee146100ab5780633d97283914610129578063410646e01461017257806341a84a0d146101d757806390497c661461023c578063b60d428814610267578063bd7255b014610271578063be9a6555146102bd578063d90c1759146102e8575b3480156100a557600080fd5b50600080fd5b3480156100b757600080fd5b5061010f60048036038101908080359060200190820180359060200190808060200260200160405190810160405280939291908181526020018383602002808284378201915050505050509192919290505050610331565b604051808215151515815260200191505060405180910390f35b34801561013557600080fd5b50610158600480360381019080803561ffff169060200190929190505050610645565b604051808215151515815260200191505060405180910390f35b34801561017e57600080fd5b506101c1600480360381019080803573ffffffffffffffffffffffffffffffffffffffff169060200190929190803561ffff1690602001909291905050506108c9565b6040518082815260200191505060405180910390f35b3480156101e357600080fd5b50610226600480360381019080803573ffffffffffffffffffffffffffffffffffffffff169060200190929190803561ffff16906020019092919050505061096a565b6040518082815260200191505060405180910390f35b34801561024857600080fd5b50610251610a44565b6040518082815260200191505060405180910390f35b61026f610a4a565b005b34801561027d57600080fd5b506102a0600480360381019080803561ffff169060200190929190505050610c22565b604051808381526020018281526020019250505060405180910390f35b3480156102c957600080fd5b506102d2610c46565b6040518082815260200191505060405180910390f35b3480156102f457600080fd5b5061031360048036038101908080359060200190929190505050610c4c565b604051808261ffff1661ffff16815260200191505060405180910390f35b60008060008060008092505b855183101561052e57610366868481518110151561035757fe5b90602001906020020151610c7f565b151561037157600080fd5b61039233878581518110151561038357fe5b90602001906020020151610ca8565b151561039d57600080fd5b6003600087858151811015156103af57fe5b9060200190602002015161ffff1661ffff16815260200190815260200160002091506104336d04ee2d6d415b85acef81000000008360040160003373ffffffffffffffffffffffffffffffffffffffff1673ffffffffffffffffffffffffffffffffffffffff16815260200190815260200160002054610dbf90919063ffffffff16565b90506104488185610dd590919063ffffffff16565b93508160040160003373ffffffffffffffffffffffffffffffffffffffff1673ffffffffffffffffffffffffffffffffffffffff168152602001908152602001600020600090557f33a4ae6c0627280fcb7aaf7e07deb59bbce49aa4808ee5457f8622f77ab5d28c338288868151811015156104c057fe5b90602001906020020151604051808473ffffffffffffffffffffffffffffffffffffffff1673ffffffffffffffffffffffffffffffffffffffff1681526020018381526020018261ffff1661ffff168152602001935050505060405180910390a1828060010193505061033d565b6000809054906101000a900473ffffffffffffffffffffffffffffffffffffffff1673ffffffffffffffffffffffffffffffffffffffff1663a9059cbb33866040518363ffffffff167c0100000000000000000000000000000000000000000000000000000000028152600401808373ffffffffffffffffffffffffffffffffffffffff1673ffffffffffffffffffffffffffffffffffffffff16815260200182815260200192505050602060405180830381600087803b1580156105f257600080fd5b505af1158015610606573d6000803e3d6000fd5b505050506040513d602081101561061c57600080fd5b8101908080519060200190929190505050151561063857600080fd5b6001945050505050919050565b600080600061065384610c7f565b151561065e57600080fd5b6106683385610ca8565b151561067357600080fd5b600360008561ffff1661ffff16815260200190815260200160002091506106f26d04ee2d6d415b85acef81000000008360040160003373ffffffffffffffffffffffffffffffffffffffff1673ffffffffffffffffffffffffffffffffffffffff16815260200190815260200160002054610dbf90919063ffffffff16565b90508160040160003373ffffffffffffffffffffffffffffffffffffffff1673ffffffffffffffffffffffffffffffffffffffff168152602001908152602001600020600090556000809054906101000a900473ffffffffffffffffffffffffffffffffffffffff1673ffffffffffffffffffffffffffffffffffffffff1663a9059cbb33836040518363ffffffff167c0100000000000000000000000000000000000000000000000000000000028152600401808373ffffffffffffffffffffffffffffffffffffffff1673ffffffffffffffffffffffffffffffffffffffff16815260200182815260200192505050602060405180830381600087803b1580156107fd57600080fd5b505af1158015610811573d6000803e3d6000fd5b505050506040513d602081101561082757600080fd5b8101908080519060200190929190505050151561084357600080fd5b7f33a4ae6c0627280fcb7aaf7e07deb59bbce49aa4808ee5457f8622f77ab5d28c338286604051808473ffffffffffffffffffffffffffffffffffffffff1673ffffffffffffffffffffffffffffffffffffffff1681526020018381526020018261ffff1661ffff168152602001935050505060405180910390a1600192505050919050565b60006109626d04ee2d6d415b85acef8100000000610954600360008661ffff1661ffff16815260200190815260200160002060040160008773ffffffffffffffffffffffffffffffffffffffff1673ffffffffffffffffffffffffffffffffffffffff16815260200190815260200160002054610946878761096a565b610dd590919063ffffffff16565b610dbf90919063ffffffff16565b905092915050565b6000806000600360008561ffff1661ffff16815260200190815260200160002091506109e48260020160008773ffffffffffffffffffffffffffffffffffffffff1673ffffffffffffffffffffffffffffffffffffffff168152602001908152602001600020548360000154610df390919063ffffffff16565b9050610a3a8260030160008773ffffffffffffffffffffffffffffffffffffffff1673ffffffffffffffffffffffffffffffffffffffff1681526020019081526020016000205482610e0c90919063ffffffff16565b9250505092915050565b60025481565b600061016d61ffff16610a5c42610c4c565b61ffff16101515610a6c57600080fd5b60036000610a7942610c4c565b61ffff1661ffff1681526020019081526020016000209050610adc610ac9600254610abb6d04ee2d6d415b85acef810000000034610e0c90919063ffffffff16565b610dbf90919063ffffffff16565b8260000154610dd590919063ffffffff16565b8160000181905550610afb348260010154610dd590919063ffffffff16565b8160010181905550610b57348260030160003373ffffffffffffffffffffffffffffffffffffffff1673ffffffffffffffffffffffffffffffffffffffff16815260200190815260200160002054610dd590919063ffffffff16565b8160030160003373ffffffffffffffffffffffffffffffffffffffff1673ffffffffffffffffffffffffffffffffffffffff168152602001908152602001600020819055507fd498819977fb9763f29bab6e4eee516c4cf59053922eb6a9fe59370a7bc28b3d3334610bc842610c4c565b604051808473ffffffffffffffffffffffffffffffffffffffff1673ffffffffffffffffffffffffffffffffffffffff1681526020018381526020018261ffff1661ffff168152602001935050505060405180910390a150565b60036020528060005260406000206000915090508060000154908060010154905082565b60015481565b6000610c7862015180610c6a60015485610df390919063ffffffff16565b610dbf90919063ffffffff16565b9050919050565b60008161ffff16610c8f42610c4c565b61ffff16111515610c9f57600080fd5b60019050919050565b600080600360008461ffff1661ffff1681526020019081526020016000209050610d25610cd5858561096a565b8260040160008773ffffffffffffffffffffffffffffffffffffffff1673ffffffffffffffffffffffffffffffffffffffff16815260200190815260200160002054610dd590919063ffffffff16565b8160040160008673ffffffffffffffffffffffffffffffffffffffff1673ffffffffffffffffffffffffffffffffffffffff1681526020019081526020016000208190555080600001548160020160008673ffffffffffffffffffffffffffffffffffffffff1673ffffffffffffffffffffffffffffffffffffffff16815260200190815260200160002081905550600191505092915050565b60008183811515610dcc57fe5b04905092915050565b6000808284019050838110151515610de957fe5b8091505092915050565b6000828211151515610e0157fe5b818303905092915050565b6000806000841415610e215760009150610e40565b8284029050828482811515610e3257fe5b04141515610e3c57fe5b8091505b50929150505600a165627a7a72305820f930fbd029ead9b360801c1d36c791a4af90ca66760a413c05cff942db437dd70029",
  "source": "pragma solidity 0.4.24;\n\nimport './SafeMath.sol';\nimport './ERC20Interface.sol';\n\n// TODO: add day restrictions for funding + withdraw\ncontract TokenSale {\n  using SafeMath for *;\n\n\n  struct Day {\n    uint weiPerToken;       // // amount of wei received per MYB token\n    uint dayIncome;\n    mapping (address => uint) previousWeiPerToken;\n    mapping (address => uint) weiContributed;\n    mapping (address => uint) claimableTokens;\n  }\n\n  uint constant scalingFactor = 1e32;\n  uint constant decimals = 100000000000000000000;\n  ERC20Interface mybToken;\n\n  uint public start;\n  uint16 constant numDays = uint16(365);\n  uint public tokensPerDay = decimals.mul(250000);\n\n  mapping (uint16 => Day) public day;\n\n  constructor(address _mybToken)\n  public\n  payable {\n    mybToken = ERC20Interface(_mybToken);\n    require(mybToken.transferFrom(msg.sender, address(this), tokensPerDay));\n    start = now;\n  }\n\n\n  function fund()\n  payable\n  duringSale\n  public {\n      Day storage today = day[dayFor(now)];\n      today.weiPerToken = today.weiPerToken.add(msg.value.mul(scalingFactor).div(tokensPerDay));\n      today.dayIncome = today.dayIncome.add(msg.value);\n      today.weiContributed[msg.sender] = today.weiContributed[msg.sender].add(msg.value);\n      emit LogTokensPurchased(msg.sender, msg.value, dayFor(now));\n  }\n\n\n  // @notice Updates claimableTokens, sends all wei to the token holder\n  function withdraw(uint16 _day)\n  public\n  returns (bool) {\n      require(dayFinished(_day));\n      require(updateclaimableTokens(msg.sender, _day));\n      Day storage thisDay = day[_day];\n      uint _amount = thisDay.claimableTokens[msg.sender].div(scalingFactor);\n      delete thisDay.claimableTokens[msg.sender];\n      require(mybToken.transfer(msg.sender, _amount));\n      emit LogTokensCollected(msg.sender, _amount, _day);\n      return true;\n  }\n\n  // @notice Updates claimableTokens, sends all wei to the token holder\n  function batchWithdraw(uint16[] _day)\n  public\n  returns (bool) {\n    uint amount;\n      for (uint i = 0; i < _day.length; i++){\n        require(dayFinished(_day[i]));\n        require(updateclaimableTokens(msg.sender, _day[i]));\n        Day storage thisDay = day[_day[i]];\n        uint amountToAdd = thisDay.claimableTokens[msg.sender].div(scalingFactor);\n        amount = amount.add(amountToAdd);\n        delete thisDay.claimableTokens[msg.sender];\n        emit LogTokensCollected(msg.sender, amountToAdd, _day[i]);\n      }\n      require(mybToken.transfer(msg.sender, amount));\n      return true;\n  }\n\n  // @notice Calculates how much value _user holds\n  function getTokensForContribution(address _user, uint16 _day)\n  public\n  view\n  returns (uint) {\n      Day storage thisDay = day[_day];\n      uint weiPerTokenDifference = thisDay.weiPerToken.sub(thisDay.previousWeiPerToken[_user]);\n      return weiPerTokenDifference.mul(thisDay.weiContributed[_user]);\n  }\n\n  // @notice Calculates how much wei user is owed. (new income + claimableTokens) / 10**32\n  function getUnclaimedAmount(address _user, uint16 _day)\n  public\n  view\n  returns (uint) {\n      return (getTokensForContribution(_user, _day).add(day[_day].claimableTokens[_user]).div(scalingFactor));\n  }\n\n  // @notice update the amount claimable by this user\n  function updateclaimableTokens(address _user, uint16 _day)\n  internal\n  returns (bool) {\n      Day storage thisDay = day[_day];\n      thisDay.claimableTokens[_user] = thisDay.claimableTokens[_user].add(getTokensForContribution(_user, _day));\n      thisDay.previousWeiPerToken[_user] = thisDay.weiPerToken;\n      return true;\n  }\n\n  // @notice return the day associated with this timestamp\n  function dayFor(uint _timestamp)\n  public\n  view\n  returns (uint16) {\n      return uint16(_timestamp.sub(start).div(24 hours));\n  }\n\n  // @notice reverts if the current day is greater than 365\n  modifier duringSale() {\n    require(dayFor(now) < uint16(365));\n    _;\n  }\n\n  // @notice returns true if _day is finished\n  function dayFinished(uint16 _day)\n  internal\n  returns (bool) {\n    require(dayFor(now) > _day);\n    return true;\n  }\n\n  // @notice Fallback function: Accepts Ether and updates ledger (issues dividends)\n  function ()\n  public {\n      revert();\n  }\n\n  event LogTokensPurchased(address _contributor, uint _amount, uint16 _day);\n  event LogTokensCollected(address _contributor, uint _amount, uint16 _day);\n\n}\n",
  "sourcePath": "/home/dog/code/mybit/tokensale/contracts/TokenSale.sol",
  "compiler": {
    "name": "solc",
    "version": "0.4.24+commit.e67f0147.Emscripten.clang"
  },
  "schemaVersion": "2.0.1",
  "updatedAt": "2018-10-22T09:38:45.013Z"
}