{
  "contractName": "TokenSale",
  "abi": [
    {
      "constant": true,
      "inputs": [],
      "name": "numDays",
      "outputs": [
        {
          "name": "",
          "type": "uint16"
        }
      ],
      "payable": false,
      "stateMutability": "view",
      "type": "function"
    },
    {
      "constant": true,
      "inputs": [],
      "name": "mybitFoundation",
      "outputs": [
        {
          "name": "",
          "type": "address"
        }
      ],
      "payable": false,
      "stateMutability": "view",
      "type": "function"
    },
    {
      "constant": true,
      "inputs": [],
      "name": "developmentFund",
      "outputs": [
        {
          "name": "",
          "type": "address"
        }
      ],
      "payable": false,
      "stateMutability": "view",
      "type": "function"
    },
    {
      "constant": true,
      "inputs": [],
      "name": "owner",
      "outputs": [
        {
          "name": "",
          "type": "address"
        }
      ],
      "payable": false,
      "stateMutability": "view",
      "type": "function"
    },
    {
      "constant": true,
      "inputs": [],
      "name": "tokensPerDay",
      "outputs": [
        {
          "name": "",
          "type": "uint256"
        }
      ],
      "payable": false,
      "stateMutability": "view",
      "type": "function"
    },
    {
      "constant": true,
      "inputs": [
        {
          "name": "",
          "type": "uint16"
        }
      ],
      "name": "day",
      "outputs": [
        {
          "name": "totalWeiContributed",
          "type": "uint256"
        }
      ],
      "payable": false,
      "stateMutability": "view",
      "type": "function"
    },
    {
      "constant": true,
      "inputs": [],
      "name": "start",
      "outputs": [
        {
          "name": "",
          "type": "uint256"
        }
      ],
      "payable": false,
      "stateMutability": "view",
      "type": "function"
    },
    {
      "inputs": [
        {
          "name": "_mybToken",
          "type": "address"
        },
        {
          "name": "_mybFoundation",
          "type": "address"
        },
        {
          "name": "_developmentFund",
          "type": "address"
        }
      ],
      "payable": false,
      "stateMutability": "nonpayable",
      "type": "constructor"
    },
    {
      "payable": true,
      "stateMutability": "payable",
      "type": "fallback"
    },
    {
      "anonymous": false,
      "inputs": [
        {
          "indexed": false,
          "name": "_owner",
          "type": "address"
        },
        {
          "indexed": false,
          "name": "_mybFoundation",
          "type": "address"
        },
        {
          "indexed": false,
          "name": "_developmentFund",
          "type": "address"
        },
        {
          "indexed": false,
          "name": "_totalMYB",
          "type": "uint256"
        }
      ],
      "name": "LogSaleStarted",
      "type": "event"
    },
    {
      "anonymous": false,
      "inputs": [
        {
          "indexed": false,
          "name": "_mybFoundation",
          "type": "address"
        },
        {
          "indexed": false,
          "name": "_amount",
          "type": "uint256"
        },
        {
          "indexed": false,
          "name": "_day",
          "type": "uint16"
        }
      ],
      "name": "LogFoundationWithdraw",
      "type": "event"
    },
    {
      "anonymous": false,
      "inputs": [
        {
          "indexed": false,
          "name": "_contributor",
          "type": "address"
        },
        {
          "indexed": false,
          "name": "_amount",
          "type": "uint256"
        },
        {
          "indexed": false,
          "name": "_day",
          "type": "uint16"
        }
      ],
      "name": "LogTokensPurchased",
      "type": "event"
    },
    {
      "anonymous": false,
      "inputs": [
        {
          "indexed": false,
          "name": "_contributor",
          "type": "address"
        },
        {
          "indexed": false,
          "name": "_amount",
          "type": "uint256"
        },
        {
          "indexed": false,
          "name": "_day",
          "type": "uint16"
        }
      ],
      "name": "LogTokensCollected",
      "type": "event"
    },
    {
      "constant": false,
      "inputs": [],
      "name": "startSale",
      "outputs": [
        {
          "name": "",
          "type": "bool"
        }
      ],
      "payable": false,
      "stateMutability": "nonpayable",
      "type": "function"
    },
    {
      "constant": false,
      "inputs": [
        {
          "name": "_day",
          "type": "uint16"
        }
      ],
      "name": "fund",
      "outputs": [
        {
          "name": "",
          "type": "bool"
        }
      ],
      "payable": true,
      "stateMutability": "payable",
      "type": "function"
    },
    {
      "constant": false,
      "inputs": [
        {
          "name": "_day",
          "type": "uint16[]"
        }
      ],
      "name": "batchFund",
      "outputs": [
        {
          "name": "",
          "type": "bool"
        }
      ],
      "payable": true,
      "stateMutability": "payable",
      "type": "function"
    },
    {
      "constant": false,
      "inputs": [
        {
          "name": "_day",
          "type": "uint16"
        }
      ],
      "name": "withdraw",
      "outputs": [
        {
          "name": "",
          "type": "bool"
        }
      ],
      "payable": false,
      "stateMutability": "nonpayable",
      "type": "function"
    },
    {
      "constant": false,
      "inputs": [
        {
          "name": "_day",
          "type": "uint16[]"
        }
      ],
      "name": "batchWithdraw",
      "outputs": [
        {
          "name": "",
          "type": "bool"
        }
      ],
      "payable": false,
      "stateMutability": "nonpayable",
      "type": "function"
    },
    {
      "constant": false,
      "inputs": [
        {
          "name": "_amount",
          "type": "uint256"
        }
      ],
      "name": "foundationWithdraw",
      "outputs": [
        {
          "name": "",
          "type": "bool"
        }
      ],
      "payable": false,
      "stateMutability": "nonpayable",
      "type": "function"
    },
    {
      "constant": true,
      "inputs": [
        {
          "name": "_contributor",
          "type": "address"
        },
        {
          "name": "_day",
          "type": "uint16"
        }
      ],
      "name": "getTokensOwed",
      "outputs": [
        {
          "name": "",
          "type": "uint256"
        }
      ],
      "payable": false,
      "stateMutability": "view",
      "type": "function"
    },
    {
      "constant": true,
      "inputs": [
        {
          "name": "_contributor",
          "type": "address"
        },
        {
          "name": "_days",
          "type": "uint16[]"
        }
      ],
      "name": "getTotalTokensOwed",
      "outputs": [
        {
          "name": "amount",
          "type": "uint256"
        }
      ],
      "payable": false,
      "stateMutability": "view",
      "type": "function"
    },
    {
      "constant": true,
      "inputs": [
        {
          "name": "_day",
          "type": "uint16"
        },
        {
          "name": "_contributor",
          "type": "address"
        }
      ],
      "name": "getWeiContributed",
      "outputs": [
        {
          "name": "",
          "type": "uint256"
        }
      ],
      "payable": false,
      "stateMutability": "view",
      "type": "function"
    },
    {
      "constant": true,
      "inputs": [
        {
          "name": "_day",
          "type": "uint16"
        }
      ],
      "name": "getTotalWeiContributed",
      "outputs": [
        {
          "name": "",
          "type": "uint256"
        }
      ],
      "payable": false,
      "stateMutability": "view",
      "type": "function"
    },
    {
      "constant": true,
      "inputs": [
        {
          "name": "_timestamp",
          "type": "uint256"
        }
      ],
      "name": "dayFor",
      "outputs": [
        {
          "name": "",
          "type": "uint16"
        }
      ],
      "payable": false,
      "stateMutability": "view",
      "type": "function"
    },
    {
      "constant": true,
      "inputs": [
        {
          "name": "_day",
          "type": "uint16"
        }
      ],
      "name": "dayFinished",
      "outputs": [
        {
          "name": "",
          "type": "bool"
        }
      ],
      "payable": false,
      "stateMutability": "view",
      "type": "function"
    },
    {
      "constant": true,
      "inputs": [
        {
          "name": "_day",
          "type": "uint16"
        }
      ],
      "name": "duringSale",
      "outputs": [
        {
          "name": "",
          "type": "bool"
        }
      ],
      "payable": false,
      "stateMutability": "view",
      "type": "function"
    },
    {
      "constant": true,
      "inputs": [],
      "name": "currentDay",
      "outputs": [
        {
          "name": "",
          "type": "uint16"
        }
      ],
      "payable": false,
      "stateMutability": "view",
      "type": "function"
    }
  ],
  "bytecode": "0x608060405234801561001057600080fd5b506040516060806119a6833981018060405281019080805190602001909291908051906020019092919080519060200190929190505050826000806101000a81548173ffffffffffffffffffffffffffffffffffffffff021916908373ffffffffffffffffffffffffffffffffffffffff16021790555080600360006101000a81548173ffffffffffffffffffffffffffffffffffffffff021916908373ffffffffffffffffffffffffffffffffffffffff16021790555081600260006101000a81548173ffffffffffffffffffffffffffffffffffffffff021916908373ffffffffffffffffffffffffffffffffffffffff16021790555033600160006101000a81548173ffffffffffffffffffffffffffffffffffffffff021916908373ffffffffffffffffffffffffffffffffffffffff16021790555050505061184a8061015c6000396000f30060806040526004361061011d576000357c0100000000000000000000000000000000000000000000000000000000900463ffffffff16806312635d261461013c578063132e8bee146101815780631ca89953146101d45780631ea6b97f1461021a578063279c7425146102b45780633d972839146103195780635c9302c9146103625780636110e6141461039557806363cf070c146103de5780637db02c8b146104115780638a2381d7146104685780638da5cb5b146104bf57806390497c66146105165780639e211ee814610541578063b66a0e5d1461058a578063bd7255b0146105b9578063be9a6555146105fe578063ce347a6514610629578063cedcd77014610665578063cf5e36df146106aa578063d90c17591461070f575b61012f333461012a610758565b610768565b151561013a57600080fd5b005b34801561014857600080fd5b5061016b600480360381019080803561ffff1690602001909291905050506108ff565b6040518082815260200191505060405180910390f35b34801561018d57600080fd5b506101ba600480360381019080803590602001908201803590602001919091929391929390505050610927565b604051808215151515815260200191505060405180910390f35b610200600480360381019080803590602001908201803590602001919091929391929390505050610bf2565b604051808215151515815260200191505060405180910390f35b34801561022657600080fd5b5061029e600480360381019080803573ffffffffffffffffffffffffffffffffffffffff16906020019092919080359060200190820180359060200190808060200260200160405190810160405280939291908181526020018383602002808284378201915050505050509192919290505050610cb1565b6040518082815260200191505060405180910390f35b3480156102c057600080fd5b50610303600480360381019080803573ffffffffffffffffffffffffffffffffffffffff169060200190929190803561ffff169060200190929190505050610d16565b6040518082815260200191505060405180910390f35b34801561032557600080fd5b50610348600480360381019080803561ffff169060200190929190505050610df9565b604051808215151515815260200191505060405180910390f35b34801561036e57600080fd5b50610377610758565b604051808261ffff1661ffff16815260200191505060405180910390f35b3480156103a157600080fd5b506103c4600480360381019080803561ffff169060200190929190505050611108565b604051808215151515815260200191505060405180910390f35b3480156103ea57600080fd5b506103f361112b565b604051808261ffff1661ffff16815260200191505060405180910390f35b34801561041d57600080fd5b50610426611131565b604051808273ffffffffffffffffffffffffffffffffffffffff1673ffffffffffffffffffffffffffffffffffffffff16815260200191505060405180910390f35b34801561047457600080fd5b5061047d611157565b604051808273ffffffffffffffffffffffffffffffffffffffff1673ffffffffffffffffffffffffffffffffffffffff16815260200191505060405180910390f35b3480156104cb57600080fd5b506104d461117d565b604051808273ffffffffffffffffffffffffffffffffffffffff1673ffffffffffffffffffffffffffffffffffffffff16815260200191505060405180910390f35b34801561052257600080fd5b5061052b6111a3565b6040518082815260200191505060405180910390f35b34801561054d57600080fd5b50610570600480360381019080803561ffff1690602001909291905050506111b1565b604051808215151515815260200191505060405180910390f35b34801561059657600080fd5b5061059f6111cd565b604051808215151515815260200191505060405180910390f35b3480156105c557600080fd5b506105e8600480360381019080803561ffff1690602001909291905050506114c6565b6040518082815260200191505060405180910390f35b34801561060a57600080fd5b506106136114e4565b6040518082815260200191505060405180910390f35b61064b600480360381019080803561ffff1690602001909291905050506114ea565b604051808215151515815260200191505060405180910390f35b34801561067157600080fd5b506106906004803603810190808035906020019092919050505061150b565b604051808215151515815260200191505060405180910390f35b3480156106b657600080fd5b506106f9600480360381019080803561ffff169060200190929190803573ffffffffffffffffffffffffffffffffffffffff1690602001909291905050506116fd565b6040518082815260200191505060405180910390f35b34801561071b57600080fd5b5061073a60048036038101908080359060200190929190505050611763565b604051808261ffff1661ffff16815260200191505060405180910390f35b600061076342611763565b905090565b60008060008411151561077a57600080fd5b61078383611108565b151561078e57600080fd5b610797836111b1565b1515156107a357600080fd5b600560008461ffff1661ffff16815260200190815260200160002090506107d784826000015461179690919063ffffffff16565b8160000181905550610833848260010160008873ffffffffffffffffffffffffffffffffffffffff1673ffffffffffffffffffffffffffffffffffffffff1681526020019081526020016000205461179690919063ffffffff16565b8160010160008773ffffffffffffffffffffffffffffffffffffffff1673ffffffffffffffffffffffffffffffffffffffff168152602001908152602001600020819055507fd498819977fb9763f29bab6e4eee516c4cf59053922eb6a9fe59370a7bc28b3d858585604051808473ffffffffffffffffffffffffffffffffffffffff1673ffffffffffffffffffffffffffffffffffffffff1681526020018381526020018261ffff1661ffff168152602001935050505060405180910390a160019150509392505050565b6000600560008361ffff1661ffff168152602001908152602001600020600001549050919050565b6000806000806032868690501115151561094057600080fd5b600091505b858590508260ff161015610adb5761097786868460ff16818110151561096757fe5b9050602002013561ffff166111b1565b151561098257600080fd5b6109a73387878560ff16818110151561099757fe5b9050602002013561ffff16610d16565b90506109bc818461179690919063ffffffff16565b92506005600087878560ff1681811015156109d357fe5b9050602002013561ffff1661ffff1661ffff16815260200190815260200160002060010160003373ffffffffffffffffffffffffffffffffffffffff1673ffffffffffffffffffffffffffffffffffffffff168152602001908152602001600020600090557f33a4ae6c0627280fcb7aaf7e07deb59bbce49aa4808ee5457f8622f77ab5d28c338288888660ff168181101515610a6c57fe5b9050602002013561ffff16604051808473ffffffffffffffffffffffffffffffffffffffff1673ffffffffffffffffffffffffffffffffffffffff1681526020018381526020018261ffff1661ffff168152602001935050505060405180910390a18180600101925050610945565b6000809054906101000a900473ffffffffffffffffffffffffffffffffffffffff1673ffffffffffffffffffffffffffffffffffffffff1663a9059cbb33856040518363ffffffff167c0100000000000000000000000000000000000000000000000000000000028152600401808373ffffffffffffffffffffffffffffffffffffffff1673ffffffffffffffffffffffffffffffffffffffff16815260200182815260200192505050602060405180830381600087803b158015610b9f57600080fd5b505af1158015610bb3573d6000803e3d6000fd5b505050506040513d6020811015610bc957600080fd5b81019080805190602001909291905050501515610be557600080fd5b6001935050505092915050565b600080600060328585905011151515610c0a57600080fd5b848490503410151515610c1c57600080fd5b610c3285859050346117b490919063ffffffff16565b915034610c4b86869050846117ca90919063ffffffff16565b141515610c5457fe5b600090505b848490508160ff161015610ca557610c8d338387878560ff168181101515610c7d57fe5b9050602002013561ffff16610768565b1515610c9857600080fd5b8080600101915050610c59565b60019250505092915050565b600080600090505b82518161ffff161015610d0c57610cfd610cee85858461ffff16815181101515610cdf57fe5b90602001906020020151610d16565b8361179690919063ffffffff16565b91508080600101915050610cb9565b8191505092915050565b6000806000600560008561ffff1661ffff1681526020019081526020016000209150610db08260000154610da26d314dc6448d9338c15b0a000000008560010160008a73ffffffffffffffffffffffffffffffffffffffff1673ffffffffffffffffffffffffffffffffffffffff168152602001908152602001600020546117ca90919063ffffffff16565b6117b490919063ffffffff16565b9050610def6d314dc6448d9338c15b0a00000000610de169152d02c7e14af6800000846117ca90919063ffffffff16565b6117b490919063ffffffff16565b9250505092915050565b6000806000610e07846111b1565b1515610e7b576040517f08c379a000000000000000000000000000000000000000000000000000000000815260040180806020018281038252601c8152602001807f64617920686173206e6f742066696e69736865642066756e64696e670000000081525060200191505060405180910390fd5b600560008561ffff1661ffff1681526020019081526020016000209150610ea23385610d16565b90508160010160003373ffffffffffffffffffffffffffffffffffffffff1673ffffffffffffffffffffffffffffffffffffffff168152602001908152602001600020600090556000809054906101000a900473ffffffffffffffffffffffffffffffffffffffff1673ffffffffffffffffffffffffffffffffffffffff1663a9059cbb33836040518363ffffffff167c0100000000000000000000000000000000000000000000000000000000028152600401808373ffffffffffffffffffffffffffffffffffffffff1673ffffffffffffffffffffffffffffffffffffffff16815260200182815260200192505050602060405180830381600087803b158015610fad57600080fd5b505af1158015610fc1573d6000803e3d6000fd5b505050506040513d6020811015610fd757600080fd5b81019080805190602001909291905050501515611082576040517f08c379a00000000000000000000000000000000000000000000000000000000081526004018080602001828103825260238152602001807f636f756c646e74207472616e73666572204d594220746f20636f6e747269627581526020017f746f72000000000000000000000000000000000000000000000000000000000081525060400191505060405180910390fd5b7f33a4ae6c0627280fcb7aaf7e07deb59bbce49aa4808ee5457f8622f77ab5d28c338286604051808473ffffffffffffffffffffffffffffffffffffffff1673ffffffffffffffffffffffffffffffffffffffff1681526020018381526020018261ffff1661ffff168152602001935050505060405180910390a1600192505050919050565b600080600454118015611124575061016d61ffff168261ffff16105b9050919050565b61016d81565b600260009054906101000a900473ffffffffffffffffffffffffffffffffffffffff1681565b600360009054906101000a900473ffffffffffffffffffffffffffffffffffffffff1681565b600160009054906101000a900473ffffffffffffffffffffffffffffffffffffffff1681565b69152d02c7e14af680000081565b60008161ffff166111c142611763565b61ffff16119050919050565b600080600160009054906101000a900473ffffffffffffffffffffffffffffffffffffffff1673ffffffffffffffffffffffffffffffffffffffff163373ffffffffffffffffffffffffffffffffffffffff1614151561122c57600080fd5b600060045414151561123d57600080fd5b61126061016d61ffff1669152d02c7e14af68000006117ca90919063ffffffff16565b90506000809054906101000a900473ffffffffffffffffffffffffffffffffffffffff1673ffffffffffffffffffffffffffffffffffffffff166323b872dd3330846040518463ffffffff167c0100000000000000000000000000000000000000000000000000000000028152600401808473ffffffffffffffffffffffffffffffffffffffff1673ffffffffffffffffffffffffffffffffffffffff1681526020018373ffffffffffffffffffffffffffffffffffffffff1673ffffffffffffffffffffffffffffffffffffffff1681526020018281526020019350505050602060405180830381600087803b15801561135a57600080fd5b505af115801561136e573d6000803e3d6000fd5b505050506040513d602081101561138457600080fd5b810190808051906020019092919050505015156113a057600080fd5b426004819055507f05a4a5db99c093a62c31c3cf60de62acb215e12a96373569d8ffe3443bce323533600260009054906101000a900473ffffffffffffffffffffffffffffffffffffffff16600360009054906101000a900473ffffffffffffffffffffffffffffffffffffffff1684604051808573ffffffffffffffffffffffffffffffffffffffff1673ffffffffffffffffffffffffffffffffffffffff1681526020018473ffffffffffffffffffffffffffffffffffffffff1673ffffffffffffffffffffffffffffffffffffffff1681526020018373ffffffffffffffffffffffffffffffffffffffff1673ffffffffffffffffffffffffffffffffffffffff16815260200182815260200194505050505060405180910390a1600191505090565b60056020528060005260406000206000915090508060000154905081565b60045481565b60006114f7333484610768565b151561150257600080fd5b60019050919050565b600080600160009054906101000a900473ffffffffffffffffffffffffffffffffffffffff1673ffffffffffffffffffffffffffffffffffffffff163373ffffffffffffffffffffffffffffffffffffffff1614151561156a57600080fd5b61157e6002846117b490919063ffffffff16565b9050826115956002836117ca90919063ffffffff16565b14151561159e57fe5b600260009054906101000a900473ffffffffffffffffffffffffffffffffffffffff1673ffffffffffffffffffffffffffffffffffffffff166108fc829081150290604051600060405180830381858888f19350505050158015611606573d6000803e3d6000fd5b50600360009054906101000a900473ffffffffffffffffffffffffffffffffffffffff1673ffffffffffffffffffffffffffffffffffffffff166108fc829081150290604051600060405180830381858888f1935050505015801561166f573d6000803e3d6000fd5b507fe56726172348e334b8fff79c722777489b247ed7148d44486ab67b65c1a54f1f338461169c42611763565b604051808473ffffffffffffffffffffffffffffffffffffffff1673ffffffffffffffffffffffffffffffffffffffff1681526020018381526020018261ffff1661ffff168152602001935050505060405180910390a16001915050919050565b6000600560008461ffff1661ffff16815260200190815260200160002060010160008373ffffffffffffffffffffffffffffffffffffffff1673ffffffffffffffffffffffffffffffffffffffff16815260200190815260200160002054905092915050565b600061178f620151806117816004548561180590919063ffffffff16565b6117b490919063ffffffff16565b9050919050565b60008082840190508381101515156117aa57fe5b8091505092915050565b600081838115156117c157fe5b04905092915050565b60008060008414156117df57600091506117fe565b82840290508284828115156117f057fe5b041415156117fa57fe5b8091505b5092915050565b600082821115151561181357fe5b8183039050929150505600a165627a7a723058203081c22003cfa6ce11bc041fa2e11ac5489a95fd22b8028db9e3239a8d11288c0029",
  "source": "pragma solidity 0.4.24;\n\nimport './SafeMath.sol';\nimport './ERC20Interface.sol';\n\n\ncontract TokenSale {\n  using SafeMath for *;\n\n  ERC20Interface mybToken;\n\n  struct Day {\n    uint totalWeiContributed;\n    mapping (address => uint) weiContributed;\n  }\n\n\n  // Constants\n  uint constant internal scalingFactor = 10e32;\n  uint16 constant public numDays = uint16(365);\n  uint constant public tokensPerDay = uint(10e22);\n\n  // MyBit addresses\n  address public owner;\n  address public mybitFoundation;\n  address public developmentFund;\n\n  uint public start;      // The timestamp when sale starts\n\n  mapping (uint16 => Day) public day;\n\n  constructor(address _mybToken, address _mybFoundation, address _developmentFund)\n  public {\n    mybToken = ERC20Interface(_mybToken);\n    developmentFund = _developmentFund;\n    mybitFoundation = _mybFoundation;\n    owner = msg.sender;\n  }\n\n  // @notice owner can start the sale by transferring in required amount of MYB\n  // @dev the start time is used to determine which day the sale is on (day 0 = first day)\n  function startSale()\n  external\n  onlyOwner\n  returns (bool){\n    require(start == 0);\n    uint saleAmount = tokensPerDay.mul(numDays);\n    require(mybToken.transferFrom(msg.sender, address(this), saleAmount));\n    start = now;\n    emit LogSaleStarted(msg.sender, mybitFoundation, developmentFund, saleAmount);\n    return true;\n  }\n\n  // @notice contributor can contribute wei to sale on any current/future _day\n  // @dev only accepts contributions between days 0 - 365\n  function fund(uint16 _day)\n  payable\n  public\n  returns (bool) {\n      require(addContribution(msg.sender, msg.value, _day));\n      return true;\n  }\n\n  // @notice Send an index of days and your payment will be divided equally among them\n  // @dev WEI sent must divide equally into number of days.\n  function batchFund(uint16[] _day)\n  payable\n  external\n  returns (bool) {\n    require(_day.length <= 50);\n    require(msg.value >= _day.length);   // need at least 1 wei per day\n    uint amountPerDay = msg.value.div(_day.length);\n    assert (amountPerDay.mul(_day.length) == msg.value);\n    for (uint8 i = 0; i < _day.length; i++){\n      require(addContribution(msg.sender, amountPerDay, _day[i]));\n    }\n    return true;\n  }\n\n\n  // @notice Updates claimableTokens, sends all wei to the token holder\n  function withdraw(uint16 _day)\n  external\n  returns (bool) {\n      require(dayFinished(_day), \"day has not finished funding\");\n      Day storage thisDay = day[_day];\n      uint amount = getTokensOwed(msg.sender, _day);\n      delete thisDay.weiContributed[msg.sender];\n      require(mybToken.transfer(msg.sender, amount), \"couldnt transfer MYB to contributor\");\n      emit LogTokensCollected(msg.sender, amount, _day);\n      return true;\n  }\n\n  // @notice Updates claimableTokens, sends all tokens to contributor from previous days\n  // @param (uint16[]) _day, list of token sale days msg.sender contributed wei towards\n  function batchWithdraw(uint16[] _day)\n  external\n  returns (bool) {\n    uint amount;\n    require(_day.length <= 50);\n    for (uint8 i = 0; i < _day.length; i++){\n      require(dayFinished(_day[i]));\n      uint amountToAdd = getTokensOwed(msg.sender, _day[i]);\n      amount = amount.add(amountToAdd);\n      delete day[_day[i]].weiContributed[msg.sender];\n      emit LogTokensCollected(msg.sender, amountToAdd, _day[i]);\n    }\n    require(mybToken.transfer(msg.sender, amount));\n    return true;\n  }\n\n  // @notice owner can withdraw funds to the foundation wallet and ddf wallet\n  // @param (uint) _amount, The amount of wei to withdraw\n  // @dev must put in an _amount equally divisible by 2\n  function foundationWithdraw(uint _amount)\n  external\n  onlyOwner\n  returns (bool){\n    uint half = _amount.div(2);\n    assert (half.mul(2) == _amount);   // check for rounding error\n    mybitFoundation.transfer(half);\n    developmentFund.transfer(half);\n    emit LogFoundationWithdraw(msg.sender, _amount, dayFor(now));\n    return true;\n  }\n\n  // @notice updates ledger with the contribution from _investor\n  // @param (address) _investor: The sender of WEI to the contract\n  // @param (uint) _amount: The amount of WEI to add to _day\n  // @param (uint16) _day: The day to fund\n  function addContribution(address _investor, uint _amount, uint16 _day)\n  internal\n  returns (bool) {\n    require(_amount > 0);\n    require(duringSale(_day));\n    require(!dayFinished(_day));\n    Day storage today = day[_day];\n    today.totalWeiContributed = today.totalWeiContributed.add(_amount);\n    today.weiContributed[_investor] = today.weiContributed[_investor].add(_amount);\n    emit LogTokensPurchased(_investor, _amount, _day);\n    return true;\n  }\n\n  // @notice Calculates how many tokens user is owed. (new income + claimableTokens) / 10**32\n  function getTokensOwed(address _contributor, uint16 _day)\n  public\n  view\n  returns (uint) {\n      Day storage thisDay = day[_day];\n      uint percentage = thisDay.weiContributed[_contributor].mul(scalingFactor).div(thisDay.totalWeiContributed);\n      return percentage.mul(tokensPerDay).div(scalingFactor);\n  }\n\n  // @notice gets the total amount of mybit owed to the contributor\n  function getTotalTokensOwed(address _contributor, uint16[] _days)\n  public\n  view\n  returns (uint amount) {\n    for (uint16 i = 0; i < _days.length; i++){\n      amount = amount.add(getTokensOwed(_contributor, _days[i]));\n    }\n    return amount;\n  }\n\n  // @notice returns the amount of wei contributed by _contributor on _day\n  function getWeiContributed(uint16 _day, address _contributor)\n  public\n  view\n  returns (uint) {\n    return day[_day].weiContributed[_contributor];\n  }\n\n  function getTotalWeiContributed(uint16 _day)\n  public\n  view\n  returns (uint) {\n    return day[_day].totalWeiContributed;\n  }\n\n  // @notice return the day associated with this timestamp\n  function dayFor(uint _timestamp)\n  public\n  view\n  returns (uint16) {\n      return uint16(_timestamp.sub(start).div(86400));\n  }\n\n  // @notice returns true if _day is finished\n  function dayFinished(uint16 _day)\n  public\n  view\n  returns (bool) {\n    return dayFor(now) > _day;\n  }\n\n  // @notice reverts if the current day isn't less than 365\n  function duringSale(uint16 _day)\n  public\n  view\n  returns (bool){\n    return (start > 0 && _day < uint16(365));\n  }\n\n\n  // @notice return the current day\n  function currentDay()\n  public\n  view\n  returns (uint16) {\n    return dayFor(now);\n  }\n\n  // @notice Fallback function: Purchases contributor stake in the tokens for the current day\n  function ()\n  external\n  payable {\n      require(addContribution(msg.sender, msg.value, currentDay()));\n  }\n\n\n\n  // @notice only owner address can call\n  modifier onlyOwner {\n    require(msg.sender == owner);\n    _;\n  }\n\n  event LogSaleStarted(address _owner, address _mybFoundation, address _developmentFund, uint _totalMYB);\n  event LogFoundationWithdraw(address _mybFoundation, uint _amount, uint16 _day);\n  event LogTokensPurchased(address _contributor, uint _amount, uint16 _day);\n  event LogTokensCollected(address _contributor, uint _amount, uint16 _day);\n\n}\n",
  "sourcePath": "/home/dog/code/mybit/tokensale/contracts/TokenSale.sol",
  "compiler": {
    "name": "solc",
    "version": "0.4.24+commit.e67f0147.Emscripten.clang"
  },
  "schemaVersion": "2.0.1",
  "updatedAt": "2018-11-13T16:30:11.752Z"
}