{
  "contractName": "TokenSale",
  "abi": [
    {
      "constant": true,
      "inputs": [],
      "name": "mybitFoundation",
      "outputs": [
        {
          "name": "",
          "type": "address"
        }
      ],
      "payable": false,
      "stateMutability": "view",
      "type": "function"
    },
    {
      "constant": true,
      "inputs": [],
      "name": "developmentFund",
      "outputs": [
        {
          "name": "",
          "type": "address"
        }
      ],
      "payable": false,
      "stateMutability": "view",
      "type": "function"
    },
    {
      "constant": true,
      "inputs": [],
      "name": "owner",
      "outputs": [
        {
          "name": "",
          "type": "address"
        }
      ],
      "payable": false,
      "stateMutability": "view",
      "type": "function"
    },
    {
      "constant": true,
      "inputs": [],
      "name": "tokensPerDay",
      "outputs": [
        {
          "name": "",
          "type": "uint256"
        }
      ],
      "payable": false,
      "stateMutability": "view",
      "type": "function"
    },
    {
      "constant": true,
      "inputs": [
        {
          "name": "",
          "type": "uint16"
        }
      ],
      "name": "day",
      "outputs": [
        {
          "name": "totalWeiContributed",
          "type": "uint256"
        }
      ],
      "payable": false,
      "stateMutability": "view",
      "type": "function"
    },
    {
      "constant": true,
      "inputs": [],
      "name": "start",
      "outputs": [
        {
          "name": "",
          "type": "uint256"
        }
      ],
      "payable": false,
      "stateMutability": "view",
      "type": "function"
    },
    {
      "inputs": [
        {
          "name": "_mybToken",
          "type": "address"
        },
        {
          "name": "_mybFoundation",
          "type": "address"
        },
        {
          "name": "_developmentFund",
          "type": "address"
        }
      ],
      "payable": false,
      "stateMutability": "nonpayable",
      "type": "constructor"
    },
    {
      "payable": true,
      "stateMutability": "payable",
      "type": "fallback"
    },
    {
      "anonymous": false,
      "inputs": [
        {
          "indexed": false,
          "name": "_owner",
          "type": "address"
        },
        {
          "indexed": false,
          "name": "_mybFoundation",
          "type": "address"
        },
        {
          "indexed": false,
          "name": "_developmentFund",
          "type": "address"
        },
        {
          "indexed": false,
          "name": "_totalMYB",
          "type": "uint256"
        }
      ],
      "name": "LogSaleStarted",
      "type": "event"
    },
    {
      "anonymous": false,
      "inputs": [
        {
          "indexed": false,
          "name": "_mybFoundation",
          "type": "address"
        },
        {
          "indexed": false,
          "name": "_amount",
          "type": "uint256"
        },
        {
          "indexed": false,
          "name": "_day",
          "type": "uint16"
        }
      ],
      "name": "LogFoundationWithdraw",
      "type": "event"
    },
    {
      "anonymous": false,
      "inputs": [
        {
          "indexed": false,
          "name": "_contributor",
          "type": "address"
        },
        {
          "indexed": false,
          "name": "_amount",
          "type": "uint256"
        },
        {
          "indexed": false,
          "name": "_day",
          "type": "uint16"
        }
      ],
      "name": "LogTokensPurchased",
      "type": "event"
    },
    {
      "anonymous": false,
      "inputs": [
        {
          "indexed": false,
          "name": "_contributor",
          "type": "address"
        },
        {
          "indexed": false,
          "name": "_amount",
          "type": "uint256"
        },
        {
          "indexed": false,
          "name": "_day",
          "type": "uint16"
        }
      ],
      "name": "LogTokensCollected",
      "type": "event"
    },
    {
      "constant": false,
      "inputs": [],
      "name": "startSale",
      "outputs": [
        {
          "name": "",
          "type": "bool"
        }
      ],
      "payable": false,
      "stateMutability": "nonpayable",
      "type": "function"
    },
    {
      "constant": false,
      "inputs": [
        {
          "name": "_day",
          "type": "uint16"
        }
      ],
      "name": "fund",
      "outputs": [
        {
          "name": "",
          "type": "bool"
        }
      ],
      "payable": true,
      "stateMutability": "payable",
      "type": "function"
    },
    {
      "constant": false,
      "inputs": [
        {
          "name": "_day",
          "type": "uint16[]"
        }
      ],
      "name": "batchFund",
      "outputs": [
        {
          "name": "",
          "type": "bool"
        }
      ],
      "payable": true,
      "stateMutability": "payable",
      "type": "function"
    },
    {
      "constant": false,
      "inputs": [
        {
          "name": "_day",
          "type": "uint16"
        }
      ],
      "name": "withdraw",
      "outputs": [
        {
          "name": "",
          "type": "bool"
        }
      ],
      "payable": false,
      "stateMutability": "nonpayable",
      "type": "function"
    },
    {
      "constant": false,
      "inputs": [
        {
          "name": "_day",
          "type": "uint16[]"
        }
      ],
      "name": "batchWithdraw",
      "outputs": [
        {
          "name": "",
          "type": "bool"
        }
      ],
      "payable": false,
      "stateMutability": "nonpayable",
      "type": "function"
    },
    {
      "constant": false,
      "inputs": [
        {
          "name": "_amount",
          "type": "uint256"
        }
      ],
      "name": "foundationWithdraw",
      "outputs": [
        {
          "name": "",
          "type": "bool"
        }
      ],
      "payable": false,
      "stateMutability": "nonpayable",
      "type": "function"
    },
    {
      "constant": true,
      "inputs": [
        {
          "name": "_contributor",
          "type": "address"
        },
        {
          "name": "_day",
          "type": "uint16"
        }
      ],
      "name": "getTokensOwed",
      "outputs": [
        {
          "name": "",
          "type": "uint256"
        }
      ],
      "payable": false,
      "stateMutability": "view",
      "type": "function"
    },
    {
      "constant": true,
      "inputs": [
        {
          "name": "_contributor",
          "type": "address"
        },
        {
          "name": "_days",
          "type": "uint16[]"
        }
      ],
      "name": "getTotalTokensOwed",
      "outputs": [
        {
          "name": "amount",
          "type": "uint256"
        }
      ],
      "payable": false,
      "stateMutability": "view",
      "type": "function"
    },
    {
      "constant": true,
      "inputs": [
        {
          "name": "_day",
          "type": "uint16"
        },
        {
          "name": "_contributor",
          "type": "address"
        }
      ],
      "name": "getWeiContributed",
      "outputs": [
        {
          "name": "",
          "type": "uint256"
        }
      ],
      "payable": false,
      "stateMutability": "view",
      "type": "function"
    },
    {
      "constant": true,
      "inputs": [
        {
          "name": "_day",
          "type": "uint16"
        }
      ],
      "name": "getTotalWeiContributed",
      "outputs": [
        {
          "name": "",
          "type": "uint256"
        }
      ],
      "payable": false,
      "stateMutability": "view",
      "type": "function"
    },
    {
      "constant": true,
      "inputs": [
        {
          "name": "_timestamp",
          "type": "uint256"
        }
      ],
      "name": "dayFor",
      "outputs": [
        {
          "name": "",
          "type": "uint16"
        }
      ],
      "payable": false,
      "stateMutability": "view",
      "type": "function"
    },
    {
      "constant": true,
      "inputs": [
        {
          "name": "_day",
          "type": "uint16"
        }
      ],
      "name": "dayFinished",
      "outputs": [
        {
          "name": "",
          "type": "bool"
        }
      ],
      "payable": false,
      "stateMutability": "view",
      "type": "function"
    },
    {
      "constant": true,
      "inputs": [
        {
          "name": "_day",
          "type": "uint16"
        }
      ],
      "name": "duringSale",
      "outputs": [
        {
          "name": "",
          "type": "bool"
        }
      ],
      "payable": false,
      "stateMutability": "view",
      "type": "function"
    },
    {
      "constant": true,
      "inputs": [],
      "name": "currentDay",
      "outputs": [
        {
          "name": "",
          "type": "uint16"
        }
      ],
      "payable": false,
      "stateMutability": "view",
      "type": "function"
    }
  ],
  "bytecode": "0x608060405234801561001057600080fd5b506040516060806118bb833981018060405281019080805190602001909291908051906020019092919080519060200190929190505050826000806101000a81548173ffffffffffffffffffffffffffffffffffffffff021916908373ffffffffffffffffffffffffffffffffffffffff16021790555080600360006101000a81548173ffffffffffffffffffffffffffffffffffffffff021916908373ffffffffffffffffffffffffffffffffffffffff16021790555081600260006101000a81548173ffffffffffffffffffffffffffffffffffffffff021916908373ffffffffffffffffffffffffffffffffffffffff16021790555033600160006101000a81548173ffffffffffffffffffffffffffffffffffffffff021916908373ffffffffffffffffffffffffffffffffffffffff16021790555050505061175f8061015c6000396000f300608060405260043610610112576000357c0100000000000000000000000000000000000000000000000000000000900463ffffffff16806312635d2614610131578063132e8bee146101765780631ca89953146101c95780631ea6b97f1461020f578063279c7425146102a95780633d9728391461030e5780635c9302c9146103575780636110e6141461038a5780637db02c8b146103d35780638a2381d71461042a5780638da5cb5b1461048157806390497c66146104d85780639e211ee814610503578063b66a0e5d1461054c578063bd7255b01461057b578063be9a6555146105c0578063ce347a65146105eb578063cedcd77014610627578063cf5e36df1461066c578063d90c1759146106d1575b610124333461011f61071a565b61072a565b151561012f57600080fd5b005b34801561013d57600080fd5b50610160600480360381019080803561ffff1690602001909291905050506108c1565b6040518082815260200191505060405180910390f35b34801561018257600080fd5b506101af6004803603810190808035906020019082018035906020019190919293919293905050506108e9565b604051808215151515815260200191505060405180910390f35b6101f5600480360381019080803590602001908201803590602001919091929391929390505050610baa565b604051808215151515815260200191505060405180910390f35b34801561021b57600080fd5b50610293600480360381019080803573ffffffffffffffffffffffffffffffffffffffff16906020019092919080359060200190820180359060200190808060200260200160405190810160405280939291908181526020018383602002808284378201915050505050509192919290505050610c69565b6040518082815260200191505060405180910390f35b3480156102b557600080fd5b506102f8600480360381019080803573ffffffffffffffffffffffffffffffffffffffff169060200190929190803561ffff169060200190929190505050610cce565b6040518082815260200191505060405180910390f35b34801561031a57600080fd5b5061033d600480360381019080803561ffff169060200190929190505050610db1565b604051808215151515815260200191505060405180910390f35b34801561036357600080fd5b5061036c61071a565b604051808261ffff1661ffff16815260200191505060405180910390f35b34801561039657600080fd5b506103b9600480360381019080803561ffff169060200190929190505050611027565b604051808215151515815260200191505060405180910390f35b3480156103df57600080fd5b506103e861104a565b604051808273ffffffffffffffffffffffffffffffffffffffff1673ffffffffffffffffffffffffffffffffffffffff16815260200191505060405180910390f35b34801561043657600080fd5b5061043f611070565b604051808273ffffffffffffffffffffffffffffffffffffffff1673ffffffffffffffffffffffffffffffffffffffff16815260200191505060405180910390f35b34801561048d57600080fd5b50610496611096565b604051808273ffffffffffffffffffffffffffffffffffffffff1673ffffffffffffffffffffffffffffffffffffffff16815260200191505060405180910390f35b3480156104e457600080fd5b506104ed6110bc565b6040518082815260200191505060405180910390f35b34801561050f57600080fd5b50610532600480360381019080803561ffff1690602001909291905050506110ca565b604051808215151515815260200191505060405180910390f35b34801561055857600080fd5b506105616110e6565b604051808215151515815260200191505060405180910390f35b34801561058757600080fd5b506105aa600480360381019080803561ffff1690602001909291905050506113db565b6040518082815260200191505060405180910390f35b3480156105cc57600080fd5b506105d56113f9565b6040518082815260200191505060405180910390f35b61060d600480360381019080803561ffff1690602001909291905050506113ff565b604051808215151515815260200191505060405180910390f35b34801561063357600080fd5b5061065260048036038101908080359060200190929190505050611420565b604051808215151515815260200191505060405180910390f35b34801561067857600080fd5b506106bb600480360381019080803561ffff169060200190929190803573ffffffffffffffffffffffffffffffffffffffff169060200190929190505050611612565b6040518082815260200191505060405180910390f35b3480156106dd57600080fd5b506106fc60048036038101908080359060200190929190505050611678565b604051808261ffff1661ffff16815260200191505060405180910390f35b600061072542611678565b905090565b60008060008411151561073c57600080fd5b61074583611027565b151561075057600080fd5b610759836110ca565b15151561076557600080fd5b600560008461ffff1661ffff16815260200190815260200160002090506107998482600001546116ab90919063ffffffff16565b81600001819055506107f5848260010160008873ffffffffffffffffffffffffffffffffffffffff1673ffffffffffffffffffffffffffffffffffffffff168152602001908152602001600020546116ab90919063ffffffff16565b8160010160008773ffffffffffffffffffffffffffffffffffffffff1673ffffffffffffffffffffffffffffffffffffffff168152602001908152602001600020819055507fd498819977fb9763f29bab6e4eee516c4cf59053922eb6a9fe59370a7bc28b3d858585604051808473ffffffffffffffffffffffffffffffffffffffff1673ffffffffffffffffffffffffffffffffffffffff1681526020018381526020018261ffff1661ffff168152602001935050505060405180910390a160019150509392505050565b6000600560008361ffff1661ffff168152602001908152602001600020600001549050919050565b6000806000806032868690501115151561090257600080fd5b600091505b858590508260ff161015610a9d5761093986868460ff16818110151561092957fe5b9050602002013561ffff166110ca565b151561094457600080fd5b6109693387878560ff16818110151561095957fe5b9050602002013561ffff16610cce565b905061097e81846116ab90919063ffffffff16565b92506005600087878560ff16818110151561099557fe5b9050602002013561ffff1661ffff1661ffff16815260200190815260200160002060010160003373ffffffffffffffffffffffffffffffffffffffff1673ffffffffffffffffffffffffffffffffffffffff168152602001908152602001600020600090557f33a4ae6c0627280fcb7aaf7e07deb59bbce49aa4808ee5457f8622f77ab5d28c338288888660ff168181101515610a2e57fe5b9050602002013561ffff16604051808473ffffffffffffffffffffffffffffffffffffffff1673ffffffffffffffffffffffffffffffffffffffff1681526020018381526020018261ffff1661ffff168152602001935050505060405180910390a18180600101925050610907565b6000809054906101000a900473ffffffffffffffffffffffffffffffffffffffff1673ffffffffffffffffffffffffffffffffffffffff1663a9059cbb33856040518363ffffffff167c0100000000000000000000000000000000000000000000000000000000028152600401808373ffffffffffffffffffffffffffffffffffffffff1673ffffffffffffffffffffffffffffffffffffffff16815260200182815260200192505050602060405180830381600087803b158015610b6157600080fd5b505af1158015610b75573d6000803e3d6000fd5b505050506040513d6020811015610b8b57600080fd5b8101908080519060200190929190505050506001935050505092915050565b600080600060328585905011151515610bc257600080fd5b848490503410151515610bd457600080fd5b610bea85859050346116c990919063ffffffff16565b915034610c0386869050846116df90919063ffffffff16565b141515610c0c57fe5b600090505b848490508160ff161015610c5d57610c45338387878560ff168181101515610c3557fe5b9050602002013561ffff1661072a565b1515610c5057600080fd5b8080600101915050610c11565b60019250505092915050565b600080600090505b82518161ffff161015610cc457610cb5610ca685858461ffff16815181101515610c9757fe5b90602001906020020151610cce565b836116ab90919063ffffffff16565b91508080600101915050610c71565b8191505092915050565b6000806000600560008561ffff1661ffff1681526020019081526020016000209150610d688260000154610d5a6d314dc6448d9338c15b0a000000008560010160008a73ffffffffffffffffffffffffffffffffffffffff1673ffffffffffffffffffffffffffffffffffffffff168152602001908152602001600020546116df90919063ffffffff16565b6116c990919063ffffffff16565b9050610da76d314dc6448d9338c15b0a00000000610d9969152d02c7e14af6800000846116df90919063ffffffff16565b6116c990919063ffffffff16565b9250505092915050565b6000806000610dbf846110ca565b1515610e33576040517f08c379a000000000000000000000000000000000000000000000000000000000815260040180806020018281038252601c8152602001807f64617920686173206e6f742066696e69736865642066756e64696e670000000081525060200191505060405180910390fd5b600560008561ffff1661ffff1681526020019081526020016000209150610e5a3385610cce565b90508160010160003373ffffffffffffffffffffffffffffffffffffffff1673ffffffffffffffffffffffffffffffffffffffff168152602001908152602001600020600090556000809054906101000a900473ffffffffffffffffffffffffffffffffffffffff1673ffffffffffffffffffffffffffffffffffffffff1663a9059cbb33836040518363ffffffff167c0100000000000000000000000000000000000000000000000000000000028152600401808373ffffffffffffffffffffffffffffffffffffffff1673ffffffffffffffffffffffffffffffffffffffff16815260200182815260200192505050602060405180830381600087803b158015610f6557600080fd5b505af1158015610f79573d6000803e3d6000fd5b505050506040513d6020811015610f8f57600080fd5b8101908080519060200190929190505050507f33a4ae6c0627280fcb7aaf7e07deb59bbce49aa4808ee5457f8622f77ab5d28c338286604051808473ffffffffffffffffffffffffffffffffffffffff1673ffffffffffffffffffffffffffffffffffffffff1681526020018381526020018261ffff1661ffff168152602001935050505060405180910390a1600192505050919050565b600080600454118015611043575061016d61ffff168261ffff16105b9050919050565b600260009054906101000a900473ffffffffffffffffffffffffffffffffffffffff1681565b600360009054906101000a900473ffffffffffffffffffffffffffffffffffffffff1681565b600160009054906101000a900473ffffffffffffffffffffffffffffffffffffffff1681565b69152d02c7e14af680000081565b60008161ffff166110da42611678565b61ffff16119050919050565b600080600160009054906101000a900473ffffffffffffffffffffffffffffffffffffffff1673ffffffffffffffffffffffffffffffffffffffff163373ffffffffffffffffffffffffffffffffffffffff1614151561114557600080fd5b600060045414151561115657600080fd5b61117561016d69152d02c7e14af68000006116df90919063ffffffff16565b90506000809054906101000a900473ffffffffffffffffffffffffffffffffffffffff1673ffffffffffffffffffffffffffffffffffffffff166323b872dd3330846040518463ffffffff167c0100000000000000000000000000000000000000000000000000000000028152600401808473ffffffffffffffffffffffffffffffffffffffff1673ffffffffffffffffffffffffffffffffffffffff1681526020018373ffffffffffffffffffffffffffffffffffffffff1673ffffffffffffffffffffffffffffffffffffffff1681526020018281526020019350505050602060405180830381600087803b15801561126f57600080fd5b505af1158015611283573d6000803e3d6000fd5b505050506040513d602081101561129957600080fd5b810190808051906020019092919050505015156112b557600080fd5b426004819055507f05a4a5db99c093a62c31c3cf60de62acb215e12a96373569d8ffe3443bce323533600260009054906101000a900473ffffffffffffffffffffffffffffffffffffffff16600360009054906101000a900473ffffffffffffffffffffffffffffffffffffffff1684604051808573ffffffffffffffffffffffffffffffffffffffff1673ffffffffffffffffffffffffffffffffffffffff1681526020018473ffffffffffffffffffffffffffffffffffffffff1673ffffffffffffffffffffffffffffffffffffffff1681526020018373ffffffffffffffffffffffffffffffffffffffff1673ffffffffffffffffffffffffffffffffffffffff16815260200182815260200194505050505060405180910390a1600191505090565b60056020528060005260406000206000915090508060000154905081565b60045481565b600061140c33348461072a565b151561141757600080fd5b60019050919050565b600080600160009054906101000a900473ffffffffffffffffffffffffffffffffffffffff1673ffffffffffffffffffffffffffffffffffffffff163373ffffffffffffffffffffffffffffffffffffffff1614151561147f57600080fd5b6114936002846116c990919063ffffffff16565b9050826114aa6002836116df90919063ffffffff16565b1415156114b357fe5b600260009054906101000a900473ffffffffffffffffffffffffffffffffffffffff1673ffffffffffffffffffffffffffffffffffffffff166108fc829081150290604051600060405180830381858888f1935050505015801561151b573d6000803e3d6000fd5b50600360009054906101000a900473ffffffffffffffffffffffffffffffffffffffff1673ffffffffffffffffffffffffffffffffffffffff166108fc829081150290604051600060405180830381858888f19350505050158015611584573d6000803e3d6000fd5b507fe56726172348e334b8fff79c722777489b247ed7148d44486ab67b65c1a54f1f33846115b142611678565b604051808473ffffffffffffffffffffffffffffffffffffffff1673ffffffffffffffffffffffffffffffffffffffff1681526020018381526020018261ffff1661ffff168152602001935050505060405180910390a16001915050919050565b6000600560008461ffff1661ffff16815260200190815260200160002060010160008373ffffffffffffffffffffffffffffffffffffffff1673ffffffffffffffffffffffffffffffffffffffff16815260200190815260200160002054905092915050565b60006116a4620151806116966004548561171a90919063ffffffff16565b6116c990919063ffffffff16565b9050919050565b60008082840190508381101515156116bf57fe5b8091505092915050565b600081838115156116d657fe5b04905092915050565b60008060008414156116f45760009150611713565b828402905082848281151561170557fe5b0414151561170f57fe5b8091505b5092915050565b600082821115151561172857fe5b8183039050929150505600a165627a7a72305820a37e04335a77c6d2c02e68bc0871c64280a141005a66117f5ca81e2a98d2cca70029",
  "source": "pragma solidity 0.4.24;\n\nimport './SafeMath.sol';\nimport './ERC20Interface.sol';\n\n\ncontract TokenSale {\n  using SafeMath for *;\n\n  ERC20Interface mybToken;\n\n  struct Day {\n    uint totalWeiContributed;\n    mapping (address => uint) weiContributed;\n  }\n\n\n  // Constants\n  uint constant internal scalingFactor = 10e32;\n  uint constant public tokensPerDay = uint(10e22);\n\n  // MyBit addresses\n  address public owner;\n  address public mybitFoundation;\n  address public developmentFund;\n\n  uint public start;      // The timestamp when sale starts\n\n  mapping (uint16 => Day) public day;\n\n  constructor(address _mybToken, address _mybFoundation, address _developmentFund)\n  public {\n    mybToken = ERC20Interface(_mybToken);\n    developmentFund = _developmentFund;\n    mybitFoundation = _mybFoundation;\n    owner = msg.sender;\n  }\n\n  // @notice owner can start the sale by transferring in required amount of MYB\n  // @dev the start time is used to determine which day the sale is on (day 0 = first day)\n  function startSale()\n  external\n  onlyOwner\n  returns (bool){\n    require(start == 0);\n    uint saleAmount = tokensPerDay.mul(365);\n    require(mybToken.transferFrom(msg.sender, address(this), saleAmount));\n    start = now;\n    emit LogSaleStarted(msg.sender, mybitFoundation, developmentFund, saleAmount);\n    return true;\n  }\n\n  // @notice contributor can contribute wei to sale on any current/future _day\n  // @dev only accepts contributions between days 0 - 365\n  function fund(uint16 _day)\n  payable\n  public\n  returns (bool) {\n      require(addContribution(msg.sender, msg.value, _day));\n      return true;\n  }\n\n  // @notice Send an index of days and your payment will be divided equally among them\n  // @dev WEI sent must divide equally into number of days.\n  function batchFund(uint16[] _day)\n  payable\n  external\n  returns (bool) {\n    require(_day.length <= 50);\n    require(msg.value >= _day.length);   // need at least 1 wei per day\n    uint amountPerDay = msg.value.div(_day.length);\n    assert (amountPerDay.mul(_day.length) == msg.value);   // Don't allow any rounding error\n    for (uint8 i = 0; i < _day.length; i++){\n      require(addContribution(msg.sender, amountPerDay, _day[i]));\n    }\n    return true;\n  }\n\n\n  // @notice Updates claimableTokens, sends all wei to the token holder\n  function withdraw(uint16 _day)\n  external\n  returns (bool) {\n      require(dayFinished(_day), \"day has not finished funding\");\n      Day storage thisDay = day[_day];\n      uint amount = getTokensOwed(msg.sender, _day);\n      delete thisDay.weiContributed[msg.sender];\n      mybToken.transfer(msg.sender, amount);\n      emit LogTokensCollected(msg.sender, amount, _day);\n      return true;\n  }\n\n  // @notice Updates claimableTokens, sends all tokens to contributor from previous days\n  // @param (uint16[]) _day, list of token sale days msg.sender contributed wei towards\n  function batchWithdraw(uint16[] _day)\n  external\n  returns (bool) {\n    uint amount;\n    require(_day.length <= 50);\n    for (uint8 i = 0; i < _day.length; i++){\n      require(dayFinished(_day[i]));\n      uint amountToAdd = getTokensOwed(msg.sender, _day[i]);\n      amount = amount.add(amountToAdd);\n      delete day[_day[i]].weiContributed[msg.sender];\n      emit LogTokensCollected(msg.sender, amountToAdd, _day[i]);\n    }\n    mybToken.transfer(msg.sender, amount);\n    return true;\n  }\n\n  // @notice owner can withdraw funds to the foundation wallet and ddf wallet\n  // @param (uint) _amount, The amount of wei to withdraw\n  // @dev must put in an _amount equally divisible by 2\n  function foundationWithdraw(uint _amount)\n  external\n  onlyOwner\n  returns (bool){\n    uint half = _amount.div(2);\n    assert (half.mul(2) == _amount);   // check for rounding error\n    mybitFoundation.transfer(half);\n    developmentFund.transfer(half);\n    emit LogFoundationWithdraw(msg.sender, _amount, dayFor(now));\n    return true;\n  }\n\n  // @notice updates ledger with the contribution from _investor\n  // @param (address) _investor: The sender of WEI to the contract\n  // @param (uint) _amount: The amount of WEI to add to _day\n  // @param (uint16) _day: The day to fund\n  function addContribution(address _investor, uint _amount, uint16 _day)\n  internal\n  returns (bool) {\n    require(_amount > 0);\n    require(duringSale(_day));\n    require(!dayFinished(_day));\n    Day storage today = day[_day];\n    today.totalWeiContributed = today.totalWeiContributed.add(_amount);\n    today.weiContributed[_investor] = today.weiContributed[_investor].add(_amount);\n    emit LogTokensPurchased(_investor, _amount, _day);\n    return true;\n  }\n\n  // @notice Calculates how many tokens user is owed. (new income + claimableTokens) / 10**32\n  function getTokensOwed(address _contributor, uint16 _day)\n  public\n  view\n  returns (uint) {\n      Day storage thisDay = day[_day];\n      uint percentage = thisDay.weiContributed[_contributor].mul(scalingFactor).div(thisDay.totalWeiContributed);\n      return percentage.mul(tokensPerDay).div(scalingFactor);\n  }\n\n  // @notice gets the total amount of mybit owed to the contributor\n  function getTotalTokensOwed(address _contributor, uint16[] _days)\n  public\n  view\n  returns (uint amount) {\n    for (uint16 i = 0; i < _days.length; i++){\n      amount = amount.add(getTokensOwed(_contributor, _days[i]));\n    }\n    return amount;\n  }\n\n  // @notice returns the amount of wei contributed by _contributor on _day\n  function getWeiContributed(uint16 _day, address _contributor)\n  public\n  view\n  returns (uint) {\n    return day[_day].weiContributed[_contributor];\n  }\n\n  function getTotalWeiContributed(uint16 _day)\n  public\n  view\n  returns (uint) {\n    return day[_day].totalWeiContributed;\n  }\n\n  // @notice return the day associated with this timestamp\n  function dayFor(uint _timestamp)\n  public\n  view\n  returns (uint16) {\n      return uint16(_timestamp.sub(start).div(86400));\n  }\n\n  // @notice returns true if _day is finished\n  function dayFinished(uint16 _day)\n  public\n  view\n  returns (bool) {\n    return dayFor(now) > _day;\n  }\n\n  // @notice reverts if the current day isn't less than 365\n  function duringSale(uint16 _day)\n  public\n  view\n  returns (bool){\n    return (start > 0 && _day < uint16(365));\n  }\n\n\n  // @notice return the current day\n  function currentDay()\n  public\n  view\n  returns (uint16) {\n    return dayFor(now);\n  }\n\n  // @notice Fallback function: Purchases contributor stake in the tokens for the current day\n  function ()\n  external\n  payable {\n      require(addContribution(msg.sender, msg.value, currentDay()));\n  }\n\n\n\n  // @notice only owner address can call\n  modifier onlyOwner {\n    require(msg.sender == owner);\n    _;\n  }\n\n  event LogSaleStarted(address _owner, address _mybFoundation, address _developmentFund, uint _totalMYB);\n  event LogFoundationWithdraw(address _mybFoundation, uint _amount, uint16 _day);\n  event LogTokensPurchased(address _contributor, uint _amount, uint16 _day);\n  event LogTokensCollected(address _contributor, uint _amount, uint16 _day);\n\n}\n",
  "sourcePath": "/home/dog/code/mybit/tokensale/contracts/TokenSale.sol",
  "compiler": {
    "name": "solc",
    "version": "0.4.24+commit.e67f0147.Emscripten.clang"
  },
  "schemaVersion": "2.0.1",
  "updatedAt": "2018-11-19T07:56:30.953Z"
}