{
  "contractName": "TokenSale",
  "abi": [
    {
      "constant": true,
      "inputs": [],
      "name": "owner",
      "outputs": [
        {
          "name": "",
          "type": "address"
        }
      ],
      "payable": false,
      "stateMutability": "view",
      "type": "function"
    },
    {
      "constant": true,
      "inputs": [],
      "name": "tokensPerDay",
      "outputs": [
        {
          "name": "",
          "type": "uint256"
        }
      ],
      "payable": false,
      "stateMutability": "view",
      "type": "function"
    },
    {
      "constant": true,
      "inputs": [
        {
          "name": "",
          "type": "uint16"
        }
      ],
      "name": "day",
      "outputs": [
        {
          "name": "weiPerToken",
          "type": "uint256"
        },
        {
          "name": "dayIncome",
          "type": "uint256"
        }
      ],
      "payable": false,
      "stateMutability": "view",
      "type": "function"
    },
    {
      "constant": true,
      "inputs": [],
      "name": "start",
      "outputs": [
        {
          "name": "",
          "type": "uint256"
        }
      ],
      "payable": false,
      "stateMutability": "view",
      "type": "function"
    },
    {
      "inputs": [
        {
          "name": "_mybToken",
          "type": "address"
        }
      ],
      "payable": false,
      "stateMutability": "nonpayable",
      "type": "constructor"
    },
    {
      "payable": false,
      "stateMutability": "nonpayable",
      "type": "fallback"
    },
    {
      "anonymous": false,
      "inputs": [
        {
          "indexed": false,
          "name": "_contributor",
          "type": "address"
        },
        {
          "indexed": false,
          "name": "_amount",
          "type": "uint256"
        },
        {
          "indexed": false,
          "name": "_day",
          "type": "uint16"
        },
        {
          "indexed": false,
          "name": "weiPerToken",
          "type": "uint256"
        },
        {
          "indexed": false,
          "name": "weiContributed",
          "type": "uint256"
        }
      ],
      "name": "LogTokensPurchased",
      "type": "event"
    },
    {
      "anonymous": false,
      "inputs": [
        {
          "indexed": false,
          "name": "_contributor",
          "type": "address"
        },
        {
          "indexed": false,
          "name": "_amount",
          "type": "uint256"
        },
        {
          "indexed": false,
          "name": "_day",
          "type": "uint16"
        },
        {
          "indexed": false,
          "name": "weiPerToken",
          "type": "uint256"
        },
        {
          "indexed": false,
          "name": "weiContributed",
          "type": "uint256"
        }
      ],
      "name": "LogTokensCollected",
      "type": "event"
    },
    {
      "constant": false,
      "inputs": [
        {
          "name": "_totalAmount",
          "type": "uint256"
        }
      ],
      "name": "startSale",
      "outputs": [
        {
          "name": "",
          "type": "bool"
        }
      ],
      "payable": false,
      "stateMutability": "nonpayable",
      "type": "function"
    },
    {
      "constant": false,
      "inputs": [
        {
          "name": "_day",
          "type": "uint16"
        }
      ],
      "name": "fund",
      "outputs": [],
      "payable": true,
      "stateMutability": "payable",
      "type": "function"
    },
    {
      "constant": false,
      "inputs": [
        {
          "name": "_day",
          "type": "uint16"
        }
      ],
      "name": "withdraw",
      "outputs": [
        {
          "name": "",
          "type": "bool"
        }
      ],
      "payable": false,
      "stateMutability": "nonpayable",
      "type": "function"
    },
    {
      "constant": false,
      "inputs": [
        {
          "name": "_day",
          "type": "uint16[]"
        }
      ],
      "name": "batchWithdraw",
      "outputs": [
        {
          "name": "",
          "type": "bool"
        }
      ],
      "payable": false,
      "stateMutability": "nonpayable",
      "type": "function"
    },
    {
      "constant": true,
      "inputs": [
        {
          "name": "_user",
          "type": "address"
        },
        {
          "name": "_day",
          "type": "uint16"
        }
      ],
      "name": "getTokensForContribution",
      "outputs": [
        {
          "name": "",
          "type": "uint256"
        }
      ],
      "payable": false,
      "stateMutability": "view",
      "type": "function"
    },
    {
      "constant": true,
      "inputs": [
        {
          "name": "_user",
          "type": "address"
        },
        {
          "name": "_day",
          "type": "uint16"
        }
      ],
      "name": "getUnclaimedAmount",
      "outputs": [
        {
          "name": "",
          "type": "uint256"
        }
      ],
      "payable": false,
      "stateMutability": "view",
      "type": "function"
    },
    {
      "constant": true,
      "inputs": [
        {
          "name": "_timestamp",
          "type": "uint256"
        }
      ],
      "name": "dayFor",
      "outputs": [
        {
          "name": "",
          "type": "uint16"
        }
      ],
      "payable": false,
      "stateMutability": "view",
      "type": "function"
    }
  ],
  "bytecode": "0x608060405234801561001057600080fd5b506040516020806113f38339810180604052810190808051906020019092919050505080600160006101000a81548173ffffffffffffffffffffffffffffffffffffffff021916908373ffffffffffffffffffffffffffffffffffffffff160217905550336000806101000a81548173ffffffffffffffffffffffffffffffffffffffff021916908373ffffffffffffffffffffffffffffffffffffffff1602179055505061132f806100c46000396000f3006080604052600436106100af576000357c0100000000000000000000000000000000000000000000000000000000900463ffffffff1680630e3ab61d146100c1578063132e8bee146101065780633d97283914610184578063410646e0146101cd57806341a84a0d146102325780638da5cb5b1461029757806390497c66146102ee578063bd7255b014610319578063be9a655514610365578063ce347a6514610390578063d90c1759146103b4575b3480156100bb57600080fd5b50600080fd5b3480156100cd57600080fd5b506100ec600480360381019080803590602001909291905050506103fd565b604051808215151515815260200191505060405180910390f35b34801561011257600080fd5b5061016a600480360381019080803590602001908201803590602001908080602002602001604051908101604052809392919081815260200183836020028082843782019150505050505091929192905050506105c8565b604051808215151515815260200191505060405180910390f35b34801561019057600080fd5b506101b3600480360381019080803561ffff169060200190929190505050610943565b604051808215151515815260200191505060405180910390f35b3480156101d957600080fd5b5061021c600480360381019080803573ffffffffffffffffffffffffffffffffffffffff169060200190929190803561ffff169060200190929190505050610d38565b6040518082815260200191505060405180910390f35b34801561023e57600080fd5b50610281600480360381019080803573ffffffffffffffffffffffffffffffffffffffff169060200190929190803561ffff169060200190929190505050610dd9565b6040518082815260200191505060405180910390f35b3480156102a357600080fd5b506102ac610eb3565b604051808273ffffffffffffffffffffffffffffffffffffffff1673ffffffffffffffffffffffffffffffffffffffff16815260200191505060405180910390f35b3480156102fa57600080fd5b50610303610ed8565b6040518082815260200191505060405180910390f35b34801561032557600080fd5b50610348600480360381019080803561ffff169060200190929190505050610ede565b604051808381526020018281526020019250505060405180910390f35b34801561037157600080fd5b5061037a610f02565b6040518082815260200191505060405180910390f35b6103b2600480360381019080803561ffff169060200190929190505050610f08565b005b3480156103c057600080fd5b506103df6004803603810190808035906020019092919050505061113c565b604051808261ffff1661ffff16815260200191505060405180910390f35b60008060009054906101000a900473ffffffffffffffffffffffffffffffffffffffff1673ffffffffffffffffffffffffffffffffffffffff163373ffffffffffffffffffffffffffffffffffffffff1614151561045a57600080fd5b600160009054906101000a900473ffffffffffffffffffffffffffffffffffffffff1673ffffffffffffffffffffffffffffffffffffffff166323b872dd3330856040518463ffffffff167c0100000000000000000000000000000000000000000000000000000000028152600401808473ffffffffffffffffffffffffffffffffffffffff1673ffffffffffffffffffffffffffffffffffffffff1681526020018373ffffffffffffffffffffffffffffffffffffffff1673ffffffffffffffffffffffffffffffffffffffff1681526020018281526020019350505050602060405180830381600087803b15801561055357600080fd5b505af1158015610567573d6000803e3d6000fd5b505050506040513d602081101561057d57600080fd5b8101908080519060200190929190505050151561059957600080fd5b6105b261016d61ffff168361116f90919063ffffffff16565b6003819055504260028190555060019050919050565b6000806000806000606486511015156105e057600080fd5b600092505b855183101561082b5761060e86848151811015156105ff57fe5b90602001906020020151611185565b151561061957600080fd5b61063a33878581518110151561062b57fe5b906020019060200201516111ae565b151561064557600080fd5b60046000878581518110151561065757fe5b9060200190602002015161ffff1661ffff16815260200190815260200160002091506106db6d04ee2d6d415b85acef81000000008360040160003373ffffffffffffffffffffffffffffffffffffffff1673ffffffffffffffffffffffffffffffffffffffff1681526020019081526020016000205461116f90919063ffffffff16565b90506106f0818561129190919063ffffffff16565b93508160040160003373ffffffffffffffffffffffffffffffffffffffff1673ffffffffffffffffffffffffffffffffffffffff168152602001908152602001600020600090557f48c7aa50471145cd05089dd46395e01d5310c0fc20294516aa57d7c9241010f23382888681518110151561076857fe5b9060200190602002015185600001548660030160003373ffffffffffffffffffffffffffffffffffffffff1673ffffffffffffffffffffffffffffffffffffffff16815260200190815260200160002054604051808673ffffffffffffffffffffffffffffffffffffffff1673ffffffffffffffffffffffffffffffffffffffff1681526020018581526020018461ffff1661ffff1681526020018381526020018281526020019550505050505060405180910390a182806001019350506105e5565b600160009054906101000a900473ffffffffffffffffffffffffffffffffffffffff1673ffffffffffffffffffffffffffffffffffffffff1663a9059cbb33866040518363ffffffff167c0100000000000000000000000000000000000000000000000000000000028152600401808373ffffffffffffffffffffffffffffffffffffffff1673ffffffffffffffffffffffffffffffffffffffff16815260200182815260200192505050602060405180830381600087803b1580156108f057600080fd5b505af1158015610904573d6000803e3d6000fd5b505050506040513d602081101561091a57600080fd5b8101908080519060200190929190505050151561093657600080fd5b6001945050505050919050565b600080600061095184611185565b15156109c5576040517f08c379a00000000000000000000000000000000000000000000000000000000081526004018080602001828103825260108152602001807f446179206e6f742066696e69736865640000000000000000000000000000000081525060200191505060405180910390fd5b6109cf33856111ae565b1515610a43576040517f08c379a000000000000000000000000000000000000000000000000000000000815260040180806020018281038252601e8152602001807f43616e6e6f742075706461746520636c61696d61626c6520746f6b656e73000081525060200191505060405180910390fd5b600460008561ffff1661ffff16815260200190815260200160002091508160040160003373ffffffffffffffffffffffffffffffffffffffff1673ffffffffffffffffffffffffffffffffffffffff1681526020019081526020016000205490508160040160003373ffffffffffffffffffffffffffffffffffffffff1673ffffffffffffffffffffffffffffffffffffffff16815260200190815260200160002060009055600160009054906101000a900473ffffffffffffffffffffffffffffffffffffffff1673ffffffffffffffffffffffffffffffffffffffff1663a9059cbb33836040518363ffffffff167c0100000000000000000000000000000000000000000000000000000000028152600401808373ffffffffffffffffffffffffffffffffffffffff1673ffffffffffffffffffffffffffffffffffffffff16815260200182815260200192505050602060405180830381600087803b158015610bae57600080fd5b505af1158015610bc2573d6000803e3d6000fd5b505050506040513d6020811015610bd857600080fd5b81019080805190602001909291905050501515610c5d576040517f08c379a00000000000000000000000000000000000000000000000000000000081526004018080602001828103825260168152602001807f43616e6e6f74207472616e7366657220746f6b656e730000000000000000000081525060200191505060405180910390fd5b7f48c7aa50471145cd05089dd46395e01d5310c0fc20294516aa57d7c9241010f233828685600001548660030160003373ffffffffffffffffffffffffffffffffffffffff1673ffffffffffffffffffffffffffffffffffffffff16815260200190815260200160002054604051808673ffffffffffffffffffffffffffffffffffffffff1673ffffffffffffffffffffffffffffffffffffffff1681526020018581526020018461ffff1661ffff1681526020018381526020018281526020019550505050505060405180910390a1600192505050919050565b6000610dd16d04ee2d6d415b85acef8100000000610dc3600460008661ffff1661ffff16815260200190815260200160002060040160008773ffffffffffffffffffffffffffffffffffffffff1673ffffffffffffffffffffffffffffffffffffffff16815260200190815260200160002054610db58787610dd9565b61129190919063ffffffff16565b61116f90919063ffffffff16565b905092915050565b6000806000600460008561ffff1661ffff1681526020019081526020016000209150610e538260020160008773ffffffffffffffffffffffffffffffffffffffff1673ffffffffffffffffffffffffffffffffffffffff1681526020019081526020016000205483600001546112af90919063ffffffff16565b9050610ea98260030160008773ffffffffffffffffffffffffffffffffffffffff1673ffffffffffffffffffffffffffffffffffffffff16815260200190815260200160002054826112c890919063ffffffff16565b9250505092915050565b6000809054906101000a900473ffffffffffffffffffffffffffffffffffffffff1681565b60035481565b60046020528060005260406000206000915090508060000154908060010154905082565b60025481565b600061016d61ffff16610f1a4261113c565b61ffff16108015610f2d57506000600254115b1515610f3857600080fd5b8161ffff16610f464261113c565b61ffff1611151515610f5757600080fd5b600460008361ffff1661ffff1681526020019081526020016000209050610f8b34826001015461129190919063ffffffff16565b8160010181905550610fc7600354610fb968056bc75e2d6310000084600101546112c890919063ffffffff16565b61116f90919063ffffffff16565b8160000181905550611023348260030160003373ffffffffffffffffffffffffffffffffffffffff1673ffffffffffffffffffffffffffffffffffffffff1681526020019081526020016000205461129190919063ffffffff16565b8160030160003373ffffffffffffffffffffffffffffffffffffffff1673ffffffffffffffffffffffffffffffffffffffff168152602001908152602001600020819055507f4dc83213fabf100be6b05af2cfc8d6bb893ebf89314fc647d8aa37e528c9924533348484600001548560030160003373ffffffffffffffffffffffffffffffffffffffff1673ffffffffffffffffffffffffffffffffffffffff16815260200190815260200160002054604051808673ffffffffffffffffffffffffffffffffffffffff1673ffffffffffffffffffffffffffffffffffffffff1681526020018581526020018461ffff1661ffff1681526020018381526020018281526020019550505050505060405180910390a15050565b60006111686201518061115a600254856112af90919063ffffffff16565b61116f90919063ffffffff16565b9050919050565b6000818381151561117c57fe5b04905092915050565b60008161ffff166111954261113c565b61ffff161115156111a557600080fd5b60019050919050565b600080600460008461ffff1661ffff1681526020019081526020016000209050611241816000015461123368056bc75e2d631000008460030160003373ffffffffffffffffffffffffffffffffffffffff1673ffffffffffffffffffffffffffffffffffffffff168152602001908152602001600020546112c890919063ffffffff16565b61116f90919063ffffffff16565b8160040160003373ffffffffffffffffffffffffffffffffffffffff1673ffffffffffffffffffffffffffffffffffffffff16815260200190815260200160002081905550600191505092915050565b60008082840190508381101515156112a557fe5b8091505092915050565b60008282111515156112bd57fe5b818303905092915050565b60008060008414156112dd57600091506112fc565b82840290508284828115156112ee57fe5b041415156112f857fe5b8091505b50929150505600a165627a7a723058202bfe7b2146e3b674f4bb7b2ecc55ab935d9c9172a2d5bf2056fed2cf76a45b570029",
  "source": "pragma solidity 0.4.24;\n\nimport './SafeMath.sol';\nimport './ERC20Interface.sol';\n\n// TODO: add mechanism for situation nobody funds in a day\ncontract TokenSale {\n  using SafeMath for *;\n\n\n  struct Day {\n    uint weiPerToken;       // // amount of wei received per MYB token\n    uint dayIncome;\n    mapping (address => uint) previousWeiPerToken;\n    mapping (address => uint) weiContributed;\n    mapping (address => uint) claimableTokens;\n  }\n\n  address public owner;\n  uint constant scalingFactor = 1e32;\n  uint constant decimals = 100000000000000000000;\n  uint16 constant numDays = uint16(365);\n  ERC20Interface mybToken;\n\n  uint public start;\n  uint public tokensPerDay;\n\n  mapping (uint16 => Day) public day;\n\n  constructor(address _mybToken)\n  public {\n    mybToken = ERC20Interface(_mybToken);\n    owner = msg.sender;\n\n  }\n\n  function startSale(uint _totalAmount)\n  external\n  returns (bool){\n    require(msg.sender == owner);\n    // uint totalAmount = tokensPerDay.mul(356);\n    require(mybToken.transferFrom(msg.sender, address(this), _totalAmount));\n    tokensPerDay = _totalAmount.div(numDays);\n    start = now;\n    return true;\n  }\n\n  function fund(uint16 _day)\n  payable\n  duringSale\n  public {\n      require(dayFor(now) <= _day);\n      Day storage today = day[_day];\n      today.dayIncome = today.dayIncome.add(msg.value);\n      //today.weiPerToken = today.weiPerToken.add(msg.value.mul(scalingFactor).div(tokensPerDay));\n      today.weiPerToken = today.dayIncome.mul(decimals).div(tokensPerDay);\n      today.weiContributed[msg.sender] = today.weiContributed[msg.sender].add(msg.value);\n      emit LogTokensPurchased(msg.sender, msg.value, _day, today.weiPerToken, today.weiContributed[msg.sender]);\n  }\n\n\n  // @notice Updates claimableTokens, sends all wei to the token holder\n  function withdraw(uint16 _day)\n  public\n  returns (bool) {\n      require(dayFinished(_day), 'Day not finished');\n      require(updateclaimableTokens(msg.sender, _day), 'Cannot update claimable tokens');\n      Day storage thisDay = day[_day];\n      uint _amount = thisDay.claimableTokens[msg.sender];\n      delete thisDay.claimableTokens[msg.sender];\n      require(mybToken.transfer(msg.sender, _amount), 'Cannot transfer tokens');\n      emit LogTokensCollected(msg.sender, _amount, _day, thisDay.weiPerToken, thisDay.weiContributed[msg.sender]);\n      return true;\n  }\n\n  // @notice Updates claimableTokens, sends all wei to the token holder\n  function batchWithdraw(uint16[] _day)\n  public\n  returns (bool) {\n    uint amount;\n    require(_day.length < 100);\n      for (uint i = 0; i < _day.length; i++){\n        require(dayFinished(_day[i]));\n        require(updateclaimableTokens(msg.sender, _day[i]));\n        Day storage thisDay = day[_day[i]];\n        uint amountToAdd = thisDay.claimableTokens[msg.sender].div(scalingFactor);\n        amount = amount.add(amountToAdd);\n        delete thisDay.claimableTokens[msg.sender];\n        emit LogTokensCollected(msg.sender, amountToAdd, _day[i], thisDay.weiPerToken, thisDay.weiContributed[msg.sender]);\n      }\n      require(mybToken.transfer(msg.sender, amount));\n      return true;\n  }\n\n  // @notice Calculates how much value _user holds\n  function getTokensForContribution(address _user, uint16 _day)\n  public\n  view\n  returns (uint) {\n      Day storage thisDay = day[_day];\n      uint weiPerTokenDifference = thisDay.weiPerToken.sub(thisDay.previousWeiPerToken[_user]);\n      return weiPerTokenDifference.mul(thisDay.weiContributed[_user]);\n  }\n\n  // @notice Calculates how much wei user is owed. (new income + claimableTokens) / 10**32\n  function getUnclaimedAmount(address _user, uint16 _day)\n  public\n  view\n  returns (uint) {\n      return (getTokensForContribution(_user, _day).add(day[_day].claimableTokens[_user]).div(scalingFactor));\n  }\n\n  // @notice update the amount claimable by this user\n  function updateclaimableTokens(address _user, uint16 _day)\n  internal\n  returns (bool) {\n      Day storage thisDay = day[_day];\n      thisDay.claimableTokens[msg.sender] = thisDay.weiContributed[msg.sender].mul(decimals).div(thisDay.weiPerToken);\n      //thisDay.claimableTokens[_user] = thisDay.claimableTokens[_user].add(getTokensForContribution(_user, _day));\n      //thisDay.previousWeiPerToken[_user] = thisDay.weiPerToken;\n      return true;\n  }\n\n  // @notice return the day associated with this timestamp\n  function dayFor(uint _timestamp)\n  public\n  view\n  returns (uint16) {\n      return uint16(_timestamp.sub(start).div(24 hours));\n  }\n\n  // @notice reverts if the current day is greater than 365\n  modifier duringSale() {\n    require(dayFor(now) < uint16(365) && start > 0);\n    _;\n  }\n\n  // @notice returns true if _day is finished\n  function dayFinished(uint16 _day)\n  internal\n  view\n  returns (bool) {\n    require(dayFor(now) > _day);\n    return true;\n  }\n\n  // @notice Fallback function: Accepts Ether and updates ledger (issues dividends)\n  function ()\n  public {\n      revert();\n  }\n\n  event LogTokensPurchased(address _contributor, uint _amount, uint16 _day, uint weiPerToken, uint weiContributed);\n  event LogTokensCollected(address _contributor, uint _amount, uint16 _day, uint weiPerToken, uint weiContributed);\n\n}\n",
  "sourcePath": "/home/peter/Documents/Work/MyBit/MyBit-Tokensale.tech/contracts/TokenSale.sol",
  "compiler": {
    "name": "solc",
    "version": "0.4.24+commit.e67f0147.Emscripten.clang"
  },
  "schemaVersion": "2.0.1",
  "updatedAt": "2018-10-25T05:12:34.295Z"
}