{
  "contractName": "TokenSale",
  "abi": [
    {
      "constant": true,
      "inputs": [],
      "name": "numDays",
      "outputs": [
        {
          "name": "",
          "type": "uint16"
        }
      ],
      "payable": false,
      "stateMutability": "view",
      "type": "function"
    },
    {
      "constant": true,
      "inputs": [],
      "name": "mybitFoundation",
      "outputs": [
        {
          "name": "",
          "type": "address"
        }
      ],
      "payable": false,
      "stateMutability": "view",
      "type": "function"
    },
    {
      "constant": true,
      "inputs": [],
      "name": "developmentFund",
      "outputs": [
        {
          "name": "",
          "type": "address"
        }
      ],
      "payable": false,
      "stateMutability": "view",
      "type": "function"
    },
    {
      "constant": true,
      "inputs": [],
      "name": "owner",
      "outputs": [
        {
          "name": "",
          "type": "address"
        }
      ],
      "payable": false,
      "stateMutability": "view",
      "type": "function"
    },
    {
      "constant": true,
      "inputs": [],
      "name": "tokensPerDay",
      "outputs": [
        {
          "name": "",
          "type": "uint256"
        }
      ],
      "payable": false,
      "stateMutability": "view",
      "type": "function"
    },
    {
      "constant": true,
      "inputs": [
        {
          "name": "",
          "type": "uint16"
        }
      ],
      "name": "day",
      "outputs": [
        {
          "name": "totalWeiContributed",
          "type": "uint256"
        }
      ],
      "payable": false,
      "stateMutability": "view",
      "type": "function"
    },
    {
      "constant": true,
      "inputs": [],
      "name": "start",
      "outputs": [
        {
          "name": "",
          "type": "uint256"
        }
      ],
      "payable": false,
      "stateMutability": "view",
      "type": "function"
    },
    {
      "inputs": [
        {
          "name": "_mybToken",
          "type": "address"
        },
        {
          "name": "_mybFoundation",
          "type": "address"
        },
        {
          "name": "_developmentFund",
          "type": "address"
        }
      ],
      "payable": false,
      "stateMutability": "nonpayable",
      "type": "constructor"
    },
    {
      "payable": true,
      "stateMutability": "payable",
      "type": "fallback"
    },
    {
      "anonymous": false,
      "inputs": [
        {
          "indexed": false,
          "name": "_owner",
          "type": "address"
        },
        {
          "indexed": false,
          "name": "_mybFoundation",
          "type": "address"
        },
        {
          "indexed": false,
          "name": "_developmentFund",
          "type": "address"
        },
        {
          "indexed": false,
          "name": "_totalMYB",
          "type": "uint256"
        }
      ],
      "name": "LogSaleStarted",
      "type": "event"
    },
    {
      "anonymous": false,
      "inputs": [
        {
          "indexed": false,
          "name": "_mybFoundation",
          "type": "address"
        },
        {
          "indexed": false,
          "name": "_amount",
          "type": "uint256"
        },
        {
          "indexed": false,
          "name": "_day",
          "type": "uint16"
        }
      ],
      "name": "LogFoundationWithdraw",
      "type": "event"
    },
    {
      "anonymous": false,
      "inputs": [
        {
          "indexed": false,
          "name": "_contributor",
          "type": "address"
        },
        {
          "indexed": false,
          "name": "_amount",
          "type": "uint256"
        },
        {
          "indexed": false,
          "name": "_day",
          "type": "uint16"
        }
      ],
      "name": "LogTokensPurchased",
      "type": "event"
    },
    {
      "anonymous": false,
      "inputs": [
        {
          "indexed": false,
          "name": "_contributor",
          "type": "address"
        },
        {
          "indexed": false,
          "name": "_amount",
          "type": "uint256"
        },
        {
          "indexed": false,
          "name": "_day",
          "type": "uint16"
        }
      ],
      "name": "LogTokensCollected",
      "type": "event"
    },
    {
      "constant": false,
      "inputs": [],
      "name": "startSale",
      "outputs": [
        {
          "name": "",
          "type": "bool"
        }
      ],
      "payable": false,
      "stateMutability": "nonpayable",
      "type": "function"
    },
    {
      "constant": false,
      "inputs": [
        {
          "name": "_day",
          "type": "uint16"
        }
      ],
      "name": "fund",
      "outputs": [
        {
          "name": "",
          "type": "bool"
        }
      ],
      "payable": true,
      "stateMutability": "payable",
      "type": "function"
    },
    {
      "constant": false,
      "inputs": [
        {
          "name": "_day",
          "type": "uint16"
        }
      ],
      "name": "withdraw",
      "outputs": [
        {
          "name": "",
          "type": "bool"
        }
      ],
      "payable": false,
      "stateMutability": "nonpayable",
      "type": "function"
    },
    {
      "constant": false,
      "inputs": [
        {
          "name": "_day",
          "type": "uint16[]"
        }
      ],
      "name": "batchWithdraw",
      "outputs": [
        {
          "name": "",
          "type": "bool"
        }
      ],
      "payable": false,
      "stateMutability": "nonpayable",
      "type": "function"
    },
    {
      "constant": false,
      "inputs": [
        {
          "name": "_amount",
          "type": "uint256"
        }
      ],
      "name": "foundationWithdraw",
      "outputs": [
        {
          "name": "",
          "type": "bool"
        }
      ],
      "payable": false,
      "stateMutability": "nonpayable",
      "type": "function"
    },
    {
      "constant": true,
      "inputs": [
        {
          "name": "_contributor",
          "type": "address"
        },
        {
          "name": "_day",
          "type": "uint16"
        }
      ],
      "name": "getTokensOwed",
      "outputs": [
        {
          "name": "",
          "type": "uint256"
        }
      ],
      "payable": false,
      "stateMutability": "view",
      "type": "function"
    },
    {
      "constant": true,
      "inputs": [
        {
          "name": "_contributor",
          "type": "address"
        },
        {
          "name": "_days",
          "type": "uint16[]"
        }
      ],
      "name": "getTotalTokensOwed",
      "outputs": [
        {
          "name": "amount",
          "type": "uint256"
        }
      ],
      "payable": false,
      "stateMutability": "view",
      "type": "function"
    },
    {
      "constant": true,
      "inputs": [
        {
          "name": "_day",
          "type": "uint16"
        },
        {
          "name": "_contributor",
          "type": "address"
        }
      ],
      "name": "getWeiContributed",
      "outputs": [
        {
          "name": "",
          "type": "uint256"
        }
      ],
      "payable": false,
      "stateMutability": "view",
      "type": "function"
    },
    {
      "constant": true,
      "inputs": [
        {
          "name": "_timestamp",
          "type": "uint256"
        }
      ],
      "name": "dayFor",
      "outputs": [
        {
          "name": "",
          "type": "uint16"
        }
      ],
      "payable": false,
      "stateMutability": "view",
      "type": "function"
    },
    {
      "constant": true,
      "inputs": [
        {
          "name": "_day",
          "type": "uint16"
        }
      ],
      "name": "dayFinished",
      "outputs": [
        {
          "name": "",
          "type": "bool"
        }
      ],
      "payable": false,
      "stateMutability": "view",
      "type": "function"
    },
    {
      "constant": true,
      "inputs": [],
      "name": "currentDay",
      "outputs": [
        {
          "name": "",
          "type": "uint16"
        }
      ],
      "payable": false,
      "stateMutability": "view",
      "type": "function"
    }
  ],
  "bytecode": "0x608060405234801561001057600080fd5b5060405160608061177f833981018060405281019080805190602001909291908051906020019092919080519060200190929190505050826000806101000a81548173ffffffffffffffffffffffffffffffffffffffff021916908373ffffffffffffffffffffffffffffffffffffffff16021790555080600360006101000a81548173ffffffffffffffffffffffffffffffffffffffff021916908373ffffffffffffffffffffffffffffffffffffffff16021790555081600260006101000a81548173ffffffffffffffffffffffffffffffffffffffff021916908373ffffffffffffffffffffffffffffffffffffffff16021790555033600160006101000a81548173ffffffffffffffffffffffffffffffffffffffff021916908373ffffffffffffffffffffffffffffffffffffffff1602179055505050506116238061015c6000396000f3006080604052600436106100fc576000357c0100000000000000000000000000000000000000000000000000000000900463ffffffff168063132e8bee1461011a5780631ea6b97f1461016d578063279c7425146102075780633d9728391461026c5780635c9302c9146102b557806363cf070c146102e85780637db02c8b1461031b5780638a2381d7146103725780638da5cb5b146103c957806390497c66146104205780639e211ee81461044b578063b66a0e5d14610494578063bd7255b0146104c3578063be9a655514610508578063ce347a6514610533578063cedcd7701461056f578063cf5e36df146105b4578063d90c175914610619575b61010d61010842610662565b610695565b151561011857600080fd5b005b34801561012657600080fd5b5061015360048036038101908080359060200190820180359060200191909192939192939050505061083e565b604051808215151515815260200191505060405180910390f35b34801561017957600080fd5b506101f1600480360381019080803573ffffffffffffffffffffffffffffffffffffffff16906020019092919080359060200190820180359060200190808060200260200160405190810160405280939291908181526020018383602002808284378201915050505050509192919290505050610af9565b6040518082815260200191505060405180910390f35b34801561021357600080fd5b50610256600480360381019080803573ffffffffffffffffffffffffffffffffffffffff169060200190929190803561ffff169060200190929190505050610b56565b6040518082815260200191505060405180910390f35b34801561027857600080fd5b5061029b600480360381019080803561ffff169060200190929190505050610c39565b604051808215151515815260200191505060405180910390f35b3480156102c157600080fd5b506102ca610f48565b604051808261ffff1661ffff16815260200191505060405180910390f35b3480156102f457600080fd5b506102fd610f58565b604051808261ffff1661ffff16815260200191505060405180910390f35b34801561032757600080fd5b50610330610f5e565b604051808273ffffffffffffffffffffffffffffffffffffffff1673ffffffffffffffffffffffffffffffffffffffff16815260200191505060405180910390f35b34801561037e57600080fd5b50610387610f84565b604051808273ffffffffffffffffffffffffffffffffffffffff1673ffffffffffffffffffffffffffffffffffffffff16815260200191505060405180910390f35b3480156103d557600080fd5b506103de610faa565b604051808273ffffffffffffffffffffffffffffffffffffffff1673ffffffffffffffffffffffffffffffffffffffff16815260200191505060405180910390f35b34801561042c57600080fd5b50610435610fd0565b6040518082815260200191505060405180910390f35b34801561045757600080fd5b5061047a600480360381019080803561ffff169060200190929190505050610fde565b604051808215151515815260200191505060405180910390f35b3480156104a057600080fd5b506104a9610ffa565b604051808215151515815260200191505060405180910390f35b3480156104cf57600080fd5b506104f2600480360381019080803561ffff1690602001909291905050506112f3565b6040518082815260200191505060405180910390f35b34801561051457600080fd5b5061051d611311565b6040518082815260200191505060405180910390f35b610555600480360381019080803561ffff169060200190929190505050610695565b604051808215151515815260200191505060405180910390f35b34801561057b57600080fd5b5061059a60048036038101908080359060200190929190505050611317565b604051808215151515815260200191505060405180910390f35b3480156105c057600080fd5b50610603600480360381019080803561ffff169060200190929190803573ffffffffffffffffffffffffffffffffffffffff169060200190929190505050611509565b6040518082815260200191505060405180910390f35b34801561062557600080fd5b5061064460048036038101908080359060200190929190505050610662565b604051808261ffff1661ffff16815260200191505060405180910390f35b600061068e620151806106806004548561156f90919063ffffffff16565b61158890919063ffffffff16565b9050919050565b6000808260006004541180156106b4575061016d61ffff168161ffff16105b15156106bf57600080fd5b6106c884610fde565b1515156106d457600080fd5b6000341115156106e357600080fd5b600560008561ffff1661ffff168152602001908152602001600020915061071734836000015461159e90919063ffffffff16565b8260000181905550610773348360010160003373ffffffffffffffffffffffffffffffffffffffff1673ffffffffffffffffffffffffffffffffffffffff1681526020019081526020016000205461159e90919063ffffffff16565b8260010160003373ffffffffffffffffffffffffffffffffffffffff1673ffffffffffffffffffffffffffffffffffffffff168152602001908152602001600020819055507fd498819977fb9763f29bab6e4eee516c4cf59053922eb6a9fe59370a7bc28b3d333486604051808473ffffffffffffffffffffffffffffffffffffffff1673ffffffffffffffffffffffffffffffffffffffff1681526020018381526020018261ffff1661ffff168152602001935050505060405180910390a1600192505050919050565b60008060008060328686905010151561085657600080fd5b600091505b858590508210156109e257610887868684818110151561087757fe5b9050602002013561ffff16610fde565b151561089257600080fd5b6108b43387878581811015156108a457fe5b9050602002013561ffff16610b56565b90506108c9818461159e90919063ffffffff16565b92506005600087878581811015156108dd57fe5b9050602002013561ffff1661ffff1661ffff16815260200190815260200160002060010160003373ffffffffffffffffffffffffffffffffffffffff1673ffffffffffffffffffffffffffffffffffffffff168152602001908152602001600020600090557f33a4ae6c0627280fcb7aaf7e07deb59bbce49aa4808ee5457f8622f77ab5d28c3382888886818110151561097357fe5b9050602002013561ffff16604051808473ffffffffffffffffffffffffffffffffffffffff1673ffffffffffffffffffffffffffffffffffffffff1681526020018381526020018261ffff1661ffff168152602001935050505060405180910390a1818060010192505061085b565b6000809054906101000a900473ffffffffffffffffffffffffffffffffffffffff1673ffffffffffffffffffffffffffffffffffffffff1663a9059cbb33856040518363ffffffff167c0100000000000000000000000000000000000000000000000000000000028152600401808373ffffffffffffffffffffffffffffffffffffffff1673ffffffffffffffffffffffffffffffffffffffff16815260200182815260200192505050602060405180830381600087803b158015610aa657600080fd5b505af1158015610aba573d6000803e3d6000fd5b505050506040513d6020811015610ad057600080fd5b81019080805190602001909291905050501515610aec57600080fd5b6001935050505092915050565b600080600090505b8251811015610b4c57610b3d610b2e858584815181101515610b1f57fe5b90602001906020020151610b56565b8361159e90919063ffffffff16565b91508080600101915050610b01565b8191505092915050565b6000806000600560008561ffff1661ffff1681526020019081526020016000209150610bf08260000154610be26d04ee2d6d415b85acef81000000008560010160008a73ffffffffffffffffffffffffffffffffffffffff1673ffffffffffffffffffffffffffffffffffffffff168152602001908152602001600020546115bc90919063ffffffff16565b61158890919063ffffffff16565b9050610c2f6d04ee2d6d415b85acef8100000000610c2169152d02c7e14af6800000846115bc90919063ffffffff16565b61158890919063ffffffff16565b9250505092915050565b6000806000610c4784610fde565b1515610cbb576040517f08c379a000000000000000000000000000000000000000000000000000000000815260040180806020018281038252601c8152602001807f64617920686173206e6f742066696e69736865642066756e64696e670000000081525060200191505060405180910390fd5b600560008561ffff1661ffff1681526020019081526020016000209150610ce23385610b56565b90508160010160003373ffffffffffffffffffffffffffffffffffffffff1673ffffffffffffffffffffffffffffffffffffffff168152602001908152602001600020600090556000809054906101000a900473ffffffffffffffffffffffffffffffffffffffff1673ffffffffffffffffffffffffffffffffffffffff1663a9059cbb33836040518363ffffffff167c0100000000000000000000000000000000000000000000000000000000028152600401808373ffffffffffffffffffffffffffffffffffffffff1673ffffffffffffffffffffffffffffffffffffffff16815260200182815260200192505050602060405180830381600087803b158015610ded57600080fd5b505af1158015610e01573d6000803e3d6000fd5b505050506040513d6020811015610e1757600080fd5b81019080805190602001909291905050501515610ec2576040517f08c379a00000000000000000000000000000000000000000000000000000000081526004018080602001828103825260238152602001807f636f756c646e74207472616e73666572204d594220746f20636f6e747269627581526020017f746f72000000000000000000000000000000000000000000000000000000000081525060400191505060405180910390fd5b7f33a4ae6c0627280fcb7aaf7e07deb59bbce49aa4808ee5457f8622f77ab5d28c338286604051808473ffffffffffffffffffffffffffffffffffffffff1673ffffffffffffffffffffffffffffffffffffffff1681526020018381526020018261ffff1661ffff168152602001935050505060405180910390a1600192505050919050565b6000610f5342610662565b905090565b61016d81565b600260009054906101000a900473ffffffffffffffffffffffffffffffffffffffff1681565b600360009054906101000a900473ffffffffffffffffffffffffffffffffffffffff1681565b600160009054906101000a900473ffffffffffffffffffffffffffffffffffffffff1681565b69152d02c7e14af680000081565b60008161ffff16610fee42610662565b61ffff16119050919050565b600080600160009054906101000a900473ffffffffffffffffffffffffffffffffffffffff1673ffffffffffffffffffffffffffffffffffffffff163373ffffffffffffffffffffffffffffffffffffffff1614151561105957600080fd5b600060045414151561106a57600080fd5b61108d61016d61ffff1669152d02c7e14af68000006115bc90919063ffffffff16565b90506000809054906101000a900473ffffffffffffffffffffffffffffffffffffffff1673ffffffffffffffffffffffffffffffffffffffff166323b872dd3330846040518463ffffffff167c0100000000000000000000000000000000000000000000000000000000028152600401808473ffffffffffffffffffffffffffffffffffffffff1673ffffffffffffffffffffffffffffffffffffffff1681526020018373ffffffffffffffffffffffffffffffffffffffff1673ffffffffffffffffffffffffffffffffffffffff1681526020018281526020019350505050602060405180830381600087803b15801561118757600080fd5b505af115801561119b573d6000803e3d6000fd5b505050506040513d60208110156111b157600080fd5b810190808051906020019092919050505015156111cd57600080fd5b426004819055507f05a4a5db99c093a62c31c3cf60de62acb215e12a96373569d8ffe3443bce323533600260009054906101000a900473ffffffffffffffffffffffffffffffffffffffff16600360009054906101000a900473ffffffffffffffffffffffffffffffffffffffff1684604051808573ffffffffffffffffffffffffffffffffffffffff1673ffffffffffffffffffffffffffffffffffffffff1681526020018473ffffffffffffffffffffffffffffffffffffffff1673ffffffffffffffffffffffffffffffffffffffff1681526020018373ffffffffffffffffffffffffffffffffffffffff1673ffffffffffffffffffffffffffffffffffffffff16815260200182815260200194505050505060405180910390a1600191505090565b60056020528060005260406000206000915090508060000154905081565b60045481565b600080600160009054906101000a900473ffffffffffffffffffffffffffffffffffffffff1673ffffffffffffffffffffffffffffffffffffffff163373ffffffffffffffffffffffffffffffffffffffff1614151561137657600080fd5b61138a60028461158890919063ffffffff16565b9050826113a16002836115bc90919063ffffffff16565b1415156113aa57fe5b600260009054906101000a900473ffffffffffffffffffffffffffffffffffffffff1673ffffffffffffffffffffffffffffffffffffffff166108fc829081150290604051600060405180830381858888f19350505050158015611412573d6000803e3d6000fd5b50600360009054906101000a900473ffffffffffffffffffffffffffffffffffffffff1673ffffffffffffffffffffffffffffffffffffffff166108fc829081150290604051600060405180830381858888f1935050505015801561147b573d6000803e3d6000fd5b507fe56726172348e334b8fff79c722777489b247ed7148d44486ab67b65c1a54f1f33846114a842610662565b604051808473ffffffffffffffffffffffffffffffffffffffff1673ffffffffffffffffffffffffffffffffffffffff1681526020018381526020018261ffff1661ffff168152602001935050505060405180910390a16001915050919050565b6000600560008461ffff1661ffff16815260200190815260200160002060010160008373ffffffffffffffffffffffffffffffffffffffff1673ffffffffffffffffffffffffffffffffffffffff16815260200190815260200160002054905092915050565b600082821115151561157d57fe5b818303905092915050565b6000818381151561159557fe5b04905092915050565b60008082840190508381101515156115b257fe5b8091505092915050565b60008060008414156115d157600091506115f0565b82840290508284828115156115e257fe5b041415156115ec57fe5b8091505b50929150505600a165627a7a72305820016c29860e824204cc76621afb0d18b3491f30043918d35e895d666bb0ac80430029",
  "source": "pragma solidity 0.4.24;\n\nimport './SafeMath.sol';\nimport './ERC20Interface.sol';\n\n\ncontract TokenSale {\n  using SafeMath for *;\n\n  ERC20Interface mybToken;\n\n  struct Day {\n    uint totalWeiContributed;\n    mapping (address => uint) weiContributed;\n  }\n\n\n  // Constants\n  uint constant internal scalingFactor = 1e32;\n  uint16 constant public numDays = uint16(365);\n  uint constant public tokensPerDay = uint(10e22);\n\n  // MyBit addresses\n  address public owner;\n  address public mybitFoundation;\n  address public developmentFund;\n\n  uint public start;      // The timestamp when sale starts\n\n  mapping (uint16 => Day) public day;\n\n  constructor(address _mybToken, address _mybFoundation, address _developmentFund)\n  public {\n    mybToken = ERC20Interface(_mybToken);\n    developmentFund = _developmentFund;\n    mybitFoundation = _mybFoundation;\n    owner = msg.sender;\n  }\n\n  // @notice owner can start the sale by transferring in required amount of MYB\n  // @dev the start time is used to determine which day the sale is on (day 0 = first day)\n  function startSale()\n  external\n  onlyOwner\n  returns (bool){\n    require(start == 0);\n    uint saleAmount = tokensPerDay.mul(numDays);\n    require(mybToken.transferFrom(msg.sender, address(this), saleAmount));\n    start = now;\n    emit LogSaleStarted(msg.sender, mybitFoundation, developmentFund, saleAmount);\n    return true;\n  }\n\n  // @notice contributor can contribute wei to sale on any current/future _day\n  // @dev only accepts contributions between days 0 - 365\n  function fund(uint16 _day)\n  payable\n  duringSale(_day)\n  public\n  returns (bool) {\n      require(!dayFinished(_day));\n      require(msg.value > 0);\n      Day storage today = day[_day];\n      today.totalWeiContributed = today.totalWeiContributed.add(msg.value);\n      today.weiContributed[msg.sender] = today.weiContributed[msg.sender].add(msg.value);\n      emit LogTokensPurchased(msg.sender, msg.value, _day);\n      return true;\n  }\n\n\n  // @notice Updates claimableTokens, sends all wei to the token holder\n  function withdraw(uint16 _day)\n  public\n  returns (bool) {\n      require(dayFinished(_day), \"day has not finished funding\");\n      Day storage thisDay = day[_day];\n      uint amount = getTokensOwed(msg.sender, _day);\n      delete thisDay.weiContributed[msg.sender];\n      require(mybToken.transfer(msg.sender, amount), \"couldnt transfer MYB to contributor\");\n      emit LogTokensCollected(msg.sender, amount, _day);\n      return true;\n  }\n\n  // @notice Updates claimableTokens, sends all tokens to contributor from previous days\n  // @param (uint16[]) _day, list of token sale days msg.sender contributed wei towards\n  function batchWithdraw(uint16[] _day)\n  external\n  returns (bool) {\n    uint amount;\n    require(_day.length < 50);\n      for (uint i = 0; i < _day.length; i++){\n        require(dayFinished(_day[i]));\n        uint amountToAdd = getTokensOwed(msg.sender, _day[i]);\n        amount = amount.add(amountToAdd);\n        delete day[_day[i]].weiContributed[msg.sender];\n        emit LogTokensCollected(msg.sender, amountToAdd, _day[i]);\n      }\n      require(mybToken.transfer(msg.sender, amount));\n      return true;\n  }\n\n  // @notice owner can withdraw funds to the foundation wallet and ddf wallet\n  // @param (uint) _amount, The amount of wei to withdraw\n  function foundationWithdraw(uint _amount)\n  external\n  onlyOwner\n  returns (bool){\n    uint half = _amount.div(2);\n    assert (half.mul(2) == _amount);\n    mybitFoundation.transfer(half);\n    developmentFund.transfer(half);\n    emit LogFoundationWithdraw(msg.sender, _amount, dayFor(now));\n    return true;\n  }\n\n\n  // @notice Calculates how many tokens user is owed. (new income + claimableTokens) / 10**32\n  function getTokensOwed(address _contributor, uint16 _day)\n  public\n  view\n  returns (uint) {\n      Day storage thisDay = day[_day];\n      uint percentage = thisDay.weiContributed[_contributor].mul(scalingFactor).div(thisDay.totalWeiContributed);\n      return percentage.mul(tokensPerDay).div(scalingFactor);\n\n  }\n\n  // @notice gets the total amount of mybit owed to the contributor\n  function getTotalTokensOwed(address _contributor, uint16[] _days)\n  public\n  view\n  returns (uint amount) {\n    for (uint i = 0; i < _days.length; i++){\n      amount = amount.add(getTokensOwed(_contributor, _days[i]));\n    }\n    return amount;\n  }\n\n  // @notice returns the amount of wei contributed by _contributor on _day\n  function getWeiContributed(uint16 _day, address _contributor)\n  public\n  view\n  returns (uint) {\n    return day[_day].weiContributed[_contributor];\n  }\n\n  // @notice return the day associated with this timestamp\n  function dayFor(uint _timestamp)\n  public\n  view\n  returns (uint16) {\n      return uint16(_timestamp.sub(start).div(24 hours));\n  }\n\n  // @notice returns true if _day is finished\n  function dayFinished(uint16 _day)\n  public\n  view\n  returns (bool) {\n    return dayFor(now) > _day;\n  }\n\n  // @notice return the current day\n  function currentDay()\n  public\n  view\n  returns (uint16) {\n    return dayFor(now);\n  }\n\n  // @notice Fallback function: Purchases contributor stake in the tokens for the current day\n  function ()\n  public\n  payable {\n      require(fund(dayFor(now)));\n  }\n\n  // @notice reverts if the current day isn't less than 365\n  modifier duringSale(uint16 _day) {\n    require(start > 0 && _day < uint16(365));\n    _;\n  }\n\n  // @notice only owner address can call\n  modifier onlyOwner {\n    require(msg.sender == owner);\n    _;\n  }\n\n  event LogSaleStarted(address _owner, address _mybFoundation, address _developmentFund, uint _totalMYB);\n  event LogFoundationWithdraw(address _mybFoundation, uint _amount, uint16 _day);\n  event LogTokensPurchased(address _contributor, uint _amount, uint16 _day);\n  event LogTokensCollected(address _contributor, uint _amount, uint16 _day);\n\n}\n",
  "sourcePath": "/home/dog/code/mybit/tokensale/contracts/TokenSale.sol",
  "compiler": {
    "name": "solc",
    "version": "0.4.24+commit.e67f0147.Emscripten.clang"
  },
  "schemaVersion": "2.0.1",
  "updatedAt": "2018-11-06T12:37:12.016Z"
}